:020000040800F2
:100000000000022085EA0508B9970008591B02087C
:1000100035EB050835EB050835EB05080000000059
:1000200000000000000000000000000005B700080C
:1000300007B700080000000009B70008590F0108C1
:1000400035EB050835EB050835EB050835EB0508FC
:1000500035EB050835EB050873F7000877F700085E
:1000600035EB05087BF700087FF70008C99F0008FB
:10007000DD9F0008F19F000805A0000819A00008F6
:100080002DA0000841A0000835EB05080000000085
:1000900000000000000000000000000083F70008DE
:1000A000019F0008299F0008519F0008EB9E00084F
:1000B000799F00088D9F0008A19F000835EB050877
:1000C00035EB050835EB050835EB050835EB05087C
:1000D00035EB0508419A00084D9A00080000000021
:1000E00087F7000835EB05080BB700080000000093
:1000F00000000000000000000000000055A0000803
:100100000000000035EB0508B59F000835EB050839
:1001100000000000000000000000000000000000DF
:1001200069A000087DA0000891A00008A5A0000813
:10013000B9A000080000000000000000000000005E
:100140000000000000000000000000005DB7000893
:10015000CDA00008E1A00008F5A0000835EB0508D7
:1001600035EB050835EB0508000000000000000035
:10017000000000000000000000000000000000007F
:100180000000000035EB0508000000000000000042
:0801900035EB050835EB05080D
:0801980018E60500010000005B
:1001A00050FC0020020100000300140070FC00203D
:1001B000010A00000000770090FC0020010B000005
:1001C00000007600B0FC0020010F00000000760067
:1001D000D0FC0020010C010000007700F0FC0020A2
:1001E000011100000000760010FD00200113000046
:1001F00000001E0030FD00200119000000000D006D
:1002000050FD00200115000000000C0070FD0020D2
:10021000011A000000000E0090FD0020011B0000EC
:1002200000001E00B0FD00200116000000000C00C0
:10023000D0FD00200117000000000E00F0FD00209E
:100240000118000000000C0010FE00200127010032
:100250000000180030FE0020011F000000004800D0
:1002600050FE0020012000000000490070FE002028
:100270000121000000004A0090FE00200122000041
:1002800000004B00B0FE00200123000000004C00E5
:10029000D0FE00200124000000004D00F0FE0020F0
:1002A0000125000000004E0010FF00200126000084
:1002B00000004F0030FF0020012A0000000029004C
:1002C00050FF0020012B01000000290070FF0020DA
:1002D000012C01000000700090FF0020012D0100A2
:1002E00000005200B0FF0020012E01000000280095
:1002F000D0FF00200228010000012C00F0FF0020A8
:100300000131000000003C00100001200134000019
:0403100000002000C9
:10800000D0E907239A422FBFD01AC0688018C01A3F
:108010007047D0E9092300699A4238BF1218D31A71
:108020000138C01A7047D0E90902131A5842584162
:108030007047036A41690246C85CD16801338B42CC
:1080400028BF002313627047436A8269D154436A90
:1080500002690133934228BF0023426B4362D36815
:1080600043F08003D3607047436B188810F0100012
:108070001EBF1A889B8801207047436B99891A8814
:10808000890610B592B2044607D5900605D5E26A76
:1080900022B39888216B80B29047636B99891A88C4
:1080A000090692B20FD510060DD5D4E909128A42FD
:1080B00022D0A169895C998021690132B2FBF1F07B
:1080C00001FB1022A262998A1A88C90592B204D5CE
:1080D000D20744BF4FF6F7721A8010BD9B88E26941
:1080E0006169DBB28B54E369E2680133B3FBF2F1FF
:1080F00002FB1133E361D0E7DA6822F08002DA6034
:10810000E1E770477047036941681F2B30B54FF0B6
:10811000200285BFA3F120054C680C68AA4098BFD7
:108120009A4022421ED0826900201074D068846870
:10813000206820F0010020605468206865790A4CAE
:10814000828934F8154092B21F2B22EA0402828100
:1081500088BF203B4FF020028BBF9A4002FA03F306
:10816000CA608B6030BD00BF584306080E4BDA680A
:10817000D20310D4DA68D1060FD4DA68D2050ED44F
:10818000DA6812F0E00F0CD1DB6813F0020F14BFB5
:108190000820092070470120704706207047022000
:1081A00070470720704700BF003C024007B5092315
:1081B0008DF80730FFF7DAFF8DF807009DF80730DC
:1081C000012BF7D09DF8070003B05DF804FB838A0C
:1081D000028B9BB243EA024331EA03030CBF012046
:1081E0000020704782B00023019300930123009088
:1081F0000193019B63B1009A21F07F4314320092F6
:10820000009A12681A4214BF0120002002B0704781
:10821000009A1832F3E77047704701207047044B0B
:10822000D3E90003984288BF03F50063181A70472A
:1082300098150020054AD2E900318B42FDD0D118B3
:108240000133C3F30A03087A1360704798150020BE
:10825000044BD3F8080820B1D3F80808431F58424C
:108260005841704798150020012380F84930704725
:1082700010B5D0F8E83504461B699847032384F805
:108280001231002010BD08B590F8123180F813317A
:10829000042380F81231D0F8E835DB6898470020D5
:1082A00008BD08B5D0F8E435DB6903B19847002074
:1082B00008BD08B5D0F8E4351B6A9847002008BD12
:1082C00008B5D0F8E4355B6A9847002008BD10B5C2
:1082D000074C2068FF2808D00649D1F80C2801F582
:1082E000016100F035F8FF232360002010BD00BFBE
:1082F0000000002098150020432301480B807047A0
:1083000004000020122301480B8070474700002022
:10831000042301480B8070475900002070477047C4
:108320007047704770477047044B00200522C3F820
:108330000828C3F81808C3F81C08704798150020CF
:10834000024B0020C3F80808704700BF98150020B2
:10835000212838B50C461BD022282BD0202815D137
:10836000A1B1072A12D11A4DD5F81C3813B10968EA
:10837000002098472368C5F82038237985F82438E9
:10838000637985F82538A37985F82638002038BD2B
:108390000029FBD0072AF9D10D4BD3F820280A6019
:1083A00093F824280A7193F825284A7193F82638FF
:1083B0008B71EBE70029E9D0022AE7D1044BD3F80F
:1083C0001838002BE2D0098800209847DEE700BF6C
:1083D00098150020074AD2F82838D2F82C28934262
:1083E00003F1FF338CBF002001209B1A03EBC02058
:1083F000704700BF98150020ECE730B50F4CD4E96A
:1084000000239A4286BF03F50065AA1A9A1A0A4405
:10841000B2F5006F10D801440022814203D102B1AD
:108420006360002030BDE21810F8015B1572013363
:10843000C3F30A030122F0E70220F3E798150020B6
:10844000007970470079C0F3401070470079400907
:10845000704700BF704700BF704700BFD0ED007A83
:10846000D0ED036A30EE677AE6EE877AB0EE670AFF
:10847000C0ED007A704700BFD0ED017A80ED021A9E
:10848000F5EE407AF1EE10FA04BF9FED0C7AC7EEDC
:10849000207A31EE277A08BFC0ED017AC1EE076A73
:1084A000D0ED007AC0ED036A30EE677AE6EE877AA7
:1084B000B0EE670AC0ED007A704700BF83F9223E34
:1084C0009FED047AC7EE007A77EEA07A80EEA70AD5
:1084D000704700BF72C7D13D00230360436080ED49
:1084E000020A704790ED017AD0ED036AD0ED027A6E
:1084F00030EE470AA6EE807A90ED000A80ED017A10
:1085000037EE676AE6EE867A37EEC07AC0ED027A19
:10851000A6EE870A80ED000A704700BFD0ED056A1D
:10852000D0ED017A90ED007A90ED066AD0ED025A16
:1085300090ED035A80ED050A66EEA77AC0ED066A53
:10854000E7EE007A90ED077AE5EE867A90ED086A1C
:10855000D0ED045A80ED087AE5EE477AE5EEC67A6A
:10856000B0EE670AC0ED077A704700BFD0ED057A1C
:1085700090ED006A90ED067AD0ED035AE6EE007AAF
:1085800090ED016AF0EE406AA6EE267AB0EE670A38
:10859000D0ED047A90ED026A67EEC07AA5EEC07A5B
:1085A000E6EE267A80ED057AC0ED067A704703681C
:1085B0005A1C02601970704703690133012B036173
:1085C0001CD0D0ED005AD0ED026A07EE903A30EEA2
:1085D000656AF8EEE77A86EE277A77EE257AB0EECE
:1085E000667A30EE670AC0ED017AA6EE007AC0ED39
:1085F000007A80ED037A80ED027A7047002380EDE7
:10860000010A80ED000A8360704703685A1C02600B
:108610001970704790F83020034602F0FF0012B145
:10862000002283F8302070474FF400638381704745
:10863000064A002352F8041B814204D00133042B64
:10864000F8D1002070470120704700BFC81D0020EE
:108650003548F0B5B0F84E38B0F84058B0F9584841
:10866000B0F94668B0F952C8B0F96078ED1AB0F8C0
:108670004C386B43B0F9565804EBE334ED0295FBEC
:10868000F4F505EBE335A5F57A6E0EFB0EF4231336
:10869000B0F94848C0F85C580EFB06F60EFB04FE25
:1086A000B0F950485C4303FB0CFCF612241406EBB3
:1086B000EC2C04EB6E34B0F94468B0F84A3802345C
:1086C0000CEB860CA410D0F8646804F500440CFA96
:1086D00007FC63430CF1020C4CF25030DC0BA6EBB0
:1086E000AC0640FA07F3734355BF5B00B3FBF4F3EA
:1086F000B3FBF4F35B0071B1181240F6DE34404373
:1087000060430A4C00145C4300EB244000F6CF6049
:1087100003EB20130B6022B10A235D4308352D11B2
:1087200015600120F0BD00BF9815002043E3FFFF56
:1087300001207047012070472DE9F843604F15462E
:10874000D7F86848B7F86C28B7F87298C2EB2413CA
:108750005200C2EBE402B7F96E48624303FB03F434
:10876000B7F9703824135C43A41304EBE224B7F97F
:108770007638C7F884480E46A4F5FA3181FB01CE5D
:108780004FEAE37803FB0EF20CFB0822A3FB0C3844
:108790009044B7F9742882FB01021B0A120343EAD2
:1087A000086342EA105200031B1842EB282202F52C
:1087B0000042A3FB093809FB02884FEAE8734FEA3D
:1087C000680253EA68084FF000006DD0B7F97C9852
:1087D0004FEAE97809FB0EFE0CFB08EEA9FB0C9CA6
:1087E000E644B7F97AC88CFB01814FEA414C4FEA65
:1087F000484111EB0909D7F888184CEAD83C4EEBF0
:108800000C0CC1F5801E0EF00048B7F9781848EA44
:108810005E0810EB09004FEACE7EBEEB00000CEBC9
:10882000C10168EB010C40F63548A0FB080108FBCC
:108830000C1155F041FFB7F982384FEA613E4FEA1B
:10884000503C4CEAC14C03FB0EF24FEAE3790CFBBF
:108850000929A3FB0C324A4403FB0EFE0CFB02EE7B
:10886000A3FB0C3CB7F98028E6445B0E43EACE1329
:1088700013EB000C804602FB01F34FEAE27941EB77
:108880006E6EA2FB082809FB00314144D00C40EA7F
:1088900041301CEB0000B7F97E384EEBE141000A95
:1088A00040EA016000EB03100EB1000A306025B110
:1088B00004EB8404803424122C600120BDE8F8838A
:1088C000981500202DE9F347038A8689B6B205463C
:1088D0000C461E404FF0004901F14C0701F13408ED
:1088E00016B902B0BDE8F087B6FA86F329FA03F2AA
:1088F000D24391B2298216401B3B002C40D0042B5E
:10890000EED8DFE803F039342E280300E368D5F809
:108910002CA02BB19B681BB11FFA8AF1201D984730
:10892000636A33B19B6823B11FFA8AF104F11C001A
:108930009847E36B2BB19B681BB11FFA8AF1404645
:108940009847636D002BCBD09B68002BC8D01FFAD3
:108950008AF1384603E0E368696B5B68201D98473D
:10896000BEE7636AA96B5B6804F11C00F7E7E36B81
:10897000E96B5B684046F2E7636D296C5B68E8E78A
:10898000042B06D8DFE803F00D0B09070300EB6AA0
:108990000193019BA4E76B6BFAE7AB6BF8E7EB6B1A
:1089A000F6E72B6CF4E790F84820531C0244DBB246
:1089B00080F8483082F8341090F849200AB1132B1F
:1089C00001D954F046BF7047002280F8492054F086
:1089D00040BF70B50F4E96F88C38002BFBD1044683
:1089E0004518AC4201D1002070BDD6F82C3814F8DF
:1089F000011BF2180133C3F30A0382F88D18C6F87D
:108A00002C38FFF7E7FC0028EBD101200AF095FB9A
:108A1000F7E700BF9815002038B50C461146FFF760
:108A200017FC48B1054D002A55F8683C04DD204686
:108A3000FFF7CFFF55F8683C38BD00BF90260020F7
:108A4000F0B590F8CF5590F8CE1590F8D12590F864
:108A5000D03590F8CC7590F8CDC501EB05218DB2DD
:108A600003EB022390F8D31590F8D22585B002EBE2
:108A7000012207F01F06012192B29BB28E420446EA
:108A80008DF808708DF809C0ADF80A50ADF80C30BB
:108A9000ADF80E20C0F8402180F8111100F00C81D3
:108AA000022E00F01D81002E40F09B81BCF1090FC9
:108AB0005ED8DFE81CF0B600F4005D00C8005D0081
:108AC00057000A005D00A90076002E0A022EADF8BC
:108AD00006200BD0032E25D0012E49D1D0F8EC353D
:108AE0001B68A0780DF10601984709E0D0F8E4353D
:108AF00080789B6A0DF1060198474670C4F8F0052E
:108B0000BDF80620002A47D0BDF80E30002B43D018
:108B10009A4228BF1A46ADF806200146204654F076
:108B20009DFD39E0E9B2052922D8DFE801F003070D
:108B30000B0F1317D0F8EC355B68D2E7D0F8EC35A3
:108B40009B68CEE7D0F8EC35DB68CAE7D0F8EC35A7
:108B50001B69C6E7D0F8EC355B69C2E7D0F8EC35A5
:108B60009B69BEE71A4303D190F81231032B03D15E
:108B7000204654F0C7FC0FE0016905F07F0680F83D
:108B800014610B6865F30A121A430A6054F07AFD07
:108B90002EB1022384F81231002005B0F0BD01236C
:108BA000F8E7E9B2904D012905F8641CE0D890F887
:108BB0001231022B0FD0032BDAD1C1B9022380F876
:108BC0001231D0F8E43580F810115B6898472046E0
:108BD00054F058FDE0E70029F9D00121032380F883
:108BE000101180F81231204654F04FFCEFE790F856
:108BF00010110129EBD0D0F8E4355B68984715F8DF
:108C0000641C84F81011EEE7012AB1D190F81231FA
:108C1000022B04D0032BABD100F588717EE773499A
:108C20007CE790F81231023B012BA1D86E4B002259
:108C300043F85C2CD0F8182112B1022243F85C2CC6
:108C40006B4902226AE7012D08D1C0F81851D4F807
:108C5000E43502A99B6820469847B8E7022D9BD1CE
:108C6000DAB2002A98D102691B0A023B5268032B30
:108C700003D8DFE803F00C0E1012012363F3061291
:108C8000594B43F8582C012384F816319FE70223EF
:108C9000F4E70323F2E70423F0E70523EEE790F877
:108CA0001231023B012B3FF663AF012D7FF474AF0D
:108CB0000023C0F81831CAE790F81221032A7FF484
:108CC00057AFDBB2012B3FF653AFD0F8E43502A922
:108CD0009B689847BDF80E30002B7FF45DAF76E7B8
:108CE00007F06007202FD9B205D1D0F8E43502A9EA
:108CF0009B68984750E7BCF1010F31D0BCF1030FDE
:108D00001ED0BCF1000F7FF447AF90F81221022A69
:108D10005AD0032A7FF42CAF13F0800F4FF02802B3
:108D2000314B59D001F07F0102FB010191F81E2166
:108D3000002A4FD0012243F8542C2E490222EDE69E
:108D400090F81231022B3FD0032B7FF411AF002D8E
:108D50007FF47DAF4A063FF47AAF54F0A2FB76E78A
:108D600090F81221022A2FD0032A7FF401AF002DA0
:108D70007FF412AF11F07F003FF429AF5BB2002BFC
:108D80004FF02802B5BF02FB004102FB014101F593
:108D90008E7101F55D710022DB0F08708A704B70D7
:108DA00004EB8000C9786BB18269136802396FF3F4
:108DB000555301298CBFC3F30071012161F31C736A
:108DC000136044E7426DF0E74B063FF4E5AE54F024
:108DD00068FBE1E60022AEE702FB010191F8762391
:108DE000A6E707F08001F2E7902600203026002059
:108DF000342600203C26002010B5044671BB90F8B4
:108E00001131032B1BD1D0F89023D0F87C339A4238
:108E100017D9C178012908BFD0F88013A2EB03024B
:108E200004BFC918C0F88013934228BF1346C0F886
:108E300090239BB2D0F88023002154F0D3FC002073
:108E400010BDD0F8E4351B6923B190F81221032A34
:108E500000D19847204654F015FCF0E7D0F8E435EF
:108E60009B69002BEBD090F81221032AE7D1984799
:108E7000E5E770B50A7812F0600406460D462AD080
:108E8000202C2FD1CC884B78FCB112060CD51F4971
:108E900022461846FFF75CFAEA881C49304654F02F
:108EA000DDFB0024204670BD194A1360194A0323D4
:108EB000C2F80C4880F81131C0E9E444234602F5B9
:108EC0000162002154F08EFCEBE7022211441846A7
:108ED000FFF73EFAE6E74B780A2B08D00B2B0BD0B6
:108EE000062BDFD1304654F00DFB0224DAE70A49A5
:108EF000012254F0B3FBD5E78B781BB9074B43F83D
:108F0000504CCFE754F0FEFACCE700BFA81D00207C
:108F10000000002098150020402600209026002008
:108F200010B5282303FB0101074AB1F88C1304464E
:108F30001046FFF762FA2046034A4023012154F00D
:108F400051FC002010BD00BF44260020002310B5B6
:108F500019460446402254F0E3FA4022802120467C
:108F6000002354F0DDFA012384F81231D4F8E835F7
:108F7000A0785B689847002010BD38B540220446B1
:108F80000223812154F0CCFA204602234022012101
:108F900054F0C6FA204603230822822154F0C0FA76
:108FA000084B0222002583F84B2083F84C50FFF732
:108FB000BBF901212046044A402354F013FC284603
:108FC00038BD00BF000000204426002038B5012233
:108FD000044640F20113A0F844310125114654F033
:108FE0001FFC29462046A4F89C53002254F018FC8C
:108FF0004FF48173A4F86C3120462A46022154F0C4
:109000000FFCFFF79DF9002038BD38B5254C94F8CA
:109010008C28012A034633D1234850F80C2C1AB966
:1090200084F88C28002038BD402AD4F8281819D993
:10903000403A01F1400540F80C2CC4F82858402271
:109040001A4810FA81F1C3E9541140F201100021CD
:10905000C3E95621A3F8440103F5A271184654F060
:1090600028FBDFE702EB0105C4F828584FF00005A4
:1090700040F80C5C0ABF022092B284F88C08DFE74B
:10908000022ACFD1002540F20112C0E95455C0E9AF
:109090005655A0F8442100F5A27154F00AFB84F85B
:1090A0008C58BFE79815002090260020251E002030
:1090B00038B52A4C54F8083C0F2B03F1010203D0B9
:1090C00044F8082C002038BD254A002344F8083C09
:1090D00092F88C38002BF5D1D2F82818B1F5006F32
:1090E00008BFC2F82838D2F82818D2F82C3899428C
:1090F00003D1002382F88C38E4E78CBFC1F500630C
:109100005B1A402B1BD9403B01F1400544F80C3C55
:10911000012382F88C38C2F828584023114A12FAE9
:1091200081F140F20112A0F844210022C0E954115B
:10913000C0E9563200F5A27154F0BBFAC2E701EB68
:109140000305C2F828584FF0000544F80C5C0EBF28
:10915000022401249BB282F88C48DFE7902600208D
:1091600098150020251E002008B5024852F021F96C
:10917000014808BDD5D206088C26002008B5024853
:1091800052F017F9014808BDE1D206088C260020EC
:1091900008B5024852F00DF9014808BDE6D20608AC
:1091A0008C26002008B5024852F003F9014808BD9A
:1091B000F0D206088C26002008B5024852F0F9F8D3
:1091C000014808BDFBD206088C26002000682E222C
:1091D000F42107F01FBF054B0068B3F86028920127
:1091E000343202F0FC02F42107F014BF981500207D
:1091F00008B53122F421006807F00CFF012008BDFA
:109200000068F022FF2107F005BF0068B422FF21AB
:1092100007F000BFCA4341EA02120068D2B2D2216D
:1092200007F0F8BE0A460068A52107F0F3BE5521F5
:10923000F8E700689622FF2107F0ECBE0A460068B6
:10924000872107F0E7BEC90101F08002006878219C
:1092500007F0E0BEF8B504460E461546071D206827
:109260003A46FF2108F006FC30B116B12379DB073E
:10927000F5D40DB123792B70F8BD00220121E9E767
:1092800010B50446FFF7C1FF18B12046BDE81040F5
:10929000F3E710BD10B50446FFF7C4FF18B1204630
:1092A000BDE81040E9E710BD73B50546CDE90023E0
:1092B000FFF7E6FFA8B12846FFF7B9FF88B12846B7
:1092C000FFF7DBFF68B16E46082416F8011B28463D
:1092D000FFF7E0FF28B1013C14F0FF04F5D102B024
:1092E00070BD0020FBE7CC21D4E770B506460C46E4
:1092F0008D18AC4201D1012006E014F8011B304664
:10930000FFF7C8FF0028F4D170BD38B505461446F4
:10931000FFF794FF2846FFF7B0FF20B11CB12B796F
:10932000C3F34013237038BD10B50446FFF7A8FF00
:1093300038B12046FFF7D7FF18B12046BDE81040EE
:109340009BE7002010BDC90138B501F0800104463B
:109350001546FFF778FF08B9002038BD002201212B
:109360002046FFF777FF0028F6D023795B092B70A2
:10937000F3E710B5021D0446FF21006808F07AFBF0
:1093800018B12079C04300F0010010BD38B5044683
:10939000154600680A46E12107F03CFE30B120681E
:1093A0002A46FF21BDE8384008F064BB38BD0A46B4
:1093B000C321EBE738B5021D0D46F0210446FFF747
:1093C000E5FF08B123792B7038BD0A46E121DDE7BE
:1093D00038B504460D46FFF72CFF40B12046FFF795
:1093E0004CFF20B129462046BDE83840EDE700207B
:1093F00038BD70B506460C468D18AC4201D101202F
:1094000006E021463046FFF7E3FF01340028F4D19F
:1094100070BDF7B515460DF107021C4606460F460E
:1094200008F028FB9DF8073005EA0302A24209D0A4
:1094300023EA050222433946304603B0BDE8F04036
:1094400007F0E8BD03B0F0BD07B50223006801AA2C
:10945000F62107F0C7FF28B1BDF80430034A5BBA14
:10946000A2F8403803B05DF804FB00BF9815002057
:1094700007B50323006801AAF62107F0B3FF88B1FE
:109480009DF805309DF8042008491B0243EA024379
:109490009DF806201343B1F96028C2F10802D340B9
:1094A000C1F8643803B05DF804FB00BF98150020D4
:1094B00037B50623F7210068164C6A4607F092FF7D
:1094C0001549E8B19DF801209DF800309DF8035042
:1094D000120142EA03329DF8023042EA13129DF86B
:1094E0000430C1F888281B0143EA05339DF8055074
:1094F00043EA1513C4E93F23C1F8683803B030BD0F
:10950000D4F8FC30C1F88838D4F80031C1F8683894
:10951000F4E700BF902600209815002030B50923FD
:1095200087B01A460C210446FFF773FF282009F084
:1095300004FE01AA0821204608F09CFA9DF90420A7
:109540009DF80430002A03DB0025284607B030BD13
:109550005D06F9D5122301AA1021204607F042FF2B
:1095600005460028F0D09DF805209DF8043011092B
:1095700041EA0311DB09584B18BFA1F58051A3F84C
:10958000041112029DF8061002F4706211431005D6
:109590009DF808209DF8070048BFA1F58051A3F869
:1095A000061112019DF8091042EA003242EA111038
:1095B0001203BDF80A204FEA014152BA01F47021AA
:1095C00092B248BFA0F580100A43090348BFA2F534
:1095D0008012C3F80C21BDF80C20C3F8080152BA60
:1095E00091B21204BDF80E2048BFA1F5803152BAE5
:1095F0001004A3F8101191B2BDF8102048BFA1F5D6
:10960000803152BAA3F8121191B21204BDF812209F
:1096100048BFA1F5803152BA1004A3F8141191B2D9
:10962000BDF8142048BFA1F5803152BAA3F8161135
:1096300091B2120448BFA1F58031A3F81811204659
:10964000002307220821FFF7E4FEA5220E21204671
:1096500007F0E0FC96220F21204607F0DBFC0222F7
:109660006221204607F0D6FC00220E21204607F09A
:10967000D1FC00220F21204607F0CCFC0223072258
:1096800008212046FFF7C5FE282009F056FD542387
:109690001A4620460621FFF7BCFE0DF103022821E1
:1096A000204608F0E7F99DF8033023F07F0343F0EC
:1096B00054031A4620460721FFF7ABFE0C231A4637
:1096C00020460921FFF7A5FE07231A460821204658
:1096D000FFF79FFE39E700BF9026002070B50668AF
:1096E0000546304605F0FAFE0E230446021D3B21D6
:1096F000304607F077FEA07040B1A3895BBAAB8318
:10970000E3895BBAEB83238A5BBA2B8470BD10B507
:109710000446006805F0E2FE837853B183885BBAA3
:10972000E381C3885BBA238203895BBA6382012029
:1097300010BD1846FCE710B500680C4605F0CEFEDB
:1097400083784BB143892222DBBA93FBF2F303F215
:109750006D132380012010BD1846FCE7024BD3F89F
:10976000240107F056BB00BF902600200E49D1F817
:10977000883043F47003C1F888300C4B1A6800201D
:1097800042F001021A6098601A6822F0847222F492
:1097900080321A60064A5A601A6822F480221A60DF
:1097A000D860044B8B60704700ED00E00038024049
:1097B000103000240000000870472DE9F04147698F
:1097C00006468846002F59D10368C3F30D0515B32B
:1097D000D8F800803568FEF7E9FC092840F087805A
:1097E000444C236923F440732361236943F40073D9
:1097F0002361236943F001032361C5F80080FEF76C
:10980000D5FC2369092823F0010323616FD1336854
:109810000433336032E0384A934229D302F5804260
:10982000934224D302F5804293422AD3334A93428F
:1098300029D902F58032934227D902F500329342AA
:1098400025D902F50032934223D902F50032934222
:1098500021D902F5003293421FD902F580229342AA
:109860001DD9B3F1016F1CD3052009F01BFD08259C
:10987000FEF79CFC092816D04FF0FF373846BDE8AC
:10988000F0811025F4E71825F2E72025F0E72825D8
:10989000EEE73025ECE73825EAE74025E8E74825FC
:1098A000E6E75825E4E7134C236923F4407323616A
:1098B000236943F400732361236923F0F8032361D0
:1098C00023691D4345F002052561236943F4803374
:1098D0002361FEF76BFC236923F0020323612369F4
:1098E000092823F0F80323613FF472AFC4E76FF057
:1098F0000107C3E7003C024000400008FFFF0008EA
:109900000028ACBF00F16040064B4FEA0111ACBF2C
:1099100000F5614000F00F00C9B2B4BF195480F8DF
:109920000013704714ED00E02DE9F0479846414BD5
:10993000914603EB800205469468002C78D02833CA
:10994000636004F13E03A36104F59F73E3614FF488
:109950008073C4E90433236894F83D00E160A36395
:1099600006F02AFB064694F8440294F83CA0271D12
:1099700008B151F0B1FF94F8450208B151F0ACFFC5
:10998000D4F840321BB12C4A116B0B43136318F00F
:10999000080F2CD00135EDB21EB140F20673F380F2
:1099A000357218F0100F94F846221AD00221304672
:1099B00006F014FAD4F8481294F94702FFF7A0FF12
:1099C00094F9473294F84722002B07DB02F01F017D
:1099D00001228A405B09194941F823203846BDE835
:1099E000F08718F0200F14BF12213221DFE719F0A1
:1099F000020F0CD06B1CDBB21EB140F20652F2809B
:109A0000337294F846220221304606F0E7F919F045
:109A1000010FCFD0504606F0CFFA0135EDB218B1A4
:109A200040F20663C380057294F846220221BFE724
:109A30002746D3E7584306080038024000E100E01B
:109A40000148FEF71ABB00BF640000200148FEF782
:109A500014BB00BFB0020020024B586FC0F300706F
:109A6000704700BF0038024070B5002828D04C680D
:109A70004CB9426815685679AB8902229BB2B24054
:109A800023EA0203AB818A683AB943681D68AB894F
:109A900023F001031B041B0CAB81816044B14468BB
:109AA000216864798D890223A3402B439BB28B816B
:109AB00032B143681A6893899BB243F001039381E2
:109AC00070BD0B4B30B51A4600241D79854208D174
:109AD000DD68294203D0142000FB042030BD00299A
:109AE000F9D001340A2C03F11403EED10020F5E77C
:109AF000F804002038B503681B681C68254B03F583
:109B0000B86393ED007A07EE902AB8EE477AF8EE44
:109B1000677A013987EE270A8DB2DFED1F7A30EEC2
:109B2000270A57F04BFA1D4A23880138944280B225
:109B30009BB212D002F5806294420ED0B4F1804FF5
:109B40000BD0A2F58032944207D002F58062944295
:109B500003D002F58062944202D123F070039BB2DD
:109B60000F4A944206D002F5806294421CBF23F44F
:109B700040739BB22380094BE5629C42208503D051
:109B800003F580639C4201D1002323860123A38235
:109B900038BD00BF000000200AD7233C0000014070
:109BA000001000402DE9F0434568A87910F0040347
:109BB00000F002020BD0002017468046042406461F
:109BC0006B79032B49D8DFE803F0094A89C990462D
:109BD0004FF480701F461C460126F1E72D682B8C40
:109BE00023F001031B041B0C2B84B5F820C0B5F82F
:109BF00004902B8B23F073031B041B0C43F0600EAB
:109C00002CF0020C6E4B4FEA0C4C4FEA1C4C48EA0D
:109C100006069D421FFA89F94CEA060C03D003F5AB
:109C200080639D420AD14FF6F3730CEA03033B4372
:109C300029F4407943EA040C40EA0909A5F80490A4
:109C4000A5F818E06963A5F820C02B8B23F0080362
:109C50001B041B0C43F008032B83BDE8F0832D6825
:109C60002B8C23F010031B041B0C2B842A8CB5F8BF
:109C700004E0B5F818C0524B2CF4E64C22F0200258
:109C80004FEA0C4C12044FEA1C4C120C48EA060630
:109C90009D421FFA8EFE4CF4C04C42EA061203D0DD
:109CA00003F580639D420BD122F0800242EA071245
:109CB00022F040022EF4406E42EA04124EEA800E78
:109CC000A5F804E0A5F818C0A9632A842B8B23F417
:109CD00000631B041B0C43F40063BDE72D682B8C51
:109CE00023F480731B041B0C2B842A8CB5F804E02E
:109CF000B5F81CC022F400732CF0730C304A4FEA04
:109D00000C4C1B044FEA1C4C1B0C48EA06069542FF
:109D10001FFA8EFE4CF0600C43EA062303D002F5D6
:109D2000806295420BD123F4006343EA072323F4B6
:109D300080632EF4405E43EA04234EEA001EA5F839
:109D400004E0A5F81CC0E9632B84AB8B23F0080367
:109D50001B041B0C43F00803AB837EE72C68238CA9
:109D600023F480531B041B0C2384258CA288A38B13
:109D700025F400552D0448EA06062D0C23F4E6438D
:109D800045EA06350E4E1B041B0CB44292B243F456
:109D9000C04303D006F58066B44203D122F480426A
:109DA00042EA8012A280A38321642584A38B23F43A
:109DB00000631B041B0C43F40063A3834DE700BF47
:109DC0000000014043685A79032A0FD8DFE802F007
:109DD0000205080B1868343070471868383070472F
:109DE00018683C3070471868403070470020704752
:109DF00010B543681A685879084B0344012093F85A
:109E00005840138CA0409BB223EA00031384138CA8
:109E1000A140194389B2118410BD00BF5843060800
:109E2000F0B5EFF31184102383F31288C5684668F8
:109E3000AA68136823F00103136032687779104E23
:109E4000938936F817609BB223EA060393812A6947
:109E50006D681F2A4FF0200385BF203A934093403E
:109E6000EB6098BFAB60E3B283F31188C3689B6873
:109E700059601A6842F001021A6001230374F0BDB0
:109E8000584306080268137D012B04BF0223137593
:109E900092F82C100CBF4FF400730023012904BF6B
:109EA000022182F82C1092F8441008BF43F480631A
:109EB000012904BF022182F8441092F85C1008BF07
:109EC00043F4006301290DD1022182F85C1043F4B0
:109ED00080534268116800224A628A8992B2134311
:109EE0008B8101E0002BF4D17047034B0348D3F87A
:109EF0002811FEF7E7BC00BF9026002000000140BB
:109F000010B5064C0648D4F82811FEF7DBFCD4F84F
:109F100048110448BDE81040FEF7D4BC902600204C
:109F2000000001400040014010B5064C0648D4F83E
:109F30002811FEF7C7FCD4F84C110448BDE81040C6
:109F4000FEF7C0BC90260020000001400044014004
:109F500010B5064C0648D4F82811FEF7B3FCD4F827
:109F600050110448BDE81040FEF7ACBC902600201C
:109F70000000014000480140034B4FF08040D3F8FF
:109F80002C11FEF79FBC00BF90260020024B034817
:109F9000D3F83011FEF796BC902600200004004054
:109FA000024B0348D3F83411FEF78CBC90260020F6
:109FB00000080040024B0348D3F83811FEF782BC7A
:109FC00090260020000C00400348D0F8D03513B193
:109FD00000F2C45018477047000000200348D0F832
:109FE000F03513B100F2E45018477047000000202C
:109FF0000348D0F8103613B100F2046018477047D8
:10A00000000000200348D0F8303613B100F224607D
:10A0100018477047000000200348D0F8503613B1AD
:10A0200000F2446018477047000000200348D0F851
:10A03000703613B100F264601847704700000020CA
:10A040000348D0F8903613B100F284601847704787
:10A05000000000200348D0F8B03613B100F2A4602D
:10A0600018477047000000200348D0F8D03613B1DD
:10A0700000F2C46018477047000000200348D0F881
:10A08000F03613B100F2E46018477047000000207A
:10A090000348D0F8103713B100F204701847704726
:10A0A000000000200348D0F8303713B100F22470CC
:10A0B00018477047000000200348D0F8503713B10C
:10A0C00000F2447018477047000000200348D0F8A1
:10A0D000703713B100F26470184770470000002019
:10A0E0000348D0F8903713B100F2847018477047D6
:10A0F000000000200348D0F8B03713B100F2A4707C
:10A100001847704700000020036823F00103036034
:10A110000023036043608360C360036121234361C4
:10A120002A4B984203D13D2243F8082C7047284B14
:10A13000984204D14FF4746243F8202C7047254BA9
:10A14000984204D14FF4741243F8382C7047224BD4
:10A15000984204D14FF0746243F8502C70471F4B63
:10A16000984203D11E4A43F8642C70471D4B984215
:10A1700003D11D4A43F87C2C70471C4B984203D1F5
:10A180001B4A43F8942C70471A4B984204D14FF065
:10A190003D5243F8AC2C17E0174B9842C3D0174BF5
:10A1A0009842C7D0164B9842CCD0164B9842D1D08B
:10A1B000154B9842D6D0154B9842DAD0144B9842A2
:10A1C000DED0144B9842E2D0704700BF10600240CE
:10A1D00028600240406002405860024070600240C7
:10A1E0003D00002088600240400F0020A060024037
:10A1F00000003D20B8600240106402402864024024
:10A200004064024058640240706402408864024026
:10A21000A0640240B86402402DE9F04F3C2204469D
:10A220000021B94893B059F0FAFFB849621E0334CF
:10A2300012F8013F581E032888BF0023A24241F8AC
:10A24000043BF5D10120FEF7F3F940B1B04B2022D9
:10A2500083F86C2193F89C21013283F89C21022021
:10A26000FEF7E6F940B1AA4B212283F8782193F852
:10A270009C21013283F89C210320FEF7D9F940B1DB
:10A28000A34B102283F8842193F89C21013283F898
:10A290009C210420FEF7CCF940B19D4B112283F89C
:10A2A000902193F89C21013283F89C21994E964C81
:10A2B000DFF870824FF00F094FF0000A06F15C07DB
:10A2C000207B40B394F90D5005F076FE28B10523AC
:10A2D0008371002380F807900372132105F058FD65
:10A2E000227B002317F83310914240F0DC8006EB0C
:10A2F000C3031B6E2361182303FB0585D5F8D837EC
:10A3000023755A1C0723A3750123C5F8D827637545
:10A3100085F8D4379A4409F101095FFA89F9B9F14E
:10A32000130F04F10C04CBD1BAF1000F00F0B88088
:10A33000794CDFF8F4914FF00008237C002B00F0FB
:10A34000A5806079704D51F0C7FA207951F0C4FAB8
:10A35000A068FFF7D9FE0023CDE90E33CDE9103315
:10A36000069308932368CDF814904C330493E36864
:10A37000039363691422534307934FF480624FF4AD
:10A380000063CDE909234FF400514FF48073CDE908
:10A390000B134FF4003303A90D9351F0B1F9A268E8
:10A3A000136843F0010313605C4A536823F473336A
:10A3B00023F4477323F0030343F4403353602268CC
:10A3C00063695168012B21F04071D4BF0020012046
:10A3D00021F4807141EA00215160906850490140A8
:10A3E00041F002019160D16A013B21F47001DBB2BE
:10A3F00041EA0353D3624FFA88F101239C4601914D
:10A400004FF01F0E697D51B395F90D1001988142EF
:10A4100025D1297CAE7D5F1C0929FFB249D9A1F164
:10A420000A00D2F80CA000EB40004FF0070B0BFA2B
:10A4300000FB2AEA0B0A06FA00F040EA0A00D060A4
:10A44000062B44D8013B506B03EB83030EFA03F653
:10A4500020EA060001FA03F3034353633B460CF181
:10A46000010CBCF1050F05F10C05CBD1936843F449
:10A4700000739360936843F480739360936843F030
:10A4800001039360936843F08043936008F10108EF
:10A49000B8F1030F04F1180409F1C8097FF44DAFB6
:10A4A00013B0BDE8F08F0133102B7FF41BAF0023F6
:10A4B00020E7106901EB410A4FF0070B0BFA0AFB8A
:10A4C00020EA0B0006FA0AF630431061B8E70C2BBD
:10A4D0000CD8073B106B03EB83030EFA03F620EA5C
:10A4E000060001FA03F303431363B7E70D3BD06A99
:10A4F00003EB83030EFA03F620EA060001FA03F3E6
:10A500000343D362AAE700BFF0270020C81D002044
:10A510009026002058430608C4070020002301406D
:10A52000FDF7FFC000000020302800202DE9F04199
:10A530000022012603250B6806FA02FC3CEA03030D
:10A5400031D10368540005FA04FE23EA0E030360C8
:10A550000B79D0F800806FEA0E0703FA04FE013B86
:10A560004EEA080E012BC0F800E011D883681F40A6
:10A5700087604B798768A3403B438360436823EA45
:10A580000C0343608B79476893409BB23B43436025
:10A59000C36805FA04F723EA0703C360CB79C768E9
:10A5A000A3403B43C3600132102AC4D1BDE8F0810F
:10A5B000F7B51C2005F000FD1121044605F0E8FB6D
:10A5C000204605F0D7FBC82008F0B7FD204605F06F
:10A5D000CCFB1B2005F0F0FC20B14FF48773C38047
:10A5E0000023037224B140F20E23E3800023237280
:10A5F000CA4B502283F843230822C3F88820BFF3B4
:10A600004F8FBFF36F8FC64CC64D236B43F00103D2
:10A6100023634FF4C05040F20233CDE90003C24837
:10A620006946FFF783FF436A23F470434362436A3A
:10A6300043F420434362436A23F470234362436A32
:10A6400043F4202343623F2005F0B6FC002105F0CF
:10A650009FFB636C43F480436364636B43F080034C
:10A660006363B24BB24C01205861B24BC4F8DC3981
:10A6700003F12C024833C4F8E439AF4BC4F8E029A5
:10A68000C4E9FE53022384F800344FF0A043C4F819
:10A69000043403F50063C4F8083403F58073C4F888
:10A6A000103403F50073C4F84C34A3F5F073C4F808
:10A6B000143403F50073C4F85034A3F5F073C4F8F0
:10A6C000183403F50073C4F85434A3F5F073C4F8D8
:10A6D0001C3403F50073C4F85834A3F5EC63C4F8D4
:10A6E0000C344033C4F8C434C033C4F88834203345
:10A6F000C4F88C342033C4F890342033C4F8943434
:10A700002033C4F898342033C4F89C342033C4F880
:10A71000A0342033C4F8A43403F5226384F803047E
:10A72000C4F8C83403F58053C4F8CC3403F580531F
:10A73000C4F8D03403F58053C4F8D4344FF0502318
:10A74000C4F8D83403F58053C4F8DC3403F58053DF
:10A75000C4F8E03403F58053C4F8E434A3F5E443CB
:10A760000022C4F8043504F57E7384F80A0584F8E1
:10A770000C2519461546402681F81C21A1F82221F6
:10A780000132042AC1E9496581F81D0181F81F5190
:10A79000C1F8305101F12801EED1002211464020CC
:10A7A00083F87423A3F87A230132042AC3E9DF0172
:10A7B00083F8751383F87713C3F8881303F128031C
:10A7C000EED14FF0A04300259A6822F001029A6072
:10A7D000DA6842F04002DA6051F0EEF994F80134A0
:10A7E00094F8FB235B1B18BF01231B0143F02103DB
:10A7F00063F31745D4F80434012A9D6307D19A689E
:10A8000022F03E0141F02A0161F307029A60DA6802
:10A81000C2F3076121F0600141F0400161F31F6262
:10A82000DA60D4F8042500201060D4F808241168F8
:10A8300060F3CC21116094F80314012912D111683E
:10A8400041F00301116080225A6202F580029A628F
:10A8500002F14012C3F804214FF4A072C3F808219A
:10A86000C3F80C21102051F089F900230093009BBC
:10A8700043F010030093D4F80434009A1A612F4A6D
:10A8800019690091013A02D00099C906F8D4D4F8A8
:10A89000081494F8F9532A4E00224FF0FF300A6151
:10A8A00017464A614FF0FF0C8861CA61AA4251D332
:10A8B0000022244E17464FF0FF0C95425CD80A69DF
:10A8C00042F480720A6194F8FB23012A04BF1E48F7
:10A8D0000863002199614FF0FF306FF080415961AA
:10A8E0005860596119499961B2FA82F218495209BE
:10A8F00041EA021299690A439A619A6842F0010298
:10A900009A60D4F8E0391B689847044B502283F8CA
:10A91000432308229A6003B0F0BD00BF00E100E0CD
:10A92000003802400804010000000240003C0140E1
:10A93000902600200C08002040004001410D03003B
:10A94000A02A0020DC2A00200301810000080080EA
:10A9500008383C0056F8040BD0F800E0BEF1000FB8
:10A96000ACBF4FF0000E4FF0904EC0F800E0013247
:10A970000761C0F808C099E756F8040BD0F800E06A
:10A98000BEF1000FACBF4FF0000E4FF0904EC0F87C
:10A9900000E001320761C0F808C08EE7204A9368E2
:10A9A00003F00C03042B10B520D0082B20D01D4B36
:10A9B0001B4C0360A3681C4AC3F30313134493F8AE
:10A9C00070180368CB404360A168C1F38221114431
:10A9D00091F8701823FA01F18160A168C1F3423146
:10A9E0000A4492F87028D340C36010BD0F4BDFE7D4
:10A9F0005368516813F4800F01F03F01536814BF8E
:10AA00000A4A084AB2FBF1F1054A5268C2F3014210
:10AA1000C3F3881301324B435200B3FBF2F3C7E791
:10AA2000003802400024F4000000002000127A00E8
:10AA3000F0B5446B8668A38923F400531B041B0CF8
:10AA4000A3818279278A0546BFB2100312F0040F52
:10AA50004FEA022100F400506A7927F4405740EA97
:10AA60000700208214BF4FF4805C4FF0000C12F0FE
:10AA7000010F0CBF002304239207A28922F4B052D5
:10AA800001F4806122F00C0248BF43F0080341EA60
:10AA90000C0112040B43120C1A43A281A38A23F463
:10AAA00040731B041B0C85B0A3826846FFF776FF3A
:10AAB000214B9C4203D003F580639C423AD1039B17
:10AAC000A2891921170401FB03F34FF064014CBF65
:10AAD0007600B600B3FBF6F3B3FBF1F001FB1033E5
:10AAE0000201A08900044BBFDB001B01323332336B
:10AAF0004BBFB3FBF1F3B3FBF1F303F0070303F038
:10AB00000F0313439BB223816A6BAB7913F0080FD9
:10AB1000938A0BBF23F008039BB21B0443F0080386
:10AB200008BF1B0C938293899BB243F4005393811B
:10AB300005B0F0BD029BC3E7001001402DE9F843CA
:10AB40001E46204B9DF820509DF82470984289465F
:10AB500090462CD13B462A4631460020FEF7E4FEC3
:10AB600004460020C4E90700C4E90900C4E90B98C1
:10AB70006571A660A7712046FFF75AFFEA0707D55F
:10AB8000636B4FF6DF721A80DA6842F02002DA60F7
:10AB9000626BAB0742BFD36843F08003D3609389F5
:10ABA0009BB243F4005393812046BDE8F883064BE3
:10ABB000984204D13B462A4631460120CEE7002484
:10ABC000F2E700BF001001400044004081602FE721
:10ABD00041712DE72DE9F043654F07EBC00985B0C2
:10ABE00005464FEAC00899F8840805F0E5F90646DD
:10ABF00099F8850805F0E0F9044699F8860850F0C0
:10AC00006BFE6B1CDBB21EB140F60B12F28033728E
:10AC10001CB140F60B22E280237204223A21304616
:10AC200005F0DCF8204604223A2105F0D7F807EBBE
:10AC30000803D3F880484F4B9C4263D103F5F233AD
:10AC40001A6A42F400121A621A6A22F400121A6294
:10AC5000474497F88738022B6ED0032B6ED0464EB0
:10AC6000464A012B08BF1646A78827F03F076846CB
:10AC70003F04FFF793FE3F0C029A414BB2FBF3F304
:10AC800098B20743A780218821F001010904090C2B
:10AC900021803C498E4253D13B4BB2FBF3F2013051
:10ACA00092B2042A80B238BF04222084A28323886F
:10ACB0009BB243F001032380238823F4816323F0B4
:10ACC00002031B041B0C43F4806323804FF4804376
:10ACD0002381238823F080031B041B0C23802388FB
:10ACE0009BB243F001032380284B03EB4513012261
:10ACF00083F8F129002283F8F05983F8F22905B08E
:10AD0000BDE8F083224B9C4209D103F5F0331A6A67
:10AD100042F480021A621A6A22F4800297E71D4BFD
:10AD20009C4295D103F5EE331A6A42F400021A628E
:10AD30001A6A22F400028AE7124E95E7124E93E750
:10AD400006EB4606B2FBF6F291B2C2F30B020AB969
:10AD500041F0010141F400424FF496714B434FF42E
:10AD60007A71B3FBF1F301339BB223849EE700BFFA
:10AD70000000002000540040801A060000350C003E
:10AD800040420F00A0860100400D030090260020E5
:10AD900000580040005C00402DE9F047B84E4401E7
:10ADA00006EB401908F08AF999F9F029B54B884665
:10ADB000D10003EBC2020746D2F8805899F8F22975
:10ADC000013A142A00F28380DFE812F0790089004A
:10ADD000A100BA00C700D100DC00F40001010A01A3
:10ADE000170168018601B8010F02220234023F02F6
:10ADF0005F02820215005F184FF0090A97F8840875
:10AE000005F0DAF8054697F8850805F0D5F8B6F8A4
:10AE1000503A01339BB207462846A6F8503A04F050
:10AE2000A4FF384604F0A1FF1121284604F0B0FF2A
:10AE30001121384604F0ACFF4FF0650803E005200F
:10AE4000002108F069F9284604F07EFF10B9B8F136
:10AE50000108F4D1284604F08DFF0021052008F0F8
:10AE60005BF9284604F081FF0520002108F054F921
:10AE7000BAF1010AE0D1284604F07CFF0021052048
:10AE800008F04AF9384604F075FF0021052008F063
:10AE900043F9284604F069FF0520002108F03CF939
:10AEA000384604F062FF331993F9F009431C01D0CE
:10AEB000FFF790FE3319002283F8F22907E02B8870
:10AEC00013F4007340F0D081321982F8F23933194B
:10AED00093F8F239002B7FF465AFBDE8F0872B883B
:10AEE00023F400631B041B0C2B802B889BB243F4C0
:10AEF00080632B802B889BB243F480732B803319A3
:10AF0000032283F8F229604B2344C3E902785F49A6
:10AF10002846FDF75CF9002800F0A681331993F864
:10AF2000022A5AB993F8032AFF2A04D193F8002A77
:10AF30000AB10A22C0E733190422BDE70F22BBE79A
:10AF4000321992F8013A03F0FE032B82052382F8AE
:10AF5000F2394D4B2344C3E902784D492846FDF7A9
:10AF600036F9002800F0788133190622A4E7331956
:10AF700093F8032A2A82072283F8F229424B2344BA
:10AF8000C3E9027843492846FDF721F9002800F07B
:10AF900063813219D2F8043A53B92B889BB243F437
:10AFA00000732B80384B2344C3E9027801238CE7DC
:10AFB00008238AE72B889BB243F480732B803319D4
:10AFC000092283F8F229304B2344C3E902782F4940
:10AFD0002846FDF7FCF8002800F046813319A8E761
:10AFE000321992F8013A43F001032B820B2382F8C5
:10AFF000F239254B2344C3E9027827492846FDF757
:10B00000E6F8002800F028813219D2F8043A012B22
:10B010001BD12B8823F480631B041B0C2B80EFF3C4
:10B020001181102383F312882B8B2B889BB243F45E
:10B0300000732B80CBB283F311880C2382F8F23992
:10B04000114B2344C3E9027841E7022B15D12B8829
:10B050009BB243F400632B80EFF31181102383F341
:10B0600012882B8B2B8823F480631B041B0C2B80F2
:10B07000CBB283F311880D23E0E72B8B0E23DDE7A2
:10B0800090260020000000208030002001000300F6
:10B09000820007008400070002000300944928464C
:10B0A000FDF7A0F8934B002800F0DF80311923440E
:10B0B000D1F8082A501CC1F8080A288A1070D1F863
:10B0C000042A013AC1F8042A0122C3E9027881F86E
:10B0D0000C2A81F8F229FAE687492846FDF782F81A
:10B0E000844B002800F0C180EFF3118C102282F312
:10B0F00012882A88301992B2D0F8081A42F40072E5
:10B100002A804A1CC0F8082A2A8A0A705FFA8CF240
:10B1100082F31188D0F8082A511CC0F8081A298A2D
:10B1200011706FF00102C0F8042A23440122C3E920
:10B13000027880F80C2A80F8F229C8E66E49284681
:10B14000FDF750F86B4B002800F08F803219D2F8D1
:10B15000041A03292AD1298821F480610904090CE1
:10B160002980EFF3118C102181F31288D2F8080A9C
:10B17000411CC2F8081A298A0170298889B241F451
:10B18000007129805FFA8CF181F31188D2F8081AD6
:10B19000481CC2F8080A288A0870D2F8041A023932
:10B1A000C2F8041A0C2182F8F2194AE702290FD8D2
:10B1B000298821F480610904090C2980298889B231
:10B1C00041F400712980298A002182F80C1AEAE6EC
:10B1D000D2F8081A481CC2F8080A288A0870D2F85F
:10B1E000041A0139C2F8041A2BE72B8823F4806370
:10B1F00032191B041B0C2B8092F8013A03F0FE035A
:10B200002B82102382F8F2393A4B2344C3E90278A7
:10B210003A492846FCF7DBFFF0B1331993F8032ACB
:10B22000FF2A04D193F8002A0AB1132244E6331905
:10B23000112241E6331993F8032A2A82122283F855
:10B24000F2292C4B2344C3E902782D492846FCF708
:10B25000BEFF08B13319E8E72A492846FCF7C2FFC8
:10B2600010B13319142227E6224B2344D3E90201FB
:10B2700042F21073381A68EB0108984278F1000323
:10B28000FFF425AE3319152216E63119194BD1F802
:10B29000042A8AB1D1F8080A234410F801CBA5F892
:10B2A00010C0013AC3E90278C1F8080AC1F8042ABB
:10B2B000122381F8F2390AE62A8892B2234442F432
:10B2C00000722A80C3E90278012381F80C3AF0E782
:10B2D0002B889BB243F400732B804FF6FF33AB8275
:10B2E000044B2344C3E9027801223319E4E500BF8B
:10B2F0004000001080300020040000108200070091
:10B30000840007000004001038B5114C04EB401411
:10B3100094F8F159D5B1C4F8043A049BC4F8083A3A
:10B32000002384F80C3A0223490084F8032A84F8A5
:10B33000F23901229DF8143084F8011A84F8022AA7
:10B3400084F8003AFFF728FD94F80C5A284638BDD7
:10B350009026002038B5114C04EB401494F8F159B4
:10B36000CDB1C4F8043A049BC4F8083A022349005A
:10B3700084F8032A84F8F23900229DF8143084F806
:10B38000011A84F8022A84F80C2A84F8003AFFF79C
:10B3900003FD94F80C5A284638BD00BF90260020C3
:10B3A000F0B587B0002300930193744B1A6842F400
:10B3B00080321A601A6802F400320192009A013257
:10B3C0000092019A1AB9009AB2F5A04FF2D11B6807
:10B3D00013F4003318BF01230193019B012B40F0AC
:10B3E000B180664B66491A6C42F080521A640A6852
:10B3F00042F440420A609A689A609A689A609A6831
:10B4000042F480529A605F4A5A601A6842F0807231
:10B410001A601A689201FCD55B4A40F20271116011
:10B420009A6822F003029A609A6842F002029A60D7
:10B43000524A936803F00C03082BFAD19368534CDB
:10B4400003F00C03042B7FD0082B7FD0504BC4F8A3
:10B45000C0354A4B4F4D9A684F48C2F303122244FD
:10B46000002692F89818D4F8C025CA40C4F8C02520
:10B470004A4AEA605A6F4A4AAA605A6B22F080022E
:10B480005A635A6F42F080725A67196B454A0A43F1
:10B490001A635A6B5A631A6C42F0875242F4F612DE
:10B4A00042F41F6242F00F021A64596C3E4A0A438A
:10B4B0005A6402A948F2FF73CDE902364FF6FF77CE
:10B4C000FFF734F800F580600297FFF72FF800F5DA
:10B4D00080600297FFF72AF800F58060FFF726F8F2
:10B4E00000F58060FFF722F80846FFF757FA029B45
:10B4F0002E4AB3FBF2F32E4AC2F8543AD5F8FC3088
:10B500002C4A43F08073C5F8FC302B4BC3F8B02FA6
:10B510005E601A6842F001021A60D4F8C0354FF438
:10B520007A72B3FBF2F3013BB3F1807F08D24FF0A4
:10B53000E0225361F02385F82330072396611361DD
:10B5400007B0F0BD00BFFDE71C4B80E753685168B2
:10B5500013F4800F01F03F01536814BF174A0C4ADF
:10B56000B2FBF1F1054A5268C2F30142C3F38813FA
:10B5700001324B435200B3FBF2F368E7003802405C
:10B5800000700040086C4109003C024000000020AF
:10B590000024F40000ED00E0000002400003FA0582
:10B5A000000000081F9067003357070040420F005B
:10B5B0009026002055CEACC5001000E000127A00A5
:10B5C00082B000230193054B0193019B03EB8000A4
:10B5D0000190019B196002B0704700BF50280040E5
:10B5E000436D064A1A61C278012A06D100F2CC5096
:10B5F00058611A684FF080221A607047180008607E
:10B6000038B5044600296FD190F81131022B2AD1A8
:10B61000D0F83821D0F824118A4232D9C378012BCE
:10B6200004BFD0F828315B18A2EB010208BFC0F8B4
:10B6300028314FF48071D0F82831C0F83821002526
:10B6400092B2A0F81C11C0F82C31C0F83451C0F8E7
:10B65000302100F58E7151F0AFFF2B462A46294666
:10B66000204652F0BFF894F81631012B07D1244A36
:10B67000236952F8582C5A60002384F816310020B0
:10B6800038BDD0F83C31B3FBF1F501FB1535A5B958
:10B69000994212D8D0F8402193420ED24FF48073D1
:10B6A000C0E94A55C0E94C55A0F81C3100F58E712F
:10B6B00051F082FFC4F84051CFE7D4F8E435DB689D
:10B6C0002BB194F81221032A01D120469847052373
:10B6D00084F81131002320461A46194652F082F8A8
:10B6E0002046FFF77DFFBEE7D0F8E4355B69002B0D
:10B6F000C5D090F81221032AC1D19847BFE700BFF7
:10B700009026002070477047704710B5114C94F890
:10B710000234CBB14FF0E022D2F8103D23F0060303
:10B72000C2F8103DFEF722F894F8023463B1D4F861
:10B7300008349B68DB0707D5D4F80425136823F089
:10B74000030161F307031360034B4FF480225A6136
:10B7500010BD00BF90260020003C01402DE9F04FB5
:10B76000964CD4F804345A69D0078DB000F1A38206
:10B770005A699B691340019300F09D82C3F307430C
:10B780000293019B190311D5D4F80834DFF83892DD
:10B790009E69DB6904F57E7B1E40360C04F24C4743
:10B7A0004FF00008DA46002E40F01481029B5A0741
:10B7B0000FD5D4F80834824E9F69DB691F40BFB2B1
:10B7C000A6F118054FF00009A6F58268002F40F099
:10B7D0004681019B9DF80470980741BF774BD3F8D1
:10B7E000043402225A61019B002B1BDA734D95F839
:10B7F00002343BB1D5F80425136823F0030161F34B
:10B8000007031360D5F808246E48536823F001033A
:10B8100053606D4BD3F8C0389847D5F804344FF0D7
:10B8200000425A61019B1905C3F3072631D5634DC8
:10B8300000238DF81F3095F80A358DF81F30624BC4
:10B8400005F57E70D3F8BC389847D5F80424D5F8B0
:10B8500008344FF400619B68516195F80224C2B12D
:10B86000DA0716D595F80D35012B12D19DF81F304A
:10B87000032B0ED1D5F804351A6842F001021A6084
:10B880001A6842F003021A60504A136943F0060333
:10B8900013613B070AD5494D4B4B05F57E70D3F834
:10B8A000B4389847D5F8043408225A61FD0615D5F6
:10B8B000424BD3F80404826922F010028261026ACA
:10B8C000C2F34341022902F00F0500F085810629E9
:10B8D00000F0A981836943F010038361F00635D538
:10B8E000364DD5F808245368002723F00103536030
:10B8F000384650F043F9B84695F8F9033B4605F54C
:10B900008265FF218342C0F09C81D4F808342D4821
:10B910004FF0FF329A614FF00112DA610B2262F3AD
:10B92000070762F307085F61C3F810801A686FF3B6
:10B930000A121A60FFF754FED4F8043421484FF479
:10B9400080525A61204BD3F8B8389847B10640F17D
:10B9500094811A4CD4F80834D4F810049968026819
:10B96000C1F34101022906BF032161F30A026FF30B
:10B970000A0202605A6842F480725A6008A8FFF70F
:10B980000DF8D4F80414D4F80804CB68099A6FF3BE
:10B990008D23CB6085680E48C5F34105284490F897
:10B9A000DC00032840F05481002284F8FA234FF48D
:10B9B0000072A4F8FC23092259E100BF9026002060
:10B9C000A02A0020882A00200000002000ED00E0CE
:10B9D00058430608F2073BD55FFA88F104EB810370
:10B9E000D3F84C349D68D4F808345B691D40EB07EC
:10B9F00020D594F8FB033B680125A8429D6007D140
:10BA00001869DBF87C33C0F312001B1ACBF88C33B7
:10BA1000D9F8A8385046984794F8FB33012B09D140
:10BA2000B8F1000F06D194F80935052B02D1504624
:10BA3000FFF7D6FDA80742BF3B6802259D60290796
:10BA400006D5D9F8B038504698473B6808229A6026
:10BA500008F10108760804370BF1280BA3E6FB0771
:10BA600077D5D8F808345FFA89FA1969586B08EB6A
:10BA70008A0220FA0AFBD2F810244FEACB1B926804
:10BA80005FFA8BFB4BEA010B0BEA020B1BF0010F79
:10BA90001ED05A6BA8484FF0010B0BFA09F122EAAD
:10BAA00001025A633368C3F808B0A44B5146D3F877
:10BAB000AC38984798F8FB335B4509D1B9F1000FD2
:10BAC00006D198F80935042B02D19B48FFF788FD71
:10BAD0001BF0080F1EBF33684FF0080BC3F808B007
:10BAE0001BF0100F1EBF33684FF0100BC3F808B0E7
:10BAF0001BF0400F1EBF33684FF0400BC3F808B077
:10BB00001BF0020F1EBF33684FF0020BC3F808B0E2
:10BB10001BF0800F1DD0D5E94C329B1AD5F824219B
:10BB2000D6F800E098F8FBB3DEF81800934228BF7F
:10BB300013460333D8F8082403920AF1320A9B080B
:10BB400008EB8A0A80B2984203D9D5E94C0398429F
:10BB500005D809F101097F080436283536E6C01AF0
:10BB6000D5F82431984228BF1846C31C9B08BBF166
:10BB7000000F1CD0D5F82811D5F834210144C5F8A0
:10BB80002811D5F8301102448A42DEF81800C5F8B1
:10BB90003421D7D1039A95F81C11526B4FF0010C48
:10BBA0000CFA01F122EA010203994A63CAE7D5F8C7
:10BBB0002821049282B2DAF80014033292108C46E3
:10BBC00005925946059A8A42D4D0049A52F8212007
:10BBD000CCF800200131F5E747F6F07111423FF44F
:10BBE00079AE282101FB0531C2F30A12D71CD3F824
:10BBF000C8E4D1F878C7BF1000218F420DD12821A9
:10BC000001FB0533D3F878171144C3F87817D3F83C
:10BC100084170A44C3F884275CE6DEF800804CF8F9
:10BC200021800131E9E7D3F8C8140F68C3F8C4795B
:10BC30000968C3F8C819282101FB0533C2F30A12A9
:10BC4000E5E755F8042B9160AA6B0133916059E642
:10BC5000012084F8FA034020A4F8FC03A0F5640056
:10BC6000374CA0F562401044A04227D80E2262F360
:10BC70008D23CB604FF400534B61029BDA060BD54A
:10BC8000304C2E4B04F57E70D3F8C4389847D4F866
:10BC900004344FF480125A61029B9B060BD5294C49
:10BCA000264B04F57E70D3F8C8389847D4F804348E
:10BCB0004FF400125A610DB0BDE8F08F224CA2F58E
:10BCC0007400A0F51050A04201D80D22CFE71F4804
:10BCD0001F4C1044A04201D20C22C8E71D4CA2F117
:10BCE0008C70A0F54340A04201D80B22BFE71A4850
:10BCF0001A4C1044A04201D20A22B8E71848194C45
:10BD00001044A042FFF457AE174CA2F1B770A0F553
:10BD10005850A04201D20822A9E71448144C1044FC
:10BD2000A04201D20722A2E712481044124A9042D0
:10BD300034BF062205229AE7882A0020000000204E
:10BD40003F420F0090260020DFC810002013FBFEAA
:10BD500020D61300FF69180000D3CEFE40771B00E9
:10BD6000C05BB3FEC091210040AC2700C01D6AFE3D
:10BD700040E13300803C36FEE09C41004A0901234B
:10BD800001F01F0103FA01F150F822300B4340F893
:10BD9000223070474A09012301F01F0103FA01F123
:10BDA00050F82230194214BF01200020704780EA69
:10BDB0000120082341F2210210F4004F4FEA400015
:10BDC00018BF5040013B80B2F6D1704738B50C46E1
:10BDD0008D18AC4200D138BD14F8011BFFF7E7FF06
:10BDE000F7E74840082310F0800F4FEA400018BFE3
:10BDF00080F0D500013BC0B2F5D1704710B50A44C0
:10BE00000C46944200D110BD14F8011BFFF7E9FF66
:10BE1000F7E738B50A46056804460020AA4203D36E
:10BE20006B1C2360287038BD12F8011BFFF7D9FF87
:10BE3000F4E700BF82B08DED010A019802B07047AF
:10BE4000C31783EA400070479FED087AC0ED020AED
:10BE5000C7EE007A0023036030EEA77AC0ED017AC6
:10BE6000C0EE877AC0ED037A704700BF83F9223EA7
:10BE700080ED010A704700BF90ED017AD0ED007AA5
:10BE8000C0ED020A30EE877AC0EE876A30EE677A3C
:10BE9000E6EE877AB0EE670AC0ED007A704700BF21
:10BEA00080ED000A704700BF9FED047AC7EE007A6C
:10BEB00077EEA07A80EEA70A704700BF4E2DA63D10
:10BEC000002303604360836080ED030A704700BF76
:10BED00080ED030A704700BFF5EEC00AF1EE10FADC
:10BEE00006DCF0EE407A80ED000AB0EE670A70479B
:10BEF00060EE810A90ED007A77EE607AF4EEC07A17
:10BF0000F1EE10FA0ADC77EE200AF4EEC00AF1EE48
:10BF100010FA8CBFF0EE407AF0EE607AC0ED007A55
:10BF2000B0EE670A704700BFB4EEE00AF1EE10FA17
:10BF300007D4B4EEC10AF1EE10FA88BFB0EE410AA0
:10BF40007047B0EE600A7047874BB3FBF2F399423B
:10BF50000DD300234FF07E52026043608360C360C4
:10BF600003610023836143610362C361704707EE8D
:10BF7000902ADFED7E6AB8EE677A07EE901A27EE18
:10BF8000267AF8EE677A27EE277AFDEEC77A17EE63
:10BF9000903A2033402B00F2D880DFED757AB4EE72
:10BFA000E77AF1EE10FAF0EE477A0CDDDFED715A28
:10BFB0009FED716AF0EE676AF4EEC66AF1EE10FA70
:10BFC00077EEE57AF6DCDFED6D6AF4EEE67AF1EE17
:10BFD00010FA0CD5DFED675A9FED696AF0EE676ADB
:10BFE000F4EEC66AF1EE10FA77EEA57AF6D4DFED3C
:10BFF000656AF4EEE67AF1EE10FA00F39C80DFED6C
:10C00000626AF4EEE67AF1EE10FA03D5DFED5B6AD0
:10C0100076EEE77A27EEA76ADFED5C5ADFED5C6A21
:10C020009FED5C5ADFED5C4AE6EE256ADFED5B5A78
:10C03000A6EE265A27EE864AE6EE055AF7EE006A85
:10C04000E4EE257AF0EE665AE7EEA45AE7EEE46AEB
:10C0500086EEA54ADFED4B6A77EE267ABDEEE76AFB
:10C0600016EE103A2033402B68D8B4EEE67AF1EEA3
:10C0700010FA0CDD9FED3F6ADFED3F6AB0EE677AA4
:10C08000B4EEE67AF1EE10FA77EEC67AF6DC9FEDC2
:10C090003B7AF4EEC77AF1EE10FA0CD59FED356AD3
:10C0A000DFED376AB0EE677AB4EEE67AF1EE10FAB9
:10C0B00077EE867AF6D49FED337AF4EEC77AF1EE16
:10C0C00010FA47DD9FED2A7A77EE677A67EEA76A66
:10C0D0009FED2E6A9FED2E7ADFED2E4A9FED2F5AAF
:10C0E000A6EE867A27EEA63AE6EE874AB7EE006A13
:10C0F000A6EEA45AB6EE007AE3EE057AF8EE003A20
:10C1000036EE676A67EEA37A26EE077AB7EE005A34
:10C11000C5EE256A80ED044A26EE877A26EE866A09
:10C1200066EEA77A80ED007A80ED016A80ED027AF2
:10C13000C0ED037A15E7DFED0E6A69E7DFED187AE7
:10C14000B6EE007AB7EE006AE0E7B7EE004AF0EE2E
:10C15000445A7FE79FED0C7AF4EEC77AF1EE10FABD
:10C16000B4D59FED067AAFE720A1070027D4D236D9
:10C17000DB0F4940DB0FC940E4CB1641DB0F49C060
:10C18000E4CB16C1DB0FC93FDB0FC9BF9A7C2E364B
:10C19000FAAF4FB93587083CF304353FA4AA2ABE4D
:10C1A00000000000FDEEC07A17EE903A2033402BDD
:10C1B00051D8DFED2A7AB4EEE70AF1EE10FA0CDD81
:10C1C000DFED276A9FED277AF0EE407AF4EEC77A2A
:10C1D000F1EE10FA30EE660AF6DCDFED237AB4EE0B
:10C1E000E70AF1EE10FA0CD5DFED1D6A9FED1F7A1C
:10C1F000F0EE407AF4EEC77AF1EE10FA30EE260A4D
:10C20000F6D4DFED1B7AB4EEE70AF1EE10FA18DD92
:10C21000DFED127A37EEC00A60EE007A9FED157AF4
:10C220009FED156ADFED156AA7EE876A9FED147A18
:10C23000E7EE866A60EE275AA7EEA67AA5EE870A91
:10C240007047DFED107AB4EEE70AF1EE10FAE3D5AD
:10C25000DFED057ADEE79FED0C0A7047DB0F494002
:10C26000DB0FC940E4CB1641DB0F49C0E4CB16C15C
:10C27000DB0FC93F9A7C2E36FAAF4FB93587083CA1
:10C28000A4AA2ABEDB0FC9BF000000009FED2F7AD1
:10C2900070EE077AFDEEE76A16EE903A2033402BF7
:10C2A00051D8B4EEC70AF1EE10FA0CDD9FED286A02
:10C2B000DFED286AB0EE677AB4EEE67AF1EE10FAB6
:10C2C00077EEC67AF6DC9FED247AF4EEC77AF1EECB
:10C2D00010FA0CD59FED1E6ADFED206AB0EE677A8A
:10C2E000B4EEE67AF1EE10FA77EE867AF6D49FEDA8
:10C2F000177AF4EEC77AF1EE10FA1ADD9FED187A8C
:10C3000077EE677A27EEA77ADFED166ADFED165A29
:10C310009FED166AE7EE265ADFED156AA7EE256A4D
:10C3200027EE875AE7EE066AE5EE267AB0EE670A50
:10C3300070479FED107AF4EEC77AF1EE10FAE1D56E
:10C340009FED057ADCE79FED0C0A7047DB0FC93FD4
:10C35000DB0FC940E4CB1641DB0F49C0E4CB16C16B
:10C36000DB0F49409A7C2E36FAAF4FB93587083C2F
:10C37000A4AA2ABEDB0FC9BF00000000B5EE400A28
:10C38000F1EE10FA25D007EE902AF8EE670ADFEDFD
:10C39000117A08B5034660EEA70A0846F0EE406A37
:10C3A0004BB9FFF751FDFCEEE66A16EE903A99B2F2
:10C3B000BDE80840C8E5022B06D0032BF3D1FFF7F8
:10C3C00073FDBDE808407BE5FCF77AF8FCF784F8DC
:10C3D000E9E77047BD378635B5EE400AF1EE10FA51
:10C3E00002D1044B0B60704703280CBF024B034B78
:10C3F000F8E700BF55840008E58400086D85000853
:10C4000090ED0E7AB5EEC07AF1EE10FA00F3978057
:10C4100030EE607AD0ED015A037867EE255A002B92
:10C420005BD101F00103D0ED117A002B61D077EEE2
:10C43000677AF0EE470AD0ED0F6AC0ED110AF5EE0B
:10C44000C06AF1EE10FA87EE816A55DCD0ED037A0E
:10C4500026EE276AD0ED056A90ED105A60EE266A46
:10C4600076EE857A77EEA57A77EE867AF4EEE71A9D
:10C47000F1EE10FA00F38480B4EEE72AF1EE10FA40
:10C480008CBFB0EE670AB0EE420A70EE677A90EDAC
:10C49000044AD0ED024AC0ED135A67EE847A4A0787
:10C4A000E7EE247AB0EE457AA1EE277A80ED125AB3
:10C4B00080ED146AC0ED156A80ED160A08D5F0EE1D
:10C4C000C77AF0EEC56AF4EEE67AF1EE10FA6BD5B3
:10C4D00080ED107A0B0756D4704711F001034FF02E
:10C4E00000020CBFF0EE607AF0EE477A0270002B8B
:10C4F0009DD177EEE07A9EE7D0ED0B7AD0ED034A3E
:10C5000080ED0C1AF5EE407AF1EE10FA04BF9FEDC3
:10C51000285AC5EE267A71EE276A08BFC0ED0B7A5D
:10C5200081EE265AD0ED0A7A80ED0D5A36EE676A12
:10C53000E5EE067A24EEA76AC0ED0A7A8AE7D0ED26
:10C54000077A80ED081AF5EE407AF1EE10FA04BF92
:10C550009FED176AC6EE077A70EE606A08BFC0EDFD
:10C56000077A71EE277A90ED067A81EE276A76EEE9
:10C57000C77A80ED096AA6EE277A80ED067A49E748
:10C58000B0EE610A81E7F4EEC71AF1EE10FA08DCAA
:10C59000B4EEC72AF1EE10FA8CBFF0EE471AF0EEB7
:10C5A000421AC0ED101A7047B0EE457A92E700BF0C
:10C5B00083F9223E002301220270C3648364036571
:10C5C000036443644365836283657047DFED1A7AD1
:10C5D00080ED010AF4EEE70AF1EE10FAC0ED020A6E
:10C5E00080ED031AC0ED051A12DC0023836003619D
:10C5F0000023012280ED0F2AC0ED0E2A0270C364D1
:10C6000083640365036443644365836283657047A1
:10C61000B4EEE70AF1EE10FA0CDD81EE007AC0EE1E
:10C62000207AF0EE006A77EE877A86EEA77A80EDC0
:10C63000047ADDE70023DAE7BD378635F0EEC07A0D
:10C64000B0EEE07AB4EEE77AF1EE10FAB4BFB0EEF5
:10C65000676AB0EE476AB5EE406AF1EE10FA46D06E
:10C66000B4EEE77AF1EE10FA8CBFF0EE675AF0EE16
:10C67000475AC5EE866ADFED1F2ADFED1F3ADFED70
:10C680001F4A9FED1F5A9FED1F3A9FED1F4ADFED96
:10C690001F5AE6EEE23AA6EE834AE6EEA34AB7EE6A
:10C6A000006AA6EEA45AA6EE846AE6EE855AC5EEA6
:10C6B000866AB4EEE77AF1EE10FA48BFDFED147A3D
:10C6C000F5EEC00A48BF77EEE66AF1EE10FA48BF11
:10C6D000DFED107AB5EEC00A48BF77EEE66AF1EEFC
:10C6E00010FA48BFF1EE666AB0EE660A7047DFEDF9
:10C6F000076ADEE739094E3DE3B59E3E88FA163EED
:10C7000045FE7F3F99FB243F69A2163EA7DFA83470
:10C71000DB0FC93FDB0F4940B7EE007AF0EEC07A7D
:10C72000F4EEC77AF1EE10FA77EE676A1DD8B1EE33
:10C73000E67ADFED0F5ADFED0F6A9FED0F6AE7EE45
:10C74000A65ADFED0E6AA7EEA56AE7EE866A67EEE7
:10C75000266AB5EEC00AF1EE10FA44BF9FED087AE2
:10C7600077EE666AB0EE660A7047DFED066AF0E7BC
:10C770002716983D306E99BC843459BEA40DC93F2C
:10C78000DB0F494000000000B0FBF1F301FB130395
:10C7900008463BB11946B0FBF1F301FB1303084611
:10C7A000002BF7D1704700BF44F25063984203DD7D
:10C7B000A0F50C40A0387047034B9842BCBF00F571
:10C7C0000C40A030704700BFB0B9FFFF48F69F4350
:10C7D000984203DDA0F50C40A03870470028BCBF8C
:10C7E00000F50C40A030704780EAE073A3EBE073E3
:10C7F0008B4203DB002803DD401A7047002070479E
:10C80000FDD00844704700BF884203DB9042A8BFB8
:10C81000104670470846704700230361704770B5A3
:10C820000378012B044635D10369214D23B94268B1
:10C8300012B955F8682C4260D4ED067A77EE807A0A
:10C84000013304F11C062361C4ED067A3046FBF780
:10C85000B3FE626855F8683C9B1AA268934219D9E6
:10C86000E06A94ED0A0A50F0DDFDD4ED057AB4EEED
:10C87000E70AF1EE10FA0EDD237B4BB955F8682C70
:10C88000236100236260A3613046BDE87040C3E7C6
:10C890000323237070BDD4ED047AD4ED066AF8EE5C
:10C8A000677A022386EEA77A84ED067AF1E700BF65
:10C8B000902600202DE9F04104461C30254604F165
:10C8C0006402064650ED017AB1EC010A77EE807AF7
:10C8D00040ED017AFBF770FE18309042F2D12369E7
:10C8E000294F62680133236157F8683C9B1AA2689C
:10C8F000934246D904F13008E86A95ED0A0A50F0EF
:10C9000091FDA845D4ED057A1CD0B4EEE70AF1EE0E
:10C9100010FA05F11805EFDD237B83BB57F8682C6F
:10C920006260002223613046A261FFF775FF04F1C7
:10C9300034002263FFF770FFA26404F14C00BDE8ED
:10C94000F04169E7B4EEE70AF1EE10FAE4DCD4ED69
:10C95000047AD4ED066AF8EE677A022386EEA77AA7
:10C96000D4ED0C6A84ED067A86EEA77AD4ED126ACD
:10C9700084ED0C7A86EEA77A84ED127A00E0032328
:10C980002370BDE8F08100BF9026002010B4019C08
:10C99000401AA4EB030C00FB0CFC511A5DF8044B8D
:10C9A0009CFBF1FC0CEB0300704700BF30EE600A0B
:10C9B00032EE612A71EE600A22EE002A82EE200A2F
:10C9C00030EE210A704700BFD1ED007ADFEDE16A59
:10C9D00037EEA67ABDEEC76A16EE103A2033402B2A
:10C9E00000F25882F4EEE67AF1EE10FA0CDDDFED9B
:10C9F000DB5A9FEDD96AF0EE476AF4EEC66AF1EEB3
:10CA000010FA37EE657AF6DCDFEDDE6AB4EEE67A30
:10CA1000F1EE10FA0CD5DFEDD15A9FEDD16AF0EEB0
:10CA2000476AF4EEC66AF1EE10FA37EE257AF6D4CC
:10CA3000DFEDC86AB4EEE67AF1EE10FA40F3028256
:10CA4000DFEDC96A36EEC77A67EE076A9FEDC76AFF
:10CA50009FEDC75ADFEDC75AA6EE865A9FEDC66A0C
:10CA6000E6EE855A27EE264AA6EEA56AA4EE067AD9
:10CA7000F0EE474ABDEEE77A17EE103A2033402B2E
:10CA800000F205829FEDB87AF4EEC77AF1EE10FA63
:10CA90000CDD9FEDB26A9FEDB07AF0EE676AF4EEBE
:10CAA000C76AF1EE10FA77EEC67AF6DC9FEDB57A3A
:10CAB000F4EEC77AF1EE10FA0CD59FEDA86A9FED5F
:10CAC000A87AF0EE676AF4EEC76AF1EE10FA77EE34
:10CAD000867AF6D49FED9F7AF4EEC77AF1EE10FADB
:10CAE00040F3DB819FEDA07A77EE677A27EEA77A95
:10CAF000DFED9E6ADFED9E5A9FED9E6AE7EE265AB5
:10CB0000DFED9D6AA7EE256A27EE874AE7EE066A03
:10CB1000E4EE267AB0EE675A91ED017ADFED8D7A78
:10CB200077EE276ABDEEE66A16EE103A2033402B08
:10CB300000F2A681B4EEE77AF1EE10FA0CDDDFED3B
:10CB4000875ADFED857AB0EE666AB4EEE76AF1EEF9
:10CB500010FA76EEE56AF6DCDFED8A7AF4EEE76A43
:10CB6000F1EE10FA0CD5DFED7D5ADFED7D7AB0EEF7
:10CB7000666AB4EEE76AF1EE10FA76EEA56AF6D4CC
:10CB8000DFED747AF4EEE76AF1EE10FA40F39B8180
:10CB9000DFED757A77EEE66A66EEA67ADFED735A18
:10CBA0009FED734A9FED736AA7EEA54ADFED725AB7
:10CBB000A7EE846A66EEA73AE7EE865AE3EEA56A28
:10CBC00066EEC52A24EEA63AB0EE666AFDEEC77A96
:10CBD00017EE903A2033402B00F24F81DFED627A5E
:10CBE000B4EEE77AF1EE10FA0CDDDFED5C5ADFED22
:10CBF0005A7AF0EE476AF4EEE76AF1EE10FA37EE91
:10CC0000657AF6DCDFED5F7AB4EEE77AF1EE10FAE2
:10CC10000CD5DFED525ADFED527AF0EE476AF4EEB2
:10CC2000E76AF1EE10FA37EE257AF6D4DFED497AAD
:10CC3000B4EEE77AF1EE10FA40F33A81DFED4A7A8A
:10CC400037EEC77A67EE077ADFED485A9FED484A1C
:10CC5000DFED486AA7EEA54ADFED475AE7EE846AA2
:10CC600067EE273AE7EEA65AA3EEA57AF0EE476AFA
:10CC7000D1ED027ADFED375A37EEA57ABDEEC74A1D
:10CC800014EE103A2033402B00F2EC80F4EEE57AFB
:10CC9000F1EE10FA0CDDDFED313A9FED2F4AF0EEA8
:10CCA000475AF4EEC45AF1EE10FA37EE637AF6DC26
:10CCB000DFED345AB4EEE57AF1EE10FA0CD5DFED83
:10CCC000273A9FED274AF0EE475AF4EEC45AF1EEA8
:10CCD00010FA37EE237AF6D4DFED1E5AB4EEE57A79
:10CCE000F1EE10FA40F3FA80DFED1F5A35EEC77A05
:10CCF00067EE075A9FED1D4A9FED1D2ADFED1D3A95
:10CD0000A5EE842A9FED1C4AE5EE823A67EE251ACD
:10CD1000A5EEA34AA1EE847A25EE072A64EE871ACF
:10CD200026EE821A26EE077A26EEA10AFDEEE75AD3
:10CD300015EE903A2033402B00F28F80DFED0A5A37
:10CD4000F4EEE57AF1EE10FA27DDDFED043A9FED1F
:10CD5000024A19E0DB0FC93FE4CB1641DB0FC940A3
:10CD6000E4CB16C1DB0FC93FDB0F49409A7C2E365E
:10CD7000FAAF4FB93587083CA4AA2ABE00000000CC
:10CD8000DB0FC9BFDB0F49C0F0EE675AF4EEC45A9F
:10CD9000F1EE10FA77EEE37AF6DC5FED065AF4EE88
:10CDA000E57AF1EE10FA0CD55FED143A1FED144A56
:10CDB000F0EE675AF4EEC45AF1EE10FA77EEA37A69
:10CDC000F6D45FED185AF4EEE57AF1EE10FA40F37E
:10CDD00090805FED1B5A75EEE77A27EEA74A5FED6C
:10CDE0001D5A5FED1D3A5FED1D0AE4EE253A67EE30
:10CDF000845AE4EE230A5FED203AE4EE203AE5EEB1
:10CE0000A37A64EEA74A65EE275AA6EEA42AE6EEB8
:10CE1000E51A67EEC67A31EE241A75EEC05A80ED37
:10CE2000007AC0ED017AC0ED026A80ED031AC0ED10
:10CE3000041AC0ED052AC0ED065A80ED072A80EDE0
:10CE4000083A70475FED326AB4EEE67AF1EE10FA16
:10CE50007FF5FAAD5FED356AF4E55FED385AF0EE37
:10CE6000657ADAE71FED3B2AF0EE421AB0EE420A8D
:10CE7000B0EE421AB0EE427A58E75FED406AF7E64C
:10CE80001FED423AF0EE432AB0EE436A9EE61FEDF4
:10CE9000455A41E65FED474AECE51FED477AF4EE6F
:10CEA000C77AF1EE10FA7FF521AE1FED4A7A1BE644
:10CEB0005FED4D7AB4EEE77AF1EE10FA7FF5C2AE8F
:10CEC0005FED507ABCE65FED527AF4EEE76AF1EE80
:10CED00010FA7FF561AE5FED557A5BE65FED585A6B
:10CEE000B4EEE57AF1EE10FA7FF502AF5FED5B5A32
:10CEF000FCE65FED5D5AF4EEE57AF1EE10FA7FF5AF
:10CF00006CAF5FED605A66E70023036143618361A4
:10CF1000C3610360036243628362C362436003636D
:10CF200043638363C3638360036443648364C36450
:10CF3000C3607047D1ED017A91ED007AD0ED044ADB
:10CF400090ED065AD0ED075A90ED050AD0ED080A8B
:10CF5000D0ED0A1AD0ED0C2A90ED0D3AD0ED0E3A34
:10CF600090ED091A90ED0B2AF8EEE76AD1ED027AFE
:10CF7000B8EEC77AF8EEE77A26EEA64AA7EE275A69
:10CF8000E7EE074AB0EE446A75EE875AA7EE076AE5
:10CF9000E7EE272AE7EEA73AA7EE260AE7EE260AEB
:10CFA000E6EEA71AA6EEA73A31EE041AC0ED044A3F
:10CFB00090ED0F4AD0ED104A80ED065AC0ED075AA9
:10CFC00090ED115AD0ED125AC0ED0E3AA7EEA76AB5
:10CFD00034EE274A74EE874A75EEA75A35EE265A84
:10CFE00032EE262A80ED0F4AC0ED104A80ED115A2C
:10CFF00080ED050AC0ED080A80ED091AC0ED0A1A95
:10D0000080ED0B2AC0ED0C2A80ED0D3AC0ED125ACE
:10D0100090ED004A90ED025AD0ED014AD0ED133A5E
:10D02000D0ED035AA7EE064AB0EE457AA7EE867A0F
:10D03000E6EE864AF7EE007A73EEA77A35EE866A58
:10D04000C0ED137A80ED004AC0ED014A80ED027A0E
:10D0500080ED036A704700BF10B500240346844684
:10D060008646002C00F00D81DEED006A9CED007A12
:10D07000D3ED007AE6EEC77A012CC3ED007A00F01A
:10D080000F81DEED016A9CED047AE6EEC77A032C8F
:10D09000C3ED007A6CD1DEED026A9CED087AE6EE13
:10D0A000C77AC3ED007AD2ED007A90ED085AD0ED40
:10D0B0000C5AD0ED044A92ED017AD2ED026A92ED5B
:10D0C000036AA7EEE47AE7EEC56AA7EEE56A90ED9B
:10D0D000095AD0ED0D5AE7EE456AA5EEC76AD0EDC4
:10D0E0000E5AA5EEE66A81ED036A90ED0F5AC1ED86
:10D0F000026AC6EE055AC1ED035A90ED0B6AE5EEE1
:10D10000C66AC1ED026A90ED0A5A81ED017A86EE97
:10D11000856A81ED026AD0ED066AA6EE667A81ED37
:10D12000017AD0ED076AA5EEE67A81ED017A90EDFD
:10D13000055AC1ED007AC7EE056AC1ED016A90EDAE
:10D14000017AE7EE667AC1ED007A90ED027AE7EEB9
:10D15000467AC1ED007A90ED037AE7EE657AC1ED8B
:10D16000007AD0ED006A87EEA67A81ED007A10BDD4
:10D170009EED007ADCED016AD3ED017AE7EE667A86
:10D18000022CB1EE476AC3ED017ADEED016A9CED37
:10D19000057AE6EEC77AC3ED017A40F0AC80DEEDA9
:10D1A000046A9CED007AD3ED047AE6EEC77A012C8E
:10D1B000C3ED047A40F28780DEED056A9CED047AC7
:10D1C000E6EEC77A032CC3ED047A7FD19EED066AA2
:10D1D000DCED086A93ED007AE6EE667AC7EE876AC0
:10D1E000C3ED046A9EED086ADCED006AD3ED087AAF
:10D1F000E6EE667A012CC3ED087A70D99EED096AD5
:10D20000DCED046AE6EE667A032CC3ED087A07D1FA
:10D210009EED0A6ADCED086AE6EE667AC3ED087AEE
:10D2200093ED086AD3ED0C7AC6EE076A032CC3EDC2
:10D23000086A9CED006ADEED0C6AE6EE667AC3EDE4
:10D240000C7A9CED046ADEED0D6AE6EE667AC3EDBB
:10D250000C7A07D19EED0E6ADCED086AE6EE667A7E
:10D26000C3ED0C7AD3ED0C6AC6EE877AC3ED0C7A67
:10D27000013414330EF1100E0CF1040C002C7FF469
:10D28000F3AED3ED047A93ED007A93ED086AC7EE1E
:10D29000876AC6EE077AC3ED046AC3ED087AE1E750
:10D2A000DEED006A9CED016A93ED017AD3ED027A1E
:10D2B000A6EEC67A83ED017A9CED027AE7EE667AF5
:10D2C000C3ED027A6BE793ED007A87E793ED007A7E
:10D2D000C7EE876A022CC3ED046AC9D082E7C7EEA5
:10D2E000876AC3ED086AC3D09CED006ADEED0C6A64
:10D2F000D3ED0C7AB2E79CED027AD3ED027AE6EE3A
:10D30000077A032CC3ED027ADCED066A9EED017A02
:10D31000E6EEC77AC3ED027A7FF441AFDEED026A32
:10D320009CED0A7AE6EEC77AC3ED027ABBE600BF4F
:10D3300010B584B00C46024669461030FFF78CFEEB
:10D34000DDED006A9DED017ADDED027AB6EE006A50
:10D3500066EE866A27EE067A67EE867A0120C4EDCD
:10D36000006A84ED017AC4ED027A04B010BD00BFFA
:10D3700020EE000AFEEE007A60EE277A60EEA00A48
:10D380009FED020AC7EEA00A53F09ABF54F82D4051
:10D3900008B551F033F807EE900AF5EEC07AF1EED9
:10D3A00010FAACBFB1EEE70A9FED010A08BD00BF5D
:10D3B0000000000060EEA00AE0EE000AB1EEE00A14
:10D3C000704700BF21EE011AA0EEA01AA0EE001ACD
:10D3D000B1EEC10A70472DE9F74F90469DF8302015
:10D3E000002A14BF4FF030094FF020090D9A1C1E7F
:10D3F00005460F46BABF64420123002312F8011B01
:10D4000001B12CB9A24663B100240D9EA41B12E009
:10D41000013CF3E7BD4204D2494628460193C04788
:10D42000019BBAF1010AF5D2EFE7BD4203D22846CB
:10D430000193C047019B06EB040B16F8011B002962
:10D44000F3D133B15446002C07DCBAF1000FA8BF6A
:10D45000D344584603B0BDE8F08FBD4202D24946DE
:10D460002846C047013CEEE70FB437B50B4D06AB7D
:10D47000D5F85C1A53F8042BD5F8580A01934EF0EE
:10D480003FF80446D5F8240103F0EDFC0028F9D05C
:10D49000204603B0BDE8304004B07047902600201D
:10D4A0000EB403B503AB084953F8042BCDE90030A3
:10D4B00001A84EF025F8019B00221A7002B05DF819
:10D4C00004EB03B0704700BF0B8600080CB430B506
:10D4D0002C4CD4F8603AA5B01BB9D4F8643A002BB0
:10D4E00039D094F8683A994206D9012303FA00F03A
:10D4F000D4F86C3A18422ED054F8681C4FF47A7362
:10D5000004A8B1FBF3F203FB12131F49FFF7C8FF96
:10D5100004AB0344289A1D490393054629AB03A88D
:10D5200002934DF0EDFF039B591C03910A211970E2
:10D53000039B0246591CD4F8600A0391002119701C
:10D5400090B103681B6A03B19847D4F8605A04ACE1
:10D5500014F8011B21B925B0BDE8304002B0704776
:10D56000284603F056FCF3E7D4F8643A002BF2D0D7
:10D5700002212A4400910A44FD2004A924F0A6FDBA
:10D58000E9E700BF9026002009D30608AF85000810
:10D5900030B54FF4004087B022F054FF0446A0B3EA
:10D5A0004FF4004123F0B0F802281CD1226848F261
:10D5B00001039A4229D1234C002584F8045D4FF4DD
:10D5C00000404DF009FB00B3D4F8703A83421ED0FE
:10D5D000D4F84C3B83422FD0D4F8283C98422ED02C
:10D5E000C4F8645A11E00023022294F90400CDE942
:10D5F00001234FF4612200924FF400411A4623F0B8
:10D60000DDF8104BC3F8600A28B907B030BD04F547
:10D610002763C4F8643A0C4B04930C4B03930C4BF4
:10D6200002930C4B01930C4B00930C4A0C4B0221C0
:10D630000020FFF74BFFE8E704F64C33E9E704F678
:10D640002843E6E79026002015D306081ED30608D7
:10D6500027D3060833D3060839D306087FDC06082B
:10D66000E1D20608174A38B5D2F8084D033004EB6A
:10D670009003B3F5007F19D802F60C55C2F8083DA7
:10D68000114A02EB810120F00300D1F81424C3F504
:10D6900000731044C1F814040C4A9B0004210020BC
:10D6A00005EB8404FFF712FF204638BD0021084A2D
:10D6B0000846FFF70BFF074A136843F00073136037
:10D6C0000024F1E7902600208837002045D3060883
:10D6D00068D30608380001202DE9F84F0268DFF80A
:10D6E000A4800646002358F833108A420BD1DDB2DD
:10D6F0000D2D0CD9204A00210520FFF7E7FE00245C
:10D700002046BDE8F88F01330E2BECD1F2E71B4F1A
:10D7100007EB850A4FEA8509DAF828B1BBF1000F5B
:10D720001AD107216420FFF79DFF0446CAF828019B
:10D7300028B90146124A0520FFF7C8FEE0E7642237
:10D74000594656F06CFDDAF8283108EBC505C3E9F7
:10D750000053DB615B63DB644F447179D7F8284188
:10D76000182000FB014300221C46C3E903229E60EF
:10D770001A750434C4E700BF76D30608902600204B
:10D780009BD30608384406082DE9F043C26A654970
:10D79000B1FBF2FE644A056890F8293089B004466E
:10D7A000114616464FF0000C012791F80690A3EBA6
:10D7B0000908A3EB0C00B8F1000FB8BFC8F10008CE
