:020000040800F2
:1000000000000220EDF905084B79050809260408CF
:100010009DFA05089DFA05089DFA050800000000F4
:1000200000000000000000000000000051790508F9
:100030004F790508000000004D79050827F80408ED
:100040009DFA05089DFA05089DFA05089DFA050820
:100050009DFA05089DFA0508510A0508610A050878
:100060009DFA05085D0A0508590A05089D8E0508D0
:100070008D8E05087D8E05086D8E0508598E050844
:10008000458E0508318E05089DFA05080000000020
:10009000000000000000000000000000550A0508F4
:1000A0004D8F0508258F0508FD8E0508758F0508FD
:1000B000E98E0508D58E0508C18E05089DFA05084C
:1000C0009DFA05089DFA05089DFA05089DFA0508A0
:1000D0009DFA0508CD940508C194050800000000AC
:1000E0004D0A05089DFA0508FD9C05080000000062
:1000F0000000000000000000000000001D8E050848
:10010000000000009DFA0508AD8E05089DFA05085F
:1001100000000000000000000000000000000000DF
:10012000098E0508F58D0508E18D0508CD8D0508BA
:10013000B98D05080000000000000000000000006C
:10014000000000000000000000000000997F05088A
:10015000A58D0508918D05087D8D05089DFA05087A
:100160009DFA05089DFA0508000000000000000047
:10017000000000000000000000000000000000007F
:10018000000000009DFA05080000000000000000CB
:080190009DFA05089DFA05081F
:080198008CF5050001000000D8
:1001A00014FB0020020100000300141134FB0020A6
:1001B000010200000400681154FB0020020300004B
:1001C0000300141174FB002002040000020014114B
:1001D00094FB0020010B000000007700B4FB00201E
:1001E000010C000000007600D4FB0020011000008C
:1001F00000007600F4FB0020010D010000007700F4
:1002000014FC0020011200000000760034FC0020E5
:100210000114000000001E0054FC0020011A000020
:1002200000000D0074FC0020011B000000000E0007
:1002300094FC0020011C000000001E00B4FC002003
:100240000117000000000C00D4FC00200118000081
:1002500000000E00F4FC002001280100000018003E
:1002600014FD0020012000000000480034FD0020A3
:10027000012100000000490054FD0020012200007F
:1002800000004A0074FD00200123000000004B0024
:1002900094FD00200124000000004C00B4FD00206B
:1002A0000125000000004D00D4FD002001260000C3
:1002B00000004E00F4FD00200127000000004F0068
:1002C00014FE0020012B00000000290034FE002055
:1002D000012F01000000280054FE00200229010027
:1002E00000012C0074FE00200132000000003C00E0
:1002F00094FE00200135000000002000B4FE002024
:08030000013600000000290095
:1080000009284FF0010307D903EB83035B00B0FBA2
:10801000F3F2092AF8D883B3F0B4DFF864C000257E
:108020000EE00A2A1E460F462346B4BF30245724CA
:108030002244092E01F1010105F101053A700FD921
:10804000ACFB0324E408B0FBF3F203FB1200002DA9
:10805000E7D1002AE5DC092B06D8303201F8012BE4
:108060000023F0BC0B707047ACFB0436B0FBF4F29D
:10807000234604FB1200F408EBE700230B70704763
:10808000CDCCCCCCF0B40D6800240CE0BCF1050FD5
:1080900018D8A0F137030A2B14D104EB840415F887
:1080A000010B03EB4404A0F13003DEB2092EA0F172
:1080B0006107A0F1410CF0D9052FE7D8A0F15703D3
:1080C0000A2BEAD00D601460F0BC70472DE9F04F28
:1080D0002DED108BDFEDB55A8FB004230190049184
:1080E0000D9202910393B0EE655A029BD908DA0013
:1080F0004B010893019B03EB411CCB0007936FF0EE
:1081000017034B43182000FB01F40CEB0307282056
:108110000C9407EB411600FB01F43020F51806948F
:1081200000FB01F43820059400FB01FA05EB411433
:10813000019823444FEA011B03EB411800F1040EA0
:108140004FF00009DCED007A1EED017AD7ED003A20
:10815000D5ED004A98ED003AD3ED002A77EE276A74
:1081600037EE677AD6ED007A33EEA76A73EEE73A18
:10817000D4ED007A34EEA74A74EEE77A72EE834AC1
:1081800036EEC48A36EE640A76EE846A36EE246AE7
:1081900072EEC32A76EE864A76EEC66A4EED014A44
:1081A000CCED006ADEED004A9CED016A97ED014AD4
:1081B00095ED013AD8ED011A74EE866A34EEC66A7E
:1081C000D6ED014A34EE242A34EE644AD4ED014A55
:1081D00033EE241A73EE644A93ED013A73EE210AEA
:1081E00033EE613A76EEC11A76EE816A32EE601AAB
:1081F00032EE202A76EE820A76EEC26ACEED000AD0
:10820000CCED016A78EE016A38EE412AC5ED006ACC
:1082100071EEC06A84ED002AC5ED016A70EE216A34
:1082200034EE432AC4ED016A73EEA26A73EEE21AD9
:1082300034EE034AF0EE673AE6EEE53A944415442C
:10824000E6EEA57A14449644F0EE462AF0EE466A2D
:10825000B0EE646AA4EE256AB0EE473AA1EEA57AC4
:10826000E2EE652AE2EE256AB0EE642AA1EEE53A76
:10827000A4EE652A77EE064A37EE467AC7ED004A45
:1082800088ED007A33EE027A33EE423A86ED007AD8
:1082900036EEE77A77EEA67A83ED003A87ED017A3B
:1082A000C8ED017A72EEE37A73EEA23AC6ED017A76
:1082B000C3ED013A02988144049848451744164496
:1082C000134490443FF63EAF072940F27381019872
:1082D000089B03440B93079B03440A93069B0344A8
:1082E00009930BEB00030893059B034407930C9B36
:1082F000034406930AEB000305930124002303982B
:1083000003440D9800EBC305D5ED001A05EBC3053A
:1083100095ED008A05EBC305D5ED004A05EBC305D5
:1083200095ED009A05EBC305D5ED003A05EBC305C5
:108330006FF02F00D5ED000A05EBC305D5ED002A3F
:1083400000FB0355019895ED011A00EBC40A0B9848
:1083500000EBC4090A9800EBC408099800EBC40EAE
:10836000089805EBC30500EBC40C0798D5ED018A0E
:1083700005EBC30595ED014A00EBC40705EBC3050A
:108380000698D5ED019A05EBC30595ED013A00EB92
:10839000C40605EBC305059895ED010A05EBC30579
:1083A00095ED012AA34600EBC40501E0F304353F37
:1083B000D9ED007AD8ED006A9EED007A9AED00AA18
:1083C0009CED00BA96ED00EA3AEE276A36EEC7DA7F
:1083D0003AEE67AA76EE877AD7ED006A3BEE267A08
:1083E0003BEE66BAD5ED006A7EEE26AA36EE47FA77
:1083F00077EEEAEA36EE076A77EEAA7A3EEE66EAAA
:1084000036EE277A76EE67AA8AED007A9AED016A4F
:10841000D9ED017AD8ED01CADCED016AD6ED01FA99
:10842000D5ED01DA36EE277A76EE67BADEED017A1F
:108430003CEEA76A7CEEE7CAD7ED017A36EEA7CA12
:1084400076EEE77A7FEEAD6A7FEEEDDA77EE4CFA04
:1084500037EE0CCA36EE667A36EE266A7FEE076A8B
:108460003FEE477A3CEE06FA3CEE46CA8AED01FA48
:1084700029EE8C6A3FEEEEFAA9EE2A6A92447EEE6D
:10848000AFEA89ED006A2AEEE96A7DEE4EAAA9EE0E
:108490000C6AB0EE4ACA89ED016A28EE8F6AAAEE2C
:1084A000C5CA9144A8EE266A66EEE86A8CED006AB9
:1084B000E8EE0F6A3CEEED6ACCED016A60EE2E6AE2
:1084C000AAEE85AA9444E0EE876A27EE407AC7EDCB
:1084D000006AA0EEAE7A7DEE0E6A87ED017A3CEE80
:1084E000AD7AF0EE6BCAE6EE05BA1744E6EE45CA81
:1084F000B0EE6B6AF0EE67BAE7EE45BAE7EE057AE2
:10850000F0EE4BAAA6EE85BA3CEE2B7AE6EEC5AAB3
:108510007AEE276A7AEE677A3CEE6BAA36EE4BCAA1
:108520003BEE066A61EE0CBA3CEEEABAE1EEA6BAA0
:1085300066EEC16AC8ED00BAE1EE8C6A7AEEACAACA
:10854000C8ED016A62EE066A9044E2EEA76AC5EDE4
:10855000006A67EEC26A63EE0B7AE2EE866AE3EEC9
:10856000877AC5ED016A27EE437ACEED007A64EE94
:108570002A7AA3EE8B7A1544E4EE8A7A8EED017A9C
:10858000C6ED007A6AEE447A9644E4EEAA7AC6ED25
:10859000017A029883440498584516443FF608AF80
:1085A0000134A1427FF4ABAE039BDB009BB2CDE96B
:1085B00002139AE50FB0BDEC108BBDE8F08F00BF41
:1085C00071EEC11A61EE801A81EEA00A30EE010A46
:1085D000704700BF00B583B00268074B8188CDF8B3
:1085E000012032221B68ADF805108DF80020684686
:1085F000984703B05DF804FBD01500201F4B2DE910
:10860000F0415D68064600F10708002407E039469E
:108610001B68284698473C444645A4B212D016F839
:10862000017BA7F17D03012B28462B684FF07D01CC
:10863000EDD81B6898472B6887F02001E8E7E3B284
:1086400003EB1424FF2CFAD8C4F1FF04E4B2A4F124
:108650007D03012B2B6805D9214628461B68BDE800
:10866000F041184728461B687D2198472B6884F005
:10867000200128461B68BDE8F0411847D0150020AE
:108680000A4AD36910B5198100219981516959604D
:1086900019684C1C1C600870D36952694FF6F6715A
:1086A00099811968C3E9002110BD00BFD0150020D1
:1086B0000A88504080EA0010C0B2030983EA1223FE
:1086C00043EA002383EAC00008807047064B93F812
:1086D0003320012A02D1054A1A667047022A0CBFCC
:1086E000034A044AF8E700BFD0150020000000202C
:1086F0000A00002014000020F8B500220D464FF6B5
:10870000FF7302398A420FD346194354094F1B0A9B
:1087100006F8013C044614F8011B786E47F01BF97B
:10872000A642F8D1E8B2F8BD845C1B1B9BB20132B3
:10873000E8E700BFD015002007B50B1408228DF81C
:10874000043060F05F000B0E8DF80100ADF80210F0
:108750008DF805301146002368468DF80020ADF8ED
:108760000630FFF7C9FF03B05DF804FB07B5062329
:1087700060F05F008DF80100ADF80210002219468C
:1087800068468DF80030ADF80420FFF7B5FF03B060
:108790005DF804FB034A936E43F4060343F47C4301
:1087A00093667047D015002030B50B4D0446014448
:1087B00000208C4200D130BD14F8013B43409A00A8
:1087C00082EA43025A40DB0803F0180345FA03F338
:1087D0005340D8B2EDE700BF0007090E30B50028BE
:1087E0000F4D104BB8BF40423C24B0FBF3F205FBE9
:1087F000020060430C4C90FBF3F394F82A40002CE9
:108800000CBF64243C2412FB04F21A440A8005FBCA
:1088100003034FF47A7293FBF2F34B8030BD00BF39
:10882000806967FF80969800D0150020014610B53A
:10883000094C5E29E06E08D15D2147F08CF83E219D
:10884000E06EBDE8104047F086B85D29F9D147F0E9
:1088500082F83D21F4E700BFD0150020024B5E21D5
:10886000D86E47F078B800BFD0150020264B1968A5
:108870005B6821F0004222F07F02002A0CBF012039
:1088800002204A0748BF0430D90744BF0A3080B2EB
:108890009A0744BF143080B2D90544BF283080B253
:1088A0005A0744BF643080B2190744BFC83080B251
:1088B0009A0644BF00F5C87080B2D90644BF00F5DF
:1088C0007A7080B2DA040FD500F5FA5080B29904BC
:1088D00042BF00F51C50103080B29A050ED5A0F5AD
:1088E000C740403880B27047190502D500F5FA60DC
:1088F000ECE75A06EBD500F57A60E7E75B05F2D5C1
:1089000000F59C402030EDE7E0FE0020002270B52D
:1089100011460A24561C08B9084670BDB0FBF4F590
:10892000D2B204FB150392009BB293401943A8B244
:108930003246EFE730B500280D4D0E4AB8BF404231
:10894000B0FBF2F305FB030003EB83033C2403EBD2
:108950008303604390FBF2F202EB83030B8005FB81
:1089600002024FF47A7392FBF3F24A8030BD00BFEB
:10897000806967FF8096980030B4264A046892F8B0
:1089800070304B4013F0800F4FEA430318BF83F061
:10899000D503DBB213F0800F4FEA430318BF83F017
:1089A000D503DBB213F0800F4FEA430318BF83F007
:1089B000D503DBB213F0800F4FEA430318BF83F0F7
:1089C000D503DBB213F0800F4FEA430318BF83F0E7
:1089D000D503DBB213F0800F4FEA430318BF83F0D7
:1089E000D503DBB213F0800F4FEA430318BF83F0C7
:1089F000D503DBB213F0800F4FEA430318BF83F0B7
:108A0000D503651CDBB2056082F87030217030BC84
:108A1000704700BFD0150020022803D0431E5842E3
:108A200058417047054B93F8283013B1102032F0AD
:108A300041BA034B1868C0F380007047D01500207E
:108A4000E0FE0020014B93F871007047D015002024
:108A5000F0B4434D3E247B21EA22C82385F87540BB
:108A600085F8761085F87720013885F8743085F818
:108A7000783005F1790205F1B3014D2410F8013F7A
:108A800002F8013B634013F0800F4FEA430315BF28
:108A900083F0D504DCB263B25BB218BFE4B2002B42
:108AA000B5BF6400630084F0D504DCB2B6BF63B226
:108AB0005BB2E4B2002BB7BF6300640083F0D50360
:108AC0005CB2A6BFE3B264B2DBB2002CB7BF5B00FE
:108AD0005C0083F0D5035CB2A6BFE3B264B2DBB244
:108AE000002CB7BF5B005C0083F0D5035CB2A6BF6F
:108AF000E3B264B2DBB2002CB7BF5B005C0083F072
:108B0000D5035CB2A6BFE3B264B2DBB2002CB5BF42
:108B10005B005C0083F0D503E3B2B6BF5CB264B225
:108B2000DBB25B00002CB8BF83F0D5038A42DCB215
:108B3000A4D10C4E85F8B340A6F140070FCF0FC665
:108B40000FCF0FC60FCF0FC697E80F00402785F84D
:108B5000704086E80F0085F8F470F0BC704700BFE5
:108B6000D015002084160020F5EEC00AF1EE10FAB0
:108B70000DDDB5EE400AF1EE10FA14D121EE011A26
:108B800070EEA00AC1EE207AB0EE670A70470FD8E7
:108B9000B5EE400AF1EE10FA02D0C1EE007AF3E72A
:108BA000DFED137AF0E7F5EE400AF1EE10FAF4D0BB
:108BB00080EE807AF0EEC17AF4EEC77AF1EE10FA28
:108BC000EBD420EE000A21EE017AC0EE806A70EE4E
:108BD000A00AB5EEC01AC7EE207AF1EE10FAB6EE92
:108BE000007AE6EE877ACFDCF1EE677ACCE700BF59
:108BF00000000000094B93F88822D3ED9E7A93ED94
:108C00006F0A092A20EE270A01BFDFED057A60EE20
:108C1000277AFDEEE77AC3EDA87A7047D0150020D9
:108C200000007A440020704700207047094A08B5C8
:108C3000D2E90232C01A61EB020156F0B1FCDFED5D
:108C4000067A07EE100A67EE277AFCEEE77A17EE4F
:108C5000900A08BDE0FE00206F12833A38B5044642
:108C60000D460A460068FF2155F020F82168294486
:108C7000216038BD0268511C08B501607F21117068
:108C800002680023511C016013700E21FFF7E6FFFC
:108C9000012008BD30B5324C94F8AC32012B85B0C0
:108CA00001D005B030BD94F8AD02022826D0A0F165
:108CB0000100B0FA80F0400948B36368002BF0D19E
:108CC000D4F8B022002AECD094F8305094F829104F
:108CD00092F90400002D14BF08220022002908BFC9
:108CE00042F0010203254FF46141CDE901520091A8
:108CF0001A46202128F004FE6060D2E794F828305C
:108D0000DBB9184B1868C0F380000028D5D1626821
:108D1000002AC6D0D4F8B8329A4213D0D4F8C4325C
:108D20009A420ED0D4F8D0329A4214D0D4F8DC3221
:108D30009A4212D000236360B3E7102032F0BAF8F1
:108D4000BAE7012000EB4000002104EB8003D16270
:108D5000C3E9AE11EEE70220F4E70320F2E700BF1B
:108D6000D0150020E0FE002038B51A4D632295F89A
:108D7000EC0200214DF06CFFB5F81033164D04469F
:108D8000333B09220021322093FBF0F04DF060FFCD
:108D9000C0F10903642000FB0340AB6984B299076A
:108DA00044BF04F57A74A4B2DA072B6844BF04F513
:108DB000FA64A4B25B070AD5152032F07BF830B113
:108DC0006B6813F4016F04BF04F57A64A4B2204603
:108DD00038BD00BFD0150020E0FE002038B50E4C95
:108DE00094F8231384F81F0301F03F018B1C01F159
:108DF0000A0584F8213384F81E5304F547700831BE
:108E000025F0E8FD254485F81A0394F81E331C4428
:108E1000000A84F81B0338BDD01500202DE9F04767
:108E2000C31D494D82B003F4FC7300AFEC696A695D
:108E3000ADEB030DC7F800D095F844330E4621681A
:108E400003F1010C68445FFA8CFC9142E8467860BB
:108E500085F844C303F00F0338D1B4F90C2043F074
:108E60001003002A4146B8BF43F0200301F8023B3B
:108E700008F101023A60D4E900239B1A396088F8AE
:108E800001303B68D4E90012A0EB03095FFA89F9CD
:108E9000521A09F107035FFA82FA03F4FC73CA4518
:108EA000ADEB030D18D34A46684654F0D1F8236859
:108EB0004B4423604A46694638464CF05FFF4046C3
:108EC000B04701200837BD46BDE8F0870DF101022B
:108ED0003A608DF80030D4E75246684654F0B8F84E
:108EE0002368534423605246694638464CF046FF97
:108EF000EA696B692168127AC4E90031CB1A5340E0
:108F0000DBB285F8453300202268914212D108B1C6
:108F100085F845333B6895F84523591C39601A702C
:108F20000021D7E900239B1A012B09DC4046B047FA
:108F30000020C7E7501C2060127801205340E3E76F
:108F4000531C3B601170ECE7D01500202DE9F04771
:108F5000624C82B0E269D2E900239B1A002BC4BFA5
:108F6000002384F8463394F8463300AF83B95C4A53
:108F7000226102F18105C4E9F222A56102F19105A5
:108F800002F291126561E261C4F8D854C4F8DC546D
:108F90000144421CE160A2600278A56951090129DF
:108FA00005D000210846FFF76BFB012043E002F0EB
:108FB0000F0A12F0100232D0831CA360C31C467843
:108FC000A36000228378AA8122692B812A607340E2
:108FD00032446A6084F8E83484F84613D5E90032F4
:108FE000D21AD4E902639B1B5FFA83F808F10703E6
:108FF0005FFA82F903F4FC73C145ADEB030D1ED398
:1090000031464246684654F023F846444246694693
:109010002846A6604CF0B2FE84F8E9A40AE0002BD2
:1090200059D094F8E934013303F00F035345D5D0F8
:1090300084F8462300200837BD46BDE8F087314656
:109040004A46684654F004F84E44694628464A4663
:10905000A6604CF093FE23692868C5E9003094F8B7
:10906000E83400212A68904210D109B184F8E8342C
:10907000A368197894F8E83499424FF0000384F813
:10908000463309D0B5F9081001208CE7511C29603E
:10909000127801215340E5E72169A069C5E9001272
:1090A000E16962694A600B818B813A1D7B6032F015
:1090B00015FE013005D1E2691368591C11600222C6
:1090C0001A707B680BB100209847E36962691968E0
:1090D000C3E9002169E71846ADE700BFD0150020BD
:1090E0001719002070B51F4C94F8EA140A220023C7
:1090F0000926651895F8EB544DBB0BB184F8EA14BA
:1091000003685A1C02600C221A7003685A1C026021
:1091100000221A7003685A1C0260197001EB4103A7
:1091200001EB8301104B0D2219444CF027FE94F8FB
:10913000EA34E2180120034482F8EB040922B3FB6D
:10914000F2F202EBC2029B1A84F8EA3470BD013AD3
:10915000D3D00131B1FBF6F303EBC303C91AC9B293
:109160002B46C6E7D0150020C41A002008B5002001
:1091700032F010F8B0FA80F0400908BD2DE9F74F41
:109180009B462B4B9246B3F96A45B3F86C650A22AD
:1091900094FBF2F4B3F87025A4B2A2421F4603F583
:1091A000AF650FD1B3F87235B3420BD1D5E90032B8
:1091B000BAEB03086BEB020900231E4A4B4508BFBC
:1091C000424533D2036801905A1C026034221A705F
:1091D00003685A1C026000221A7021464CF0F6FD0A
:1091E000019831464CF0F2FD019847F6FF714CF0C2
:1091F000EDFD019847F6FF714CF0E8FD019847F648
:10920000FF714CF0E3FD019847F6FF714CF0DEFD75
:1092100001980221FFF722FDC5E900ABA7F87045D0
:10922000A7F87265012003B0BDE8F08F0020FAE7CF
:10923000D015002080841E00294AF8B5D36913F0A8
:10924000800304464AD0936913F0020346D0254FA9
:1092500097F8EC02052841D9632888BF6320FFF7FF
:1092600055FB214BC5B2D7F8F80290FBF3F080B262
:10927000FFF74CFBB7F80833C6B24FF4F36013FBAB
:1092800000F34FF47A7093FBF0F342F20F709BB24D
:10929000834298BF1846FFF739FB23685A1C2260A7
:1092A00017221A7023685A1C226000221A7081B299
:1092B00020464CF08BFD4FF0FF3120464CF072FD04
:1092C00023685A1C22601D7023685A1C22602046A5
:1092D0001E700621FFF7C2FC0120F8BD0020FCE74C
:1092E000E0FE0020D0150020A08601002DE9F04FFF
:1092F0004D4AD36913F0800385B0044600F0928094
:10930000936913F0020300F08D80484E96F8EC321A
:10931000052B40F28780D6F8F00203A9FFF70AFB7D
:10932000BDF80C00FFF7F2FA8346BDF80E00FFF718
:10933000EDFA03A940EA0B4BD6F8F402FFF7FAFA6C
:10934000BDF80C00FFF7E2FA8246BDF80E00FFF709
:10935000DDFAD6F8F852364A85EAE5730A2740EA7C
:109360000A4AA3EBE573B3FBF7F3B3FBF2F002FB9E
:10937000103080B2FFF7CAFA81B2B6F80A03019141
:10938000FFF7C4FA1FFA80F9B6F81003B0FBF7F044
:10939000632828BF6320FFF7B9FAD6F8F072D6F831
:1093A000F432244A0199002FD4BF00270127002B53
:1093B000CCBF022600269342CCBF042300232268A0
:1093C00000935FFA80F8501C20601620107022680D
:1093D000501C20600020107020464CF0F7FC5946CD
:1093E00020464CF0DFFC514620464CF0DBFC494661
:1093F00020464CF0EBFC2268009B2D16511C25F0FA
:109400007F0521606DB282F800801F4322683D43D2
:109410002E43511C46F0380621600120167005B01D
:10942000BDE8F08F0020FAE7E0FE0020D015002014
:10943000A0860100FFC99A3B03685A1C10B5026060
:109440007E221A7003685A1C026000221A704FF6BE
:10945000FF7104464CF09CFC0B4B93F82E3083B10B
:1094600022F0E2FC014620464CF092FC204647F6F2
:10947000FF714CF08DFC20460821FFF7EFFB012027
:1094800010BD22F089FCEDE7D015002070B50C4E20
:10949000D6F8803505465C8F2FF0F6FF8442094CE4
:1094A00005DD25B9D6F880355B8FE38470BDA369EF
:1094B00043F08003A3612FF0E7FFE084F6E700BFED
:1094C000D0150020E0FE002008B50020FFF7DEFFE9
:1094D000002008BD30B52DED028B83B0054601910B
:1094E000FFF744FE0446002842D101992846FFF7C1
:1094F0009DFB40F2DC53984207D92046FFF7C6FF98
:10950000012003B0BDEC028B30BD07EE900AB8EE2F
:10951000E78A2FF0B9FF174BDFED170AD3F8802544
:10952000528F07EE900A01EE902AB8EEE71AF8EE95
:10953000611AB0EE480AFFF743F893F8FA350F4A7C
:109540009FED0F1ADFED0C0ABDEEC00A01EE903A56
:1095500010EE101AF8EE611AB0EE480AD184FFF747
:109560002FF8FCEEC07A204617EE903A5374C8E705
:109570000420C6E7D01500200080BB44E0FE002098
:109580000000000070B506460D46FFF7EFFD0446EB
:10959000D0B90120FFF77AFF30462946FFF746FB96
:1095A0000A4AB2F8EE35984203D982F804460120FF
:1095B00070BD181A41F2873398428CBF00230123F3
:1095C00082F804362046F3E70420F1E7D0150020A6
:1095D00038B5FFF7CBFD68B90B4CD4F880355D8FFB
:1095E0002FF052FF85420CDC084B94F8FA255A7490
:1095F000022038BD0120FFF749FF044B00205874BA
:10960000F7E70120F5E700BFD0150020E0FE0020BD
:109610002DE9F041284FFFF709FBB7F8F265B0429A
:10962000044647D897F8FC0531F079FF0546002835
:1096300040D1D7F88035B3F83C802FF025FFB7F83C
:109640000626014640464DF003FB1C4BB3F926208D
:1096500007EE904A01EE902A82B2F8EEE77A07EE22
:10966000106A01EE102AB0EE670AF8EE470AF8EE2B
:10967000E11AB8EE411AFEF7A3FFBDEEC00A10EEE4
:10968000102ADA84B3F9222001EE902A97F8FA25FD
:1096900001EE102AB0EE670AF8EEE11AB8EE411AB0
:1096A000FEF78EFFFCEEC07A284617EE902A5A7419
:1096B000BDE8F0810120FBE7D0150020E0FE00208E
:1096C00010B5194604461046FFF7B0FA074BB3F839
:1096D000F4252044904206D993F8FC0531F01FFF91
:1096E00000F0010010BD0020FAE700BFD0150020F7
:1096F000F8B51C4ED6F880350C469D8F07462FF0E6
:10970000C3FEB6F80626014628464DF0A1FA164BD0
:10971000B6F8F855D88465B10AF0D2FF07EE905A32
:1097200090ED027AF8EEE77AF4EEC77AF1EE10FAED
:1097300014D9B6F8EC05B6F8F0153A4623460844B5
:10974000FFF7BEFF60B938462146FFF76FFAB6F85B
:10975000F635984294BF00200120F8BD0120FCE7B7
:109760000320FAE7D0150020E0FE00202DE9F743A2
:10977000274E0191024605460B46B6F8EC05FFF769
:109780009FFF0446002840D10199DFF888802846D1
:10979000FFF74CFAD6F88035B6F8F0959D8F07465E
:1097A0002FF072FEB6F80626014628464DF050FA14
:1097B0004F45054605D9A8F82600012003B0BDE8AD
:1097C000F0832FF061FEABB201EE903AD6F880350F
:1097D0005B8F8342B8BF034607EE909A9BB201EEBF
:1097E000103AF8EE670A07EE907AF8EE611AB8EED2
:1097F000411AB8EEE70AFEF7E3FEBDEEC00A2046C6
:1098000010EE103AA8F82630D8E70320D6E700BFBC
:10981000D0150020E0FE002038B505460C4600209B
:10982000FFF734FE2A4623460020FFF749FF58B9C8
:1098300028462146FFF7FAF9044BB3F8EC35984275
:1098400094BF0020012038BD0320FCE7D015002084
:109850002DE9F84F2DED048B80460F46FFF786FC6F
:1098600000287AD13E4B9FED3F7AD3ED0C7A3E4EE5
:1098700093ED0D8AF0EEE76AF4EEC76AF1EE10FAA6
:10988000CABF93ED0E7A9FED399A87EE279A9A46D2
:109890002FF03AFF96F8FB35F0EE408A00EE103AD2
:1098A000DFED337AB8EEC00A20EE270A4DF0BCFA9D
:1098B000B6F8E83507EE903AF8EEE77AB4EEE78AC4
:1098C000F1EE10FA3EDDF4EEC08AF1EE10FAACBF14
:1098D00001240024B6F8E6B507EE90BAF8EEE77A70
:1098E000F4EEC97AF1EE10FA2ED5B5EEC08AF1EE9B
:1098F00010FACCBF4FF001094FF000091AF0C0FF79
:10990000054650B1B6F908339B4520DAB5EEC08A5A
:10991000F1EE10FACCBF01250025002044EA09042D
:10992000FFF7B4FD2C4314D040463946FFF77EF9CB
:10993000B6F8EA35984294BF00200120BDEC048BB4
:10994000BDE8F88F0024C5E74FF00009D6E70025F1
:10995000E3E7CAE902872046F0E70420EEE700BF0C
:10996000E0FE0020F366DF3FD0150020000000007D
:1099700035FA8E3C00F01F02400901230238934063
:10998000032816D8DFE800F0110C0207094A116B12
:109990000B4313637047074A516B0B435363704784
:1099A000044A116C0B4313647047024A516C0B4319
:1099B0005364704700380240CA680B6810B51343FF
:1099C0000468114A224013434A6913438A691343C6
:1099D000CA6913430A6A13434A6A13434A6B13431F
:1099E0008A6B134343F400330360D1E90B344269BB
:1099F000234322F00702134343610B6943604B6822
:109A000083608B68C36010BD3F801CF02DE9F04778
:109A1000041E0D4612DB092C26DC824A0B468248C6
:109A2000A0FB0410C00800EB8000A4EB4000002164
:109A3000125C1A7059702846BDE8F08764422D23E5
:109A4000092C01F8013B24D8764A774BA3FB040389
:109A5000DB0803EB8303A4EB43030020D35C4870D3
:109A60000B702846BDE8F0876F4B632CA3FB0426E0
:109A70004FEAD60621DC6B4A0B466B49A1FB060177
:109A8000C90801EB8101A6EB4101515C03F8011B00
:109A9000C5E7654A632CA2FB04364FEAD60637D8E1
:109AA000604A614BA3FB0603DB0803EB8303A6EBD1
:109AB0004303D35C01F8013BC7E7A3FB0627B4F5DA
:109AC0007A7F4FEAD7070DD2564A0B465649A1FB7B
:109AD0000701C90801EB8101A7EB4101515C03F8C3
:109AE000011BCAE7A3FB072842F20F7294424FEA18
:109AF000D80836D84B4A0B464B49A1FB0801C90888
:109B000001EB8101A8EB4101515C03F8011BDDE78A
:109B1000A2FB0637B4F57A7F4FEAD7070CD2414A49
:109B2000414BA3FB0703DB0803EB8303A7EB4303D2
:109B3000D35C01F8013BB4E7A2FB073842F20F7394
:109B40009C424FEAD80821D8364A374BA3FB08037A
:109B5000DB0803EB8303A8EB4303D35C01F8013B71
:109B6000DEE7324AA3FB080994424FEAD90921D81B
:109B70002C4A0B462C49A1FB0901C90801EB8101C4
:109B8000A9EB4101515C03F8011BB5E7274BA2FB90
:109B900008099C424FEAD90921D8224A224BA3FB4B
:109BA0000903DB0803EB8303A9EB4303D35C01F850
:109BB000013BCAE71E4AA3FB090394424FEAD30ABA
:109BC00021D80B461849174AA1FB0A01C90801EB25
:109BD0008101AAEB4101515C03F8011BCAE7144B58
:109BE000A2FB09029C424FEAD20A13D80E4B0D4A3F
:109BF000A3FB0A03DB0803EB8303AAEB4303D35C59
:109C000001F8013BCAE70A22BAFBF2F04BF074FEFE
:109C10000346D7E70A22BAFBF2F04BF06DFE01468D
:109C2000E4E700BFACAF0608CDCCCCCC9F860100EA
:109C30003F420F002DE9F04788B0002506460F4649
:109C400003921C46A846039B5A1C039219780029CC
:109C500040D0252905D0731C01D03046B8470135C6
:109C6000F1E79A1C0392CDF8108058782D2801BF97
:109C7000DA1C039298784FF0010A18BF4FF0000ADF
:109C8000302801BF039B5A1C03921878A0F13003BF
:109C9000DBB20CBF4FF001094FF00009092B09D8C6
:109CA00004AA03A9FEF7EEF9BAF1000F02D0049B53
:109CB0005B4204936C2840F08080039B5A1C039203
:109CC0001A78642A3FD013D8252A00F0818005D85D
:109CD000002AB8D1284608B0BDE8F087582A38D005
:109CE000632AB0D1721CBAD054F8041BC9B2B4E7CD
:109CF000662A55D0A2F16E03D9B20A29A3D80A2B3D
:109D0000A1D801A151F823F0999D0008479C0008B3
:109D1000479C0008479C0008479C00087F9D00085E
:109D2000479C0008359D0008479C0008479C000898
:109D3000539D000854F8040B05A9FEF761F905AB23
:109D4000CDE900931FE054F8040B05A94BF0ECFD9E
:109D5000F5E7A2F158004242424105AB54F8040B2A
:109D600010214BF025FEEAE7A0F158014A424A4192
:109D700054F8040B05AB10214BF01AFEDFE754F842
:109D8000043BCDE90083049B3A464FF0FF31304657
:109D90004CF0CAF8054456E754F8043B1D6052E7FE
:109DA000073424F00704F4E8020155F0E1FA00EE6C
:109DB000100A05A84BF03AFDC1E76628F0D017D885
:109DC0005828D1D009D8002884D025287FF43BAF6B
:109DD000731C3FF444AF25213FE7632882D06428F9
:109DE0007FF431AF54F8040B05A94BF09DFDA6E7B5
:109DF000A0F16E03DAB20A2A3FF625AF0A2B3FF62E
:109E000022AF01A252F823F0999D0008479C000858
:109E1000479C0008479C0008479C00087F9D00085D
:109E2000479C0008359D0008479C0008479C000897
:109E3000699D0008436842485A791B68825C002982
:109E400014BF00200220FAB91A8C22F00102120479
:109E5000120C1A84198B1A8C21F0F30192B20904A6
:109E600022F00A02090C024342F0010241F0010112
:109E700019831A841A8B22F00C021204120C1A8312
:109E80001A8B92B21A837047042A1AD11A8C22F0C4
:109E900010021204120C1A84198B1A8C21F44071CE
:109EA00092B2090522F0A002090D42EA001242F026
:109EB000100241F4807119831A841A8B22F44062D3
:109EC000DBE7082A1A8C1FD122F480721204120CCC
:109ED0001A84998B1A8C21F0F30192B2090422F4AE
:109EE0002062090C42EA002242F4807241F0010132
:109EF00099831A849A8B22F00C021204120C9A8312
:109F00009A8B92B29A83704722F480521204120CF8
:109F10001A84998B1A8C22F4005221F44071520455
:109F20000905520C090D42EA003242F4805241F414
:109F3000807199831A849A8B22F44062DDE700BF16
:109F4000F41C06082DE9F04788464168534D0F6917
:109F50000B684FEA173E90B0064691463F0A002430
:109F6000600142598EEA123C87EA12220CF0030C7F
:109F700002F00F025CEA020240F088800544F560BE
:109F8000002D00F089802C7F002C40F08580B3F8F4
:109F90004420434F6FEA42426FEA524292B2A3F822
:109FA00044201A8892B242F080021A804A79B85C42
:109FB0001A8C4FF0010A0AFA00F080B292B222EA3B
:109FC00000021A841A8C92B2104318841A8892B232
:109FD00042EA0A021A8028464EF0C6FE0A23AB83E4
:109FE000F56828464EF0C0FE2E4BEB60032195F934
:109FF0001400AE6146F036FD95F9140046F095FD6B
:10A00000F36898684EF028FEF3689868036823F0B8
:10A01000010303604EF020FE3046CDE90144CDE956
:10A020000344CDE90544CDE90744CDE90944CDE930
:10A030000B44CDE90D440F944FF020F84FF48063AA
:10A0400007934FF480414FF48053CDE90831736892
:10A0500002901B7CCDF8149007EB830701A97B6865
:10A060000193402304934FF400330B93F368CDF82E
:10A070000C809868FFF7A0FCF3689A68136843F0B7
:10A0800010031360504610B0BDE8F0870134102C67
:10A090007FF466AF002572E70020F4E7200000207F
:10A0A000F41C0608934E050882B000230193019B1F
:10A0B00043F020030193019B60F38A130193084B43
:10A0C000D3F82026019B1361064B11690191013BD6
:10A0D00002D001998906F8D4002002B0704700BF71
:10A0E000D0150020410D030010B5802104464DF02D
:10A0F00030FC204600214DF02CFC2046BDE81040ED
:10A100004DF04DBC70B50022013813460132845C1D
:10A11000002CFAD1DBB20C4A01335B000B8082F8D1
:10A12000083C032382F8093C022310F8015F05B9BB
:10A1300070BD591CD61852FA81F1023386F8085CBA
:10A14000DBB281F8084CF0E7D0150020A74A90ED6B
:10A15000007AB2F854335B082DE9F04F00EBC305E9
:10A16000D5ED007AD5ED015AD2F858B300EB83064D
:10A17000D6ED004AD6ED013A37EE276A37EE677A18
:10A18000D0ED017A05EB830494ED005A94ED014A79
:10A1900077EEA56A77EEE57A76EE245A2DED048BFC
:10A1A00075EE855A8FB0C0ED005AD6ED015A94ED88
:10A1B000013A5A080992024676EEA55A08320A92E6
:10A1C000324675EE835A08320B922A46C0ED015A88
:10A1D000083277EE235A0C92224675EEC45A0832A2
:10A1E0000D920BF10802C6ED005A069277EEE45A82
:10A1F0000BF1100236EE646A76EEE36A37EE637AAC
:10A2000077EEA47A0792A4F1040C0BF118020892DD
:10A2100075EE855A5A0836EE456A0CEB830376EEE6
:10A22000C46A37EE047A77EEC57A0193069BC6EDD1
:10A23000015A023A85ED006AC5ED016A84ED007AA3
:10A24000C4ED017A0493079B02934FEA5209089BDD
:10A25000039300F1100AA6F104082F1F06F1100164
:10A2600005F1100E04F11002CDF81490019B5EED83
:10A27000027A1AED024A5AED015A11ED025A52EDD4
:10A28000022A12ED012A083B0193049B0833049330
:10A29000029B74EE274A103334EE674A5EED017A72
:10A2A0000293039B35EEA76A75EEE75A51ED017AEA
:10A2B000183335EEC53A74EE276A34EEC57A76EE79
:10A2C000673A75EE855A74EE677A34EE855A0393D1
:10A2D000059B76EEC26A33EE223A37EE627A73EE6F
:10A2E000C23A77EE827A75EEE25A35EE225A0AF1D8
:10A2F000080AA8F10808ACF1080C083F08310EF173
:10A30000080E0832002B73D10A9B03EBC9020C9B89
:10A3100082ED005A03EBC9010B9B03EBC9070D9BB0
:10A3200097ED015A03EBC90C36EE056A9CED015A14
:10A33000069B36EE056A03EBC90E82ED016ADEED7F
:10A34000014A9EED005A079B24EE836A03EB091A2B
:10A35000A5EE266A089B66EEE46A87ED006AE5EEE4
:10A36000036A4FF0180808FB09385A46C7ED016A1E
:10A370009AED015A9AED006A1C4F65EE236AE6EEEB
:10A38000076A27EE457AC1ED006AA6EE237A81EDD1
:10A39000017A98ED016AD8ED006ABDF824100191A8
:10A3A00026EE257AA6EEA77A67EEC67A8CED007ABD
:10A3B000E6EEA57ACCED017AFDF788FED7F85823B2
:10A3C00001993046FDF782FED7F8582301992846B7
:10A3D000FDF77CFED7F85823019920460FB0BDEC5D
:10A3E000048BBDE8F04FFDF771BE00BFE0FE00201A
:10A3F0000AED045A11ED035A019B36EE056A12ED7F
:10A40000035A36EE056A0AED036A9CED015A9CED8B
:10A41000024AD8ED012AD8ED024A97ED028AD3ED1F
:10A42000020AD7ED018A32EE856A72EEC52A34EE51
:10A43000845A74EEC44A75EE481A35EE085A93ED04
:10A44000014A35EE205A36EE682A88ED025A97ED19
:10A45000015A36EE056A93ED015A049B36EE056A01
:10A4600034EEE81A88ED016A13ED015A13ED026A21
:10A47000029B31EE041A32EE442A34EE684A38EE7A
:10A48000609A74EE644A25EE034A32EE890AA6EE1B
:10A49000264A66EEC56A01ED044AE6EE036A71EEED
:10A4A000E01A41ED036A61EE066A26EE406AE0EECC
:10A4B000056AA1EE056AC7ED016A87ED026A53EDF0
:10A4C000036A13ED046A039B26EEA35A79EE622A0F
:10A4D000A6EE075A27EE667A0EED045AA6EE237A08
:10A4E0000EED037A21EEA67A66EEC26AA2EE467AF5
:10A4F000E1EEC66A8CED017ACCED026A13ED067AC4
:10A5000053ED056A019B26EEA56AA7EE276A67EE62
:10A51000E67A02ED046AE7EE257A42ED037A64EE0C
:10A52000877A27EE627AE2EEA67AA4EEA67AC3EDE7
:10A53000017A83ED027A059B013B059396E600BF05
:10A5400010B5544BB3FBF2F399422DED028B044648
:10A550000FD300234FF07E5243608360C3600361DA
:10A560000260BDEC028B0023A36163612362E3619F
:10A5700010BD07EE902AF0EE408AB8EE677A9FEDA4
:10A58000460A07EE901A27EE007AF8EE677A27EE71
:10A59000270AFDEEC07A17EE903A2033402B75D88B
:10A5A000DFED3E7AB4EEE70AF1EE10FAF0EE407A13
:10A5B0000CDDDFED3B5A9FED3B6AF0EE676AF4EE8F
:10A5C000C66AF1EE10FA77EEE57AF6DCDFED366A70
:10A5D000F4EEE67AF1EE10FA0CD5DFED315A9FED8C
:10A5E000336AF0EE676AF4EEC66AF1EE10FA77EEBF
:10A5F000A57AF6D4DFED2E6AF4EEE67AF1EE10FAE3
:10A6000041DCDFED2C6AF4EEE67AF1EE10FA03D5C8
:10A61000DFED256A76EEE77A67EEA76ADFED264A78
:10A620009FED265ADFED265A9FED266AA6EEA45A24
:10A6300067EEA64AE6EE855AB6EE008AA6EEA56A51
:10A64000E4EE867A27EE888A4CF0EEFBC8EE286AA4
:10A65000F7EE007A76EEA75AB8EE006A87EEA57A92
:10A6600020EE060A77EEE67A20EE070A67EE877A92
:10A6700084ED007A84ED027AC4ED047A84ED010A57
:10A6800084ED030A6DE7DFED056AC3E79FED0E8AEF
:10A69000DAE700BF20A1070027D4D236DB0F4940FC
:10A6A000DB0FC940E4CB1641DB0F49C0E4CB16C138
:10A6B000DB0FC93FDB0FC9BF9A7C2E36FAAF4FB90B
:10A6C0003587083CA4AA2ABE000000002DE9F04707
:10A6D00090B0DDE9184A0D460746904600213C221D
:10A6E00001A899461A9E53F0E1FA344B02938DF873
:10A6F0000450CDF834A0002D55D0022D55D0032D97
:10A7000055D0042D55D103232D4A02EB430393F872
:10A7100025308DF805302B4B0394D3F8482D069740
:10A7200014440122CDE904468DF831201E46B8F1CB
:10A73000000F06D04A46414607A852F089FC8DF822
:10A74000309096F84EED0023BEF1010F0E931FD806
:10A750000DF1040ABAE80F0096F84DCD3C2404FB35
:10A760000C6404F555640FC4BAE80F000FC4BAE8CE
:10A770000F000FC49AE80700BCFA8CFC0EF1010E22
:10A780004FEA5C1C84E8070086F84EED86F84DCD54
:10A790003B6883B14B4642462946384610B0BDE877
:10A7A000F04726F0E3BB2B46AEE70123ACE70223DC
:10A7B000AAE70023ADE710B0BDE8F087D72200205C
:10A7C000F41C0608D015002070B51C4C94F82054D9
:10A7D00075B3D4F828640B68DFED196A9B1B07EE8C
:10A7E000103AD4F82C644B68B8EEC77A9B1B27EE5E
:10A7F000267A07EE903A04F2244380ED007A93ED36
:10A80000007A8B68012AF8EEE77A27EE267A18BFDD
:10A81000D4F8302467EE877A18BF9B1AC0ED017A0E
:10A8200007EE903AF8EEE77AC0ED027A284670BD5E
:10A830000023036043608360F8E700BF50400020BE
:10A840002C7D8E3F70B51E4D95F820342DED028B7A
:10A8500004460E4673B3D5F828340360D5F82C347B
:10A860004360D5F83034836005F2244393ED008AC9
:10A87000DFED148A96ED000A80EE280A4FF0E0FB27
:10A8800023681844206028EE288A96ED010A80EE9D
:10A89000080A4FF0D5FB63681844606096ED020A21
:10A8A0004FF0CEFBBDEC028BA3681844A06095F876
:10A8B000200470BDC0E900338360B7EE008AD7E79B
:10A8C000504000202C7D8E3F00230360704773B5FD
:10A8D00013460D4690F910200D49142606FB02126E
:10A8E0000446D2F820628268920703D4019346F0AE
:10A8F000EAFA019B2A46002130464FF06BFAA36822
:10A900009B0702D4204646F0D3FA012002B070BD66
:10A910000000002030B4174B1749C3F8E81D03F5B9
:10A92000606500211224154A154883F8D04D83F83C
:10A93000CC1D42F6F82403F55D61C3F8F85D0025EF
:10A94000C1E90245C3F8EC0D30BC0120C3F8002E6C
:10A95000C3F8042EC3F8082EC3F80C2EC3F8102E2B
:10A96000C3F8142EC3F8182EC3F81C2EC3F8202EDB
:10A97000704700BFD0150020F1810208E003E0031A
:10A98000FD810208074B084AC3F8E82DD3F8F83DCB
:10A990004FF478719A1E223322F8021F9A42FBD19B
:10A9A000704700BFD01500208997020870B5244E6B
:10A9B000244BC6F8E83D11244FF4787506F6286359
:10A9C0004FF4787086F8D04D4FF47874C3E90045A1
:10A9D000C3E90245C3E90445C3E90645C3E908459F
:10A9E000C3E90A45C3E90C45C3E90E451649C6F853
:10A9F000680E84B006F55D6241F60B240025402008
:10AA0000C2E90245C6F8EC1D26F044FFB0B196F845
:10AA1000733E0E4A90F904000092012B0CBF0822ED
:10AA200000220323CDE901324021094A002326F008
:10AA300067FFC6F88C0E003818BF012004B070BD47
:10AA4000D0150020F18A0208E18B0208A0680600F8
:10AA50002993020870B50B4B0B4C0246A34201D35D
:10AA6000002070BD587990420AD1D879884207D128
:10AA700018681E790579AE4202D10568AB42F0D064
:10AA80000C33EBE7A001000808030008642828BF86
:10AA9000642000EB800070B5450064240026B5FBFF
:10AAA000F4F4E4B2F3B29C4212D80A2C0BD0142076
:10AAB000B5FBF0F0C4EB84156638C4EB850528447B
:10AAC000C0B246F065FD0134E4B2092C05D970BD71
:10AAD0009F2046F05DFD0136E4E79A20F1E700BFD4
:10AAE0002DE9F041254D0027C5F8907E002842D081
:10AAF0004FF0007104464EF03DFC064600283AD067
:10AB00004EF07FFC8046002835D040F6C41305F691
:10AB100094622046A5F8F03EC5F8902E44F0FDFF63
:10AB2000327A022145F00CFBD5F8904E144AB5F864
:10AB3000F05EC4F80080B2FBF5F54046A9B24EF0D5
:10AB4000C3FB2068C5F34F014EF0AEFA206843689E
:10AB50001A68B2F844306FEA43436FEA53439BB23A
:10AB6000A2F8443013889BB243F0010313804EF0E7
:10AB700085FAA0600760BDE8F08100BFD015002015
:10AB800040420F0070B50E4C05460C2694F8F23E7C
:10AB9000032B01D9002011E05A1C06FB034384F863
:10ABA000F22ED3F8F42ED107F0D51542EED093F95A
:10ABB000F80E26F091FE0028E8D0406870BD00BF76
:10ABC000D0150020D0ED017AC0ED020AF5EE407AF2
:10ABD000F1EE10FA02BF9FED0B7AF0EE477A80EDAE
:10ABE000017A30EEA77AD0ED007AC0EE876A30EEB7
:10ABF000670AC0ED036AE6EE807AB0EE670AC0ED40
:10AC0000007A704783F9223EBCEEC00A7D4AB2FB4F
:10AC1000F1F210EE103A9BB2934208D300234FF0AA
:10AC20007E5243608360C36003610260704707EE39
:10AC3000901A9FED757AF8EE676A07EE903A66EE25
:10AC4000876AF8EE677A66EEA76AFDEEE67A17EE97
:10AC5000903A2033402B00F2C880DFED6C7AF4EE9E
:10AC6000E76AF1EE10FAF0EE667A0CDDDFED685A75
:10AC70009FED686AB0EE677AB4EEC67AF1EE10FA2C
:10AC800077EEE57AF6DC9FED647AF4EEC77AF1EEC2
:10AC900010FA0CD5DFED5E5A9FED606AB0EE677A70
:10ACA000B4EEC67AF1EE10FA77EEA57AF6D49FEDFF
:10ACB0005C7AF4EEC77AF1EE10FA00F390809FED23
:10ACC000597AF4EEC77AF1EE10FA03D59FED527A75
:10ACD00077EE677A27EEA76ADFED534A9FED537A46
:10ACE0009FED535ADFED535AA6EE247A67EE864A5B
:10ACF000A6EE075AB6EE007AE6EE055AE4EEA57A1D
:10AD000027EE877A9FED466A76EE867AFDEEE75A61
:10AD100015EE903A2033402B64D8F4EEC66AF1EE7B
:10AD200010FA0CDDDFED3A5A9FED3A6AF0EE676AF1
:10AD3000F4EEC66AF1EE10FA77EEE57AF6DCDFEDB6
:10AD4000366AF4EEE67AF1EE10FA0CD5DFED305A01
:10AD50009FED326AF0EE676AF4EEC66AF1EE10FA21
:10AD600077EEA57AF6D4DFED2E6AF4EEE67AF1EE10
:10AD700010FA3DDDDFED256A76EEE77A67EEA76A29
:10AD8000DFED294A9FED295ADFED295A9FED296A07
:10AD9000A6EEA45A67EEA64AE6EE855AB8EE005A29
:10ADA000A6EEA56AE4EE867A67EE857AC7EE206A9B
:10ADB000B7EE006A76EE865A76EE666A86EE257AF9
:10ADC00067EE277A66EE876AC0ED017AC0ED037AF6
:10ADD00080ED007A80ED027AC0ED046A70479FED45
:10ADE0000B7A75E7DFED147AE0E79FED137A89E7D8
:10ADF000DFED0C6AF4EEE67AF1EE10FABED5DFED87
:10AE0000066AB9E720A1070027D4D236DB0F4940F4
:10AE1000DB0FC940E4CB1641DB0F49C0E4CB16C1C0
:10AE2000DB0FC93FDB0FC9BF9A7C2E36FAAF4FB993
:10AE30003587083CA4AA2ABE00000000D0ED0E6AA7
:10AE4000F5EEC06AF1EE10FA00F3B28070EE606ABF
:10AE500090ED016A037826EE866A002B63D1D0ED6F
:10AE6000117A01F00103002B5AD076EEE77AF0EE6A
:10AE7000660A90ED0F5AC0ED110AB5EEC05AF1EE18
:10AE800010FA87EE817A70DCD0ED037A67EE277ACC
:10AE900090ED057AD0ED105A20EE077A67EEA22ADF
:10AEA00077EE257A77EE867A77EEA27AF4EEE17A7B
:10AEB000F1EE10FA00F19D80F4EEC27AF1EE10FA94
:10AEC0008CBFB0EE420AB0EE670A11F0120F80EDAF
:10AED000136AC0ED125AC0ED142A80ED157A80ED88
:10AEE000160A1AD170EE677A90ED046A90ED027A34
:10AEF00067EE867A4A07E6EE877AB0EE657AA1EECB
:10AF0000277AF0EE477A19D5B0EEC77AF0EEE56A07
:10AF1000B4EEE67AF1EE10FA6ED40B0714D4704753
:10AF200077EEE07AA5E711F001034FF000020CBFC5
:10AF3000F0EE607AF0EE667A027094E70B07F0EEBE
:10AF4000475A80ED107AEAD5F4EEE51AF1EE10FAE0
:10AF500008DCB4EEE52AF1EE10FA8CBFF0EE651ACB
:10AF6000F0EE421AC0ED101A7047D0ED0B5AD0ED3A
:10AF7000034A80ED0C1AF5EE405AF1EE10FA04BFC8
:10AF8000DFED207AC7EE855AD0ED0A7A08BFC0ED12
:10AF90000B5A71EE255A37EE677A81EE255AE5EEA7
:10AFA000077A80ED0D5AC0ED0A7A64EEA77A6FE752
:10AFB000D0ED077A80ED081AF5EE407AF1EE10FA3E
:10AFC00004BF9FED106AC6EE267A30EE607A08BFA5
:10AFD000C0ED077A71EE277AD0ED066A81EE276A16
:10AFE00077EE667A80ED096AE6EE276AC0ED066ABA
:10AFF0002EE7B0EE610A68E7C0ED107AF0EE675A0E
:10B000008BE700BF83F9223E30B5264B10201C7819
:10B01000A4F13002092A194603F1010329D9214A72
:10B0200000208B1A022B27DC002391422ED82E2CD5
:10B0300036D10131042400220D7802EB8202303D2A
:10B040005200092D92B298BF521904F1FF349CBFEF
:10B05000013192B214F0FF04EED164214A43124947
:10B0600001FB03230622B3FBF2F3104A02FB00307C
:10B0700001E00138CBD130BD00EB800012F8013B7C
:10B0800040003038184400F0FF00CAE703EB8303A8
:10B0900012F8015B5B00303B2B4403F0FF03C4E775
:10B0A0000022DAE7F824002040420F008096980042
:10B0B00080EAE073A3EBE0738B420ADB00280ADD31
:10B0C000431A4FF4FA72501A02FB03F393FBF0F0A9
:10B0D000704700207047FDD000F5FA734FF4FA7006
:10B0E000411A00FB03F090FBF1F0A0F5FA707047F5
:10B0F0009B1A00FB03F090FBF1F01044704700BF77
:10B10000094BD3F8380FD3F83C2FD3F8403F824295
:10B1100002DB114602460846984204DD9A42B8BF57
:10B120001A46104670477047D015002030B4144AB4
:10B13000D2F8440FD2F8483FD2F8501FD2F84C4F03
:10B14000D2F8542F8342A2BF1D46034628468A42A6
:10B15000A2BF15460A4629468842A8BF0846934220
:10B16000B8BF1346A04202DC224604461046834282
:10B1700003DAA342B8BF2346184630BC704700BF6D
:10B18000D01500200B6810B414681B1B03605468B2
:10B190004B681B1B43608B6892685DF8044B9B1ADD
:10B1A000836070472DE9FF418046084615464AF006
:10B1B00042FD4FF47A72002307460E4654F036FAE9
:10B1C000B5F900303C2403FB0404314638464FF403
:10B1D0007A72002354F02AFA002796B24FF47A7359
:10B1E000C3FB04673B46324601A84AF0ADFC3A4B2C
:10B1F00093F85A3F012B09D0022B35D032463B46FB
:10B2000040464AF0A1FC04B0BDE8F0819DF806403C
:10B21000E31E072BF2D8231F052B0DD9BDF8040020
:10B2200021464AF03FFC9DF8073098420ED0E11EBF
:10B2300018BF01210029E1D02B883C332B80274BFC
:10B24000F6184FF0000343EB0707D7E7032C03D1B1
:10B250009DF808100039EBE70A2CCFD19DF80810B3
:10B26000B1FA81F14909E5E79DF80640E31E082B94
:10B27000C4D8231F062BDFD9BDF8040021464AF0AD
:10B2800011FC032C12D10E280ADC9DF807309842DD
:10B2900008D19DF80810012994BF00210121C9E7B8
:10B2A0000738F0E7B4BF01210021C3E70B2CA5D17B
:10B2B00007280ADC9DF80730984208D19DF808104D
:10B2C00001298CBF00210121B4E70738F0E7CCBF8A
:10B2D00001210021AEE700BFD015002080EE36002E
:10B2E00030B50468E46985B02CB10DF10F05009507
:10B2F000A04705B030BD2046FBE72DE9F04F87B0F1
:10B30000DFF8A8B004910646174698460025002F9E
:10B3100007DBAF4205D00135042DF8D107B0BDE8F9
:10B32000F08F4FF4887303FB05F9049B03EB090AC4
:10B330001D4B00249944B8F1000F01DBA0452ED12C
:10B3400039F814303AF81410CA1A5142514113F422
:10B35000005F03F03F02C3F3851014BF5623482358
:10B36000CDE90203CDE900422B465A46304605910D
:10B3700040F092FA3AF81430059913F4005F03F0A4
:10B380003F02C3F3851014BF56234823CDE90203BF
:10B39000CDE900422B465A46304640F093FA01343C
:10B3A000882CC8D1B7E700BF2C25002059B006086B
:10B3B0002DE9F0473E4C3F4B3F4ADFF804910F46E2
:10B3C00094F8D01F8AB0002908BF1A46804694F925
:10B3D000D11F3A483FF000FE3D460026002F65D0C1
:10B3E00095F800A094F89034D5F80CC05345D5E9F1
:10B3F00001E059D1D4F89434734555D1D4F8983438
:10B40000834251D1D4F89C3463454DD12B691A46FF
:10B41000D4F8A034934247D1D4F8A4146B6921F036
:10B420007F4123F07F43CB1A59425941AB7D0793AB
:10B43000B5F914300693B5F912300593B5F910300B
:10B44000CDF800A0CDE903C3CDE901E033464A467B
:10B450004046099140F020FA099994F8A6340793E0
:10B46000B4F9A4340693B4F9A2340593B4F9A03422
:10B470000493D4F89C340393D4F898340293D4F80A
:10B480009434019394F8903400934A4633464046EE
:10B49000013640F017FA782E04F1180405F118056A
:10B4A0009CD10AB0BDE8F0870021BFE73946D4E758
:10B4B0005040002073B006089BED060876B00608E1
:10B4C00085B0060808B507483FF0BCF8064841F0CB
:10B4D0000FFF064B93F8A42212B1012283F8A52294
:10B4E00008BD00BFA3B00608AFB00608C8260020FC
:10B4F00007B50C46054626F059F9204626F056F9C0
:10B500000021084644F07AFD0021012044F076FD38
:10B51000284644F01DFAA8B10121002044F06EFD38
:10B52000284644F00FFA01462046019144F00DFAF6
:10B5300001990028F8D0204644F00DFA0021084671
:10B5400044F05CFD204644F003FA0028E0D00121DD
:10B55000002044F053FD204644F0F4F9014628460B
:10B56000019144F0F2F901990028F8D0284644F0FE
:10B57000F2F900210846C9E7F0B505460C4689B046
:10B5800014220021204652F091FB2A681D4E04A887
:10B59000C2F385510023054641FA03F7FF0744BF74
:10B5A0009F5D00F8017B0133062BF5D1164900237E
:10B5B0000370C2F303200844C2F3053690F832004A
:10B5C0008DF818003A310DF1190046FA03F7FF071C
:10B5D00044BF5F5C00F8017B0133062BF5D10023EB
:10B5E0000370C2F38343029306ABCDE900530749CE
:10B5F00002F00F032046C2F303124AF0F1FB09B038
:10B60000F0BD00BF201D0608F41C0608BCB00608EB
:10B6100010B4414A92F86937D2F84817D2F84C472B
:10B62000D2F85007023B062B74D8DFE803F05A5CCF
:10B6300060500655040064424942404280EAE0738B
:10B64000A3EBE07306EE903A84EAE473A3EBE473B1
:10B6500007EE103AF8EEE66A9FED306AB8EEC77A68
:10B6600026EE866A81EAE173A3EBE17307EE903A76
:10B67000B4EEC76AF1EE10FAF8EEE77A04DDB4EE44
:10B68000E76AF1EE10FA34DC9FED246A27EE066AD1
:10B69000B4EEE76AF1EE10FA04DDF4EEC66AF1EEFC
:10B6A00010FA2DD49FED1D6A67EE867AB4EEE77A24
:10B6B000F1EE10FA2BD5F4EEE76AF1EE10FA26D58A
:10B6C0000029CCBF042005205DF8044B70474B4295
:10B6D000404221461C46B1E7634240420C461946AF
:10B6E000ACE74942AAE74B4261421C46A6E76442E6
:10B6F000A4E70028CCBF002001205DF8044B704770
:10B70000002CCCBF022003205DF8044B70474FF0A3
:10B71000FF30D9E72346E1E7E0FE0020ABAA2A3F4D
:10B7200037B52A4CDFED2A6A94F8A622D4F8C8521D
:10B7300004EB4201013202F00F0284F8A622254AEE
:10B74000B1F8A832A1F8A80292F8771E92F8782EE4
:10B7500007EE101AB8EEC77AC31A27EE267A2B44E2
:10B76000FDEEC77AC4F8C83217EE901A07EE902A99
:10B77000F8EEE77A1B0967EEA67AA4F8CC32FDEE64
:10B78000E77A17EE902A91420FDD9BB29A42D4BF1E
:10B790009B1A00239942A6BFCB1A9BB20023A4F8A0
:10B7A000CC320B4617EE901A1A4640F2FF35B4F829
:10B7B000CC02009500234BF029FA2A4600214BF0D9
:10B7C00047FAA4F8CC0203B030BD00BFC826002061
:10B7D00014AE2341D01500200648D0F8D03243B132
:10B7E000054BC0F8AC33054A00F53470012124F054
:10B7F0009FB87047C8260020DDBC03082D1502083D
:10B800002DE9F04F2DED028B87B00446324D0393A6
:10B8100010460E46B0EE408A174652F0B1FDD5F8FC
:10B82000B0B39DF848A0DBF800308BF80B604FF008
:10B83000000820448BF80A00CDF8008058463246B4
:10B84000D3F814B09DF84C903B462146D8479FED65
:10B85000230A039B019328EE000A5346FDEEC07AAB
:10B86000CDF8008017EE901A424604A810F0EAFCCA
:10B87000D5F8B43313B11B784B452AD0D5F8C03373
:10B8800013B11B784B4524D0D5F8CC3313B11B78BA
:10B890004B451ED0D5F8D833CBB11B78A3EB0909A3
:10B8A000B9FA89F94FEA5919384652F069FD01345D
:10B8B0000444E1B2D5F8B003CDF8009004AB3246B1
:10B8C00045F024FA07B0BDEC028BBDE8F08F994635
:10B8D000EAE74FF00109E7E7C82600200000C84268
:10B8E00030B51C7814B1012C05D030BD9A780270A7
:10B8F000DB780B70F9E7B3F9024052B1157B94FB8A
:10B90000F5F40470B3F904302AB1527B93FBF2F3DF
:10B91000EFE70C25F3E71222F8E730B51C7814B1F5
:10B92000012C0FD030BD9D7842B1147B6C43046074
:10B93000D8782AB1537B43430B60F3E70C24F5E737
:10B940001223F8E7B3F902200260B3F90430F3E7F9
:10B9500037B50C46054601920CF066FD019B224668
:10B96000294645F085FA094A92F9E43302EB43018E
:10B9700001335BB2352BC8BF0023012081F8E553AA
:10B9800081F8E64382F8E43303B030BDC8260020D6
:10B9900010B4074991F85424002404600471052A66
:10B9A0005DF8044B28BF052201F25D4151F050BB08
:10B9B000C826002010B4074991F8542400240480BC
:10B9C0008470032A5DF8044B28BF032201F25D4115
:10B9D00051F03EBBC826002073B506460D4626F042
:10B9E0005FFB044668B12B88ADF805300422AB78C4
:10B9F0008DF804600DEB020174208DF8073026F0FD
:10BA0000F5F8204602B070BDF8B5204C1D270E4653
:10BA1000054684F8747525F0B3FD002025F042FD3D
:10BA2000082025F03FFD0E2025F03CFD384625F08E
:10BA300039FD042025F036FD042025F033FD0020DB
:10BA400025F030FD302025F02DFD002025F02AFDC9
:10BA5000304625F027FD002025F024FD25F072FD5D
:10BA600004F2755025F086FC234670B194F87525D4
:10BA700052B994F87625302A00D02AB993F8772560
:10BA800012B993F878352B700120F8BDC826002034
:10BA900010B50246041D0020A24200D110BD12F8CC
:10BAA000013B0821584010F0800F4FEA400318BFB7
:10BAB00083F031030139D8B2F5D1EDE70F4B0622FF
:10BAC00030B483F88725242283F8882583F88925D4
:10BAD000002283F88A250A4A03F28B5102F12404DA
:10BAE00052F8045B41F8045BA242F9D1032230BC56
:10BAF00083F88D0583F88E2518F06EBEC8260020C9
:10BB0000341D0608F0B5144C0146002002462646B6
:10BB100007464FF00A0CA31893F8283F03B9F0BD6D
:10BB20002E2B06D101320029F9D0A3180B4483F83B
:10BB3000287FB3180CFB00F093F8285FA5F13003C1
:10BB4000092B9CBFA0F13003E8180E2A01D801325E
:10BB5000E1E70020E3E700BFD0150020F8B5184C5E
:10BB600094F800360546D4F8C8051BB103791E3B8E
:10BB7000012B02D9002143F0EEFE124F0026AE4207
:10BB800015DB94F8FF3523B1D4F8C805002143F044
:10BB9000E2FE0D4BD3F8483DC4F828360B4B00228B
:10BBA0005A60B4F830360133A4F83036F8BD17F8CF
:10BBB000011BD4F8C80543F0CEFE0136DFE700BF15
:10BBC000C8260020CB2C0020D0150020F02C00200F
:10BBD000036813F0400004D013F4057F14BF012064
:10BBE000002070472DE9F043244D254C85B005F128
:10BBF000280980460F461646C4F8FC9DC4F8F85D37
:10BC0000FEF7C0FE1F4BC4F8EC3D122284F8D02D85
:10BC100004F55D6142F6F82200234020C1E90223C9
:10BC200025F038FE044610B3FFF7D2FF98F8002045
:10BC30003F78034694F9040000961C1E14BF0321AC
:10BC40000121002A0CBF07220622012F0CBF082366
:10BC500000231A43CDE901124B460B4A402125F03F
:10BC60004FFEA5F5C8652CB9003818BF012005B0F6
:10BC7000BDE8F083C5F8A806F6E700BF082D002050
:10BC8000D01500209D7F0208659002080348044AF1
:10BC900000F6736100F67260A4E700BFD0150020C3
:10BCA000400D03000348044A00F6736100F6726019
:10BCB00098E700BFD0150020A0860100F0B5A74C82
:10BCC000D4F8AC6694F8B07685B06EB13046FFF724
:10BCD0007FFF48B14FBBD4F8A83633B3A04AD36630
:10BCE000012384F8B03620E094F8B106FCF794FE06
:10BCF000B842054619D0002800F0D380AEB1984D67
:10BD000096F9040095F82930B3FA83F35B0902939E
:10BD100002214FF41653CDE9003100231A460421C5
:10BD200025F0EEFDE8660028DAD1FCF7B3FFD4F881
:10BD3000B466002E00F0BD803046FFF749FF0028B2
:10BD400000F0B78094F8B8364BB9D4F8A83633B1C0
:10BD5000C4F8BC36FCF7BAFC012384F8B83694F872
:10BD6000C206FCF759FE94F8C3368342054639D023
:10BD7000002800F0E080D4F8C436CBB11A7A93F9E9
:10BD8000040003210023002ACDE90113754908BFEF
:10BD9000072201EB82024FF48071526E00921A4624
:10BDA00025F0AEFDC4F8C80610B1012384F8C336EF
:10BDB0006B4A6D4B92F8581083F8721292F8591032
:10BDC00083F8731292F85A1083F8761292F85B1087
:10BDD00083F87A1292F85C1092F85D2083F87B1257
:10BDE00083F87C2294F8CC06FCF716FE94F8CD3646
:10BDF000834205462AD0002800F0A6804FF4FA714D
:10BE00000E2021F0DDF9D4F8D036FBB11A6802F427
:10BE10001072B2F5107F19D093F9040008220323A1
:10BE2000CDE901324FF4E133009300231A464FF479
:10BE3000007125F065FDC4F8D40638B1484B58664A
:10BE4000012384F8CD36002384F8D83694F8D956E7
:10BE50002DBBD4F8DC3613B3032293F9040002950A
:10BE600001921A7A3F4B03EB82034FF400215B6E81
:10BE700000932A462B4625F043FDC4F8E00670B136
:10BE8000374BC4F8E856D3F8483D84F8EC5603F530
:10BE90001C531033C4F8E436012384F8D93605B0B6
:10BEA000F0BD2F4EF06E25F08CFCF56684F8B05690
:10BEB0003BE794F8C006FCF7AFFD94F8B836834230
:10BEC00005463FF44CAF68B3FCF700FC002E3FF48E
:10BED00046AF317A21B302291DD1214B93F833208B
:10BEE0000AB9214A1A660025022396F90400CDE911
:10BEF00001351C4B03EB81012A464B6E0093102148
:10BF00002B4625F0FDFCC4F8BC0600283FF427AF03
:10BF100084F8C15620E70129E5D1114B134AE1E726
:10BF20000521E0E7D4F8BC0625F04BFCC4F8BC566C
:10BF300084F8B85613E7D4F8C80625F042FCC4F8D4
:10BF4000C85684F8C3564DE7D4F8D40625F039FC1A
:10BF5000C4F8D45684F8CD5678E700BFC826002030
:10BF6000D0150020F41C0608000000200A00002064
:10BF700013B5084C01900223C4F8F03652F000FAD1
:10BF80000199C2B2D4F8E00602B0BDE8104043F017
:10BF9000E5BC00BFC8260020084BD3F8E82683F88C
:10BFA000F406052A09D00422C3F8E826D3F8F026BF
:10BFB000022A1CBF0022C3F8E4267047C8260020CE
:10BFC00010B5094A92F836306BB902F13604C15CFB
:10BFD000222904D001330F2B04F8011BF7D113449D
:10BFE000002283F8362010BDD015002038B5214D31
:10BFF000044605F1360052F0C3F995F836302B2B84
:10C00000024609D105381C4900230A46013115783A
:10C010009DB9B3B9002024E0302B0BD195F837300F
:10C02000A3F13101012903D9362B01D00138EAE708
:10C03000901EE8E7382BE6D1F8E70133102B0A46CB
:10C04000E3D1234604F11005194601330C78222C64
:10C0500002D0AB421946F7D10B46CC1AA04201DC04
:10C06000012038BD13F8015D12F8014DA542F4D04E
:10C07000D0E700BFD0150020061600202DE9F043C0
:10C080002DED028B0F4683B0164620B10378303B6E
:10C09000012B40F25A81DFF83093DFEDC38A9FED28
:10C0A000C38A3B78002B3ED036B1C14B3268D3F8FF
:10C0B000483D9A4240F2EE82BE4C94F8F556002D6F
:10C0C00040F0788294F8F606BB4B03EB4003B3F8DC
:10C0D000A8306BBB012384F8F636B84BDA69110639
:10C0E0001FD59A69920740F19682B14AB2F8083397
:10C0F00012684FF4F36113FB01F389FB0301DB17B3
:10C10000C3EB611310203021CDF8033008238DF8E4
:10C1100000008DF801108DF8023068460024904729
:10C120003C70002EBDD103B0BDEC028BBDE8F083A6
:10C130000130C0B2B3F58C6F84F8F60600F0AF8121
:10C140005BD8B3F5826F00F025823DD8B3F5007F50
:10C1500000F0FF8119D9B3F5047F00F08D81B3F5AC
:10C16000806FDED1FCF782FB914BCDF803001021EC
:10C17000002404221B688DF800108DF801408DF812
:10C180000220684698473C70CBE7B3F5807F00F00B
:10C19000F680B3F5887FC4D1884BD3F8AC375B0702
:10C1A000BFD508F08DFA90ED050A4DF049FF804AA1
:10C1B000CDF803001023012112688DF800308DF8AE
:10C1C00001308DF80210A8E7B3F5886F00F0A88160
:10C1D0003BD9B3F58A6FA4D1784BDA691406A0D5A0
:10C1E0009A69900740F10A82714BB3F90A23CDF89E
:10C1F0000320502110221B683DE0B3F5006F00F0D2
:10C200006C815AD9B3F5046F00F0FA803DD9B3F5CB
:10C21000116F00F0A280B3F5206F82D1674BD3F885
:10C22000AC379A067FF57DAF654A614BD2ED057A52
:10C230001B6867EEA87A1021FCEEE77A002417EE5F
:10C24000902ACDF803200A2295E7B3F5846F00F019
:10C250000281B3F5866F7FF464AF554B93F82D20C0
:10C26000002A3FF45EAF554A1B68B2F9B227CDF8F9
:10C270000320302110228DF8002004228DF80110B7
:10C280008DF80220684600247CE7B3F5026F35D1B3
:10C290004A4BDA6911067FF544AF9A69920740F17B
:10C2A000B581434BD3F8F822CDF8032010228DF846
:10C2B00000201B6820210822E0E7B3F5E26F00F0C0
:10C2C000858023D9B3F5E46F7FF42BAFDFF8E080EE
:10C2D00098F82D30002B7FF424AF3A4B93ED090AE8
:10C2E00020EE080A4DF0ACFE10228DF80020D8F8A0
:10C2F0000030CDF8030020210722BFE7B3F5036F1C
:10C300003FF4EBAE002E7FF4CCAE0CE7B3F5C06F7C
:10C3100000F09080B3F5E06F7FF403AF244D95F803
:10C320002D40002C7FF4FDAE264B93ED070A20EE46
:10C33000080A4DF085FE10212B68CDF80300072276
:10C340008DF801408DF8001019E701300621FCF747
:10C35000FDFD184B83F8F5069DE6184BDB69990740
:10C360007FF5DFAE94F8F7461CB11FF015FDB0FB6A
:10C37000F4F40F4ACDF80340102309211CE70F4BBA
:10C38000D3F8AC3759077FF5CCAE08F099F9D0ED6A
:10C39000027A074BFCEEE77A102117EE902A002470
:10C3A000CDF803200122E5E6B80C473E0000C84264
:10C3B000D0150020C8260020F41C0608E0FE00204E
:10C3C000E02D0020340601201F85EB51B74D95F874
:10C3D0002D40002C7FF4A5AEB54B93ED080A20EE5E
:10C3E000080A4DF02DFE10230721CDF803002A681E
:10C3F0008DF800308DF801308DF8021068468EE619
:10C40000AC4BAA49B3F9B437096803EB83035B006B
:10C410001024CDF80330402008238DF800408DF81B
:10C4200001008DF80230684688473D70002E7FF489
:10C4300038AE78E6DFF8748298F83130002B40F09F
:10C44000C6801FF0B7FC00241021CDF8030006229F
:10C45000D8F800308FE6974BDA6912067FF561AEA7
:10C460009A69950740F10C81D4F88827CDF803200C
:10C470008E4B10222021BEE68E4BDB699D077FF597
:10C4800050AEDFF8288298F82E30002B00F0E980BB
:10C4900094F8F746002C40F003812046E9E0854BF4
:10C4A000DA6912067FF53DAE9A69950740F1D480AE
:10C4B000B4F98C27002AC0F2E88093B2B32ACCBF2B
:10C4C000B43BB4331BB2794803EB83035B00CDF874
:10C4D0000330102203686021CDE6764BDA69150639
:10C4E0007FF51FAE9A69940740F1B180C30700F150
:10C4F0009A80DFF8B881D8F8F02282EAE273A3EBE1
:10C50000E27303EB5303A9FB0313DB08002AB8BF54
:10C5100043F0804310210024CDF80330082297E730
:10C52000624B93F82D1000293FF4FBAD61491B6865
:10C53000B1F9B017CDF80310102140208DF800108C
:10C5400004218DF801008DF80210684698473D706F
:10C550006CE7584BDB6918057FF5E3AD94F80037BD
:10C56000002B3FF4DEAD51485349B0F96A358DF8E0
:10C57000015081FB0321DB17C3EBA1031BB24FF07A
:10C58000100C02240168CDF803308DF800C08DF83E
:10C59000024048E7474BDA6915067FF5C2AD9A6954
:10C5A000940727D5FCF7E0FB404ACDF803001023A1
:10C5B000042101E641490620FCF730FC002384F801
:10C5C000F5063B7003B0BDEC028BBDE8F083394A41
:10C5D000D26912057FF5A5AD94F80027002A3FF433
:10C5E000A0AD012B59D0D4F81437CDF80330102169
:10C5F00000242CE71B681807D4D592E51B6819079F
:10C600007FF5F2AD002E7FF44CAD8CE51B681D0765
:10C610007FF547AE85E51B681B077FF566AD002EED
:10C620007FF43FAD7FE5DFF88480D8F8F42282EA1A
:10C63000E273A3EBE27303EB5303A9FB0313DB08E1
:10C64000002AACBF43F0004343F0404362E71B685D
:10C6500019077FF54BAF64E51B6818077FF528AF16
:10C660005FE594F80237012B0CBFB4F81007B4F85B
:10C670001207D8F80020CDF80300102302219CE512
:10C680001B6818077FF5F0AE4BE502F5B47293B264
:10C6900012B213E700233B7094E7D8F86C35A4E797
:10C6A0001FF07AFBB0FBF4F0E3E700BFD0150020E9
:10C6B00034060120E0FE002067666666D585000826
:10C6C0002DE9F041DFF81C8198F8AC32012B82B0E3
:10C6D00002D002B0BDE8F081D8F804000028F8D0FC
:10C6E000D8F8483D3D4C3E4E01330025019304F5FA
:10C6F000F2678DF803500AE01B2B84F8985748D056
:10C700000D2B5AD0012386F87D32D8F80400036837
:10C710005B689847002847D0002D45D1D8F8040021
:10C720000368DB68984783B27E2B49D096F87D2258
:10C73000002AEAD194F89827002ADDD17D2B49D030
:10C7400094F89C272AB180F02003D8B284F89C5733
:10C75000034694F89727062A0BD8B4F89AC7A1186D
:10C7600063440132A4F89A3781F8900784F8972738
:10C77000CBE7B4F89A271344C3F3072252FA83F3A2
:10C780000122A4F89A37FF2B08BF3D4686F87D2288
:10C79000BBE7D8F8040003685B6898470028B1D16C
:10C7A00001238DF80330AEE7284601AA0DF10301FD
:10C7B000FFF764FC02B0BDE8F081A4F89A57A4E743
:10C7C00001238DF8035084F8975786F87D5284F83A
:10C7D00098379AE7012384F89C3796E7C82600200B
:10C7E00000000020D0150020054B93F8AC220AB1C0
:10C7F000002070470222186083F8AC2201207047A5
:10C80000D0150020F0B5224C224DC4F8F85D85B05B
:10C81000FEF7B8F812232049204A84F8D03D42F6AA
:10C82000F82604F55D6300274020C3E90267C4F8D9
:10C83000EC1DC4F8F02D25F02DF830B394F8733EBC
:10C8400094F8721E90F90400154A022B14BF0823B5
:10C850000023002908BF43F0010303244FF4E13112
:10C86000CDE9014300910023402125F049F8A5F5C9
:10C87000F465C5F8C407014620B10A48FFF7B4FFC4
:10C8800085F8C807081E18BF012005B0F0BD00BF1D
:10C89000D0150020682E002035850208299902084D
:10C8A00055890208AD88020810B50C4C94F8AC32DA
:10C8B0000BB1002010BD202024F0ECFFC4F8B00222
:10C8C00050B1202124F0DCFF054B84F8AD0201209B
:10C8D000236084F8AC0210BD012010BDD0150020EB
:10C8E000FD8500082DE9F043484A494C92F85E2046
:10C8F00094F8D83794F8E60794F8E77794F8EA873D
:10C9000094F8EBE794F8ECC7012A0CBF43F002035C
:10C9100003F0FD0394F8EE2784F8D83794F8ED3748
:10C9200043EA022294F8EF37FE2842EA0341C7B0F7
:10C93000D3B235D0DFF8E4903E46012EF7B205D9E8
:10C94000721E02EB09052D7B002D5CD094F8E85790
:10C9500094F8E9278DF807300B128DF800008DF858
:10C9600003208DF8083032460B140DF10A002949D6
:10C970008DF802508DF801708DF804808DF805E077
:10C980008DF806C08DF8093050F062FB06F10A0000
:10C9900015F0010668444FF0090518BF0D2615E093
:10C9A0008DF800001B498DF801703A460DF1060024
:10C9B0008DF802808DF803E08DF804C08DF8053005
:10C9C00050F046FBB81D684405250026B4F8E4374E
:10C9D00003701B0A437026B10F493246023050F0F3
:10C9E00037FB3D4403353544ADB26F46002617F89A
:10C9F000011BD4F8C806013642F0ADFFB542F6DCA3
:10CA000047B0BDE8F083164697E700BFD015002079
:10CA1000C8260020B82E0020C22F0020AC2E0020F7
:10CA20000C4B034493F8703293B10B4A024492F8D2
:10CA3000071951B9322B28BF322318463223B3FBD2
:10CA4000F0F082F8070901207047013982F80719D0
:10CA50000020704700000020C826002013B50446BF
:10CA60000846237862780DF1060143EA0223ADF807
:10CA70000630FBF71DFEBDF80630238002B010BD66
:10CA80002DE9F04F0668D3009B19036028BF436867
:10CA9000DFB024BF0133436000F128030C9300F1A1
:10CAA0004003044689461546C6F3C5060D9315B9DD
:10CAB0005FB0BDE8F08FC6F14007AF420C9B28BFC6
:10CAC0002F46494698193A463E4450F0C1FA402E46
:10CAD000B944A5EB0705EAD10EAB2246194692F8F8
:10CAE0002B00087092F82A00487092F8290088708C
:10CAF00092F82800C8700D980432904201F10401A8
:10CB0000EDD1A2680192E268029222690392626901
:10CB10000492A2690592E2690692226A07921EA90E
:10CB2000626A089208460022013253F8046B40F80A
:10CB3000046B102AF8D18B6B0F464FEAF34080EA62
:10CB4000734051F8046F80EA93207B6A3F683B444E
:10CB50004FEAB64787EAF617184487EAD606013245
:10CB60003044402AC863E6D1304B0B93DDE90276AE
:10CB7000DDE906EC049B019ADDF820B005980A93E4
:10CB80004FF000080B9B53F8041B0B934FEAF02364
:10CB900083EAB01383EA706A1EAB53F82830194455
:10CBA0000AEB01032CEA000A00EA0E018AEA0101FD
:10CBB00019444FEA723A87EA060359448AEAB20AEC
:10CBC00007EA060B134083EA0B038AEAB25A9A4437
:10CBD0000A9B0A9608F101080B44B8F1400F09932B
:10CBE0005144E3461AD1019B0B44A360029B1344BA
:10CBF000E360039B099A3B442361049B33446361D4
:10CC0000059B1344A361069B0344E361079B7344A4
:10CC10002362089B63446362002648E73E46F4466D
:10CC2000174686460A460998ACE700BFCC1D0608A1
:10CC3000F0B5066893B0F70804460D4680234722F6
:10CC400000210DF10100C7F1770707F03F078DF8CC
:10CC5000003051F02BF812AB3B44320A03F8412C60
:10CC6000320C03F8422C626803F8442C110A03F8D2
:10CC7000451C110C120E03F8406C03F8461C03F817
:10CC8000472C360E07F109026946204603F8436C2B
:10CC9000FFF7F6FEE37A2B70A37A6B70637AAB70C2
:10CCA000237AEB70E37B2B71A37B6B7113B0F0BD28
:10CCB0002DE9F04F914C94F8D87717F00207A3B004
:10CCC00040F01281D4F8DC27002A00F0E4801578C7
:10CCD00015F0010500F0E28001260D25FD2284F803
:10CCE000E627874A1A4412F801C9BCF1000F03D1A4
:10CCF000013BDBB2012BF6D14FF00A0884F8E7378D
:10CD000084F8EB0784F8EC17002E40F0C98084F813
:10CD1000E86794F8D2C78DF81530002284F8E92727
:10CD20000CF1010284F8D22794F8E62794F8ED3745
:10CD30008DF8142094F8EE2784F8EAC743EA02231A
:10CD400094F8EF2743EA0242DBB2002F00F0AC80F8
:10CD50008DF816C08DF817008DF818108DF8193061
:10CD60001FFA88F74FF6FF73ADF82030B9460DF182
:10CD7000150A09F1FF391FFA89F9B9F1000F40F0DE
:10CD8000A880DFF898B1BDF8203094F8E7A7ADF897
:10CD90000630D9460AF1FF3A4FF6FF731FFA8AFAB6
:10CDA0009A450DF1060140F09A809DF8B000FBF71E
:10CDB0007FFC94F8E727BDF806302244190A82F870
:10CDC000F03794F8E727224482F8F117A4F8E43703
:10CDD000002E58D0D4F8DC17002954D00B78DB078C
:10CDE00051D54B7884F8FA38D1E90232CDE90232D4
:10CDF000DFF82CA1C4F8FB38BDF80C30AAF80430D9
:10CE0000D1E90232013342F10002C1E902320023CA
:10CE1000CDE908333B4A3C4B3C48DFF808C194F865
:10CE2000E767CDE90A233A4BCDE90C03394BCDE94D
:10CE30000EC3394B109303F174532022A3F523033F
:10CE4000A3F692430DEB020010311193FFF718FE89
:10CE5000424605A908A8FFF713FE3246494608A82E
:10CE6000FFF70EFE022209EB060108A8FFF708FEF5
:10CE70000AF1FF3108A80722FFF702FE0AF10601B6
:10CE800008A8FFF7D5FE94F8E70702303844284495
:10CE900023B0BDE8F08F3D463E461FE72E461DE716
:10CEA000012284F8E82734E794F8E8E78DF81B308E
:10CEB000131212148DF816E08DF817708DF818C043
:10CEC0008DF819008DF81A108DF81C308DF81D2082
:10CED00046E71AF8010B08A9FBF7EAFB49E71BF83C
:10CEE000010BFBF7E5FB55E7FE23002684F8E63748
:10CEF000354613464FF0060800E700BFC82600205D
:10CF0000B72E002067E6096A85AE67BB72F36E3CF8
:10CF10003AF54FA58C68059BABD9831FB82E00202E
:10CF2000C32F00207F520E5117B49DF810408DF88A
:10CF3000042000228DF805308DF807200A4B8DF86B
:10CF40000640019CC3F8F0472F2483F8EE2783F8AE
:10CF5000EF2783F8ED47992304930322042303B0BA
:10CF60005DF8044BA4E600BFC826002010B4036897
:10CF70000B4900228B420FD8591C01601A70094BD3
:10CF80000268426003F6141101605DF8044BD3F8A7
:10CF9000BC06521A42F0E2BC11F8014B6240E9E7CC
:10CFA000DF2F0020C8260020074B03F62612426020
:10CFB00003F615120260242283F8142903685A1C10
:10CFC000026054221A707047C82600207FB543784B
:10CFD00003F00F0403F0F003802B0ED1042164F062
:10CFE0007F0400238DF808108DF80940ADF80A3051
:10CFF00002A8FBF781FB04B070BD902B16D164F042
:10D000006F038DF80930B64B04EB44041C44062131
:10D0100094F87E328DF80A3094F87F328DF80B3018
:10D0200000238DF80810ADF80C30E1E7A02B40F09C
:10D030008F81AC4ED6F8AC2712F0800126D0AA4BD7
:10D0400093F8EB3223B3012B24D0022B14BF00251D
:10D050000325A34B04EB4400034493F88032012BD7
:10D060001DD1520702A817D519F056F820B1BDF905
:10D07000083013F5C87F03DA4FF67063ADF8083057
:10D08000BDF8081001F5C87189B20BE00D46E0E764
:10D090000125DEE70225DCE719F04AF8E6E7072B71
:10D0A00004D1F18C2046FBF761FBA4E7032B0AD1E6
:10D0B0008D4B93F82E301BB11EF0B6FE0146F1E702
:10D0C0001EF06AFEFAE7052B08D11EF055FE014658
:10D0D0000028E7D0844BB3F86A15E3E7062B08D1A4
:10D0E0001EF04AFE01460028DCD07F4BB3F86C15D9
:10D0F000D8E7092B09D107F0E3FAD0ED057AFDEE68
:10D10000E77A17EE903A99B2CCE70E2B05D1B6F834
:10D11000B41701EB81014900B6E70D2B03D1B6F935
:10D12000B2174942F5E70C2B02D1B6F8B017F0E779
:10D13000122B08D112F02001B4D06C4BD3ED057A3C
:10D14000FCEEE77ADDE7152B0CD1674B316893F8DD
:10D150003230890813F0780F08BF81F0010101F027
:10D1600001019FE7162B06D12DF0D4FD604B18442A
:10D1700090F8D81196E7412B07D112F0040191D015
:10D180005C4BD3F84C190A2377E0852B06D112F0BB
:10D19000040187D0574BB3F8441983E7832B09D197
:10D1A00012F0040102D0534BD3F844192046FBF788
:10D1B000C3FA20E7872B2FD101912DF0ABFD4C4B0B
:10D1C0000199184490F8E50100293FF477AF464AE9
:10D1D00092F8EC1205EB8505C1EB411305EB8505D3
:10D1E00001EB8303A90001EBC301B369084485B2D5
:10D1F000DB0744BF05F5FA7085B20021B2F81003D1
:10D200004FF47A730922B0FBF3F049F021FD0A21B3
:10D2100001FB005080B251E7082B06D100293FF4F2
:10D2200041AF344BB3F88C173CE7142B06D10029DF
:10D230003FF438AF2F4BB3F8881733E77E2B0BD171
:10D2400041B1294BB3F80833242159436423B1FB7E
:10D25000F3F119E7002125E7132B06D100293FF44C
:10D2600021AF214BB3F808131CE70A2B08D1002982
:10D270003FF418AF1C4AB2F90A1391FBF3F103E72C
:10D280000B2B08D100293FF40DAF174B93F8EC128C
:10D2900001EB052106E7802B05D1002986D0124B32
:10D2A000D3F8F01282E7812B06D100293FF47EAF3C
:10D2B0000D4BD3F8F41279E7882B07D100293FF4FE
:10D2C000F1AE094BD3F8F0120B4BD6E7892B15D1F1
:10D2D00000293FF4E7AE044BD3F8F412F4E700BFA3
:10D2E00000000020E0FE0020D0150020E02D0020EE
:10D2F000F41C0608C8260020A0860100902B0BD144
:10D3000000293FF4CFAE134BD3F8F022124B92FB1F
:10D31000F3F103FB112136E7912B06D100293FF4ED
:10D32000C1AE0C4BD3F8F422F0E7822B06D119B131
:10D33000084BD3F8F81239E7002137E7842B07D1DF
:10D3400000293FF4AFAE034BD3F8F812642394E7FF
:10D35000002050E6D0150020A086010070B50130F5
:10D36000094EC4B2E5B2172D05D9182D04BF074BDD
:10D3700093F8505906E0214630464AF0D9FA013474
:10D380000028EFD0284670BD38160020C82600209F
:10D3900008B1FBF7FFB9044A936E23F4060323F4A4
:10D3A0007C439366704700BFD01500202DE9F04FF5
:10D3B000CC4F2DED028B97F8AE5208EE100A83B0D9
:10D3C0008946002D00F08580C74EDFF838834FF086
:10D3D0000C0A97F8AF420134E4B2172C87F8AF4239
:10D3E00005D9182C04BF002387F8AF320AE0214684
:10D3F00040464AF09DFA28B90AFB046494F8FC31CF
:10D40000FF2BE6D197F8AFB2B84C0C2303FB0B66A9
:10D41000D6F8F4110091084650F0B2FFD6F8F86142
:10D420005FFA80F8304650F0ABFF58FA80F30833CB
:10D4300084F823335FFA80FA2BF00F0300EBC80067
:10D440000BF00F0B84F8263384F82A03009984F834
:10D4500029B3424604F22B304FF0FAFD04EB0800EA
:10D460005246314600F22B304FF0F2FD94F8236320
:10D4700004F223303146FBF797F9344484F8230350
:10D4800018EE100AFBF7AAFC681EC0B287F8AE02BD
:10D49000002840F07381964B93F85069954BDB69F7
:10D4A0001A0603D5FFF774FF87F8B002904B8F4937
:10D4B000D3F8580991F81E2301F5477142F04EFA4E
:10D4C0000323304687F8B13203B0BDEC028BBDE8D0
:10D4D000F08F01F0F003854DDFF80C82DFF828B201
:10D4E00085F8263303F11002D2B201920E4605F2FE
:10D4F0002934019BB34264D90C2303FB0683A24663
:10D5000093F8FC31009343EA06130AF8013B731EBB
:10D51000162B00F22881DFE813F017007B000401CE
:10D520007E0081008B008F0093009700A000A30075
:10D53000C300E100F900FD00260101010401090119
:10D54000100113011601200195F82E30002B5CD03C
:10D550001EF06AFC009B434493F814C36246012A00
:10D56000C3B200F20581009A0CF1FF34BCF1000F48
:10D57000E4B214BF2146002104F1010408BF0124D4
:10D58000092A544407D00C2202FB068223F06003D0
:10D5900092F8FD21134330460AF80130FFF7DEFE12
:10D5A000554A81450646A4EB02020AD20C2303FB2E
:10D5B000008393F8FC31434493F814331344102B45
:10D5C00097DD4D4B4D48E41A0634E4B244F0400375
:10D5D00085F823332146FBF7E7F8254485F8230334
:10D5E00018EE100AFBF7FAFB97F8B032002B7FF425
:10D5F0005DAF404BD3F8AC371B067FF557AFFBF759
:10D60000C9F8012387F8B03250E71EF0C5FBA1E747
:10D61000B5F96A059EE7D5F86C059BE71EF0BCFBE3
:10D62000B5F96A35584342F2107390FBF3F091E775
:10D63000304BB3F9B0078DE72E4BB3F9B20789E74A
:10D640002C4BB3F9B40785E707F03AF8D0ED057A2B
:10D65000FDEEE77A17EE900A7CE795F8EC0279E7A1
:10D66000D5F8F4322649224A83EAE37CACEBE37C2A
:10D670005B1403F48043BCFBF1F0034301FB10CCCB
:10D6800043F40053062101FB0CF1A2F856394FF484
:10D690007A7CB1FBFCF1A2F85419D2F8540959E78D
:10D6A000D5F8F032164A124983EAE37CACEBE37C0E
:10D6B0005B1403F48043BCFBF2F002FB10CC034389
:10D6C000062202FB0CF2A1F856394FF47A7CB2FB29
:10D6D000FCF2A1F85429D1F854093BE7B5F9080345
:10D6E00038E700BF00000020F41C0608D015002019
:10D6F000C8260020E0FE0020F9180020F3180020C2
:10D700008096980038160020340601201C4BD3F870
:10D7100088071FE71A4BB3F98C071BE7B5F90A0313
:10D7200018E706F0CDFFD0ED027A91E7DBED077A3E
:10D730009FED147A67EE877A8AE7DBED087AF7E7E0
:10D74000DBED097AF4E718F035FD00283FF402AF6D
:10D7500003780A2B0AD8C068FCE606F0A9FF642308
:10D76000B0FBF3F0F6E64FF0FF30F3E60020F1E611
:10D77000013A04F8013F000AD2B2F0E64E4695E6BF
:10D78000C826002000007A44F8B50C4E054606F67F
:10D790005E1149F0F6FF2C6806F65C17C5E90074C7
:10D7A000E41B182CA8BF18242246394606F674102C
:10D7B0004FF04EFC86F88C49F8BD00BFC82600200B
:10D7C00010B50446C0B2FBF731F8C4F30720BDE83A
