:020000040800F2
:10000000F0FF0120E5E505085DE7000811C20408DE
:100010005DE605085DE605085DE6050800000000F0
:1000200000000000000000000000000059E7000888
:1000300055E700080000000051E700085584040857
:100040005DE605085DE605085DE605085DE6050870
:100050005DE605085DE6050815D80408DDD7040847
:10006000A5D704086DD7040835D704088DC3050843
:100070007DC305086DC305085DC3050849C30508B0
:1000800035C3050821C305085DE60508000000002A
:10009000000000000000000000000000FDD6040881
:1000A000D96B0408256C0408C96B0408496C040862
:1000B000196C0408096C0408F96B0408C5DF05080D
:1000C000CDDF0508B9DF0508C1DF05085DE60508D5
:1000D0005DE6050875850408B98404080000000081
:1000E000C5D604085DE605081500010800000000FB
:1000F0000000000000000000000000000DC3050823
:10010000000000005DE60508E96B04085DE60508EF
:1001100000000000000000000000000000000000DF
:10012000F9C20508E5C20508D1C20508BDC2050827
:10013000A9C2050800000000000000000000000047
:10014000000000000000000000000000EDE00008DA
:1001500095C2050881C205086DC205085DE605085F
:10016000ADDF0508B5DF0508000000000000000055
:10017000000000000000000000000000000000007F
:10018000000000005DE6050800000000000000001F
:080190005DE605085DE60508C7
:0801980084E1050001000000F4
:1001A0000E0201000200000068690020D0690020F2
:1001B00000000000440D0708CC6900201302010074
:1001C00004000000D0290020D869002000000000B1
:1001D000460D0708D4690020031101000A00000041
:1001E000B0680020E069002000000000650C0108F4
:1001F000DC6900200D100100340000006064002064
:10020000F0690020000000002D090408EC690020BE
:100210000902010001000000C8630020286A0020D4
:10022000000000004A0D0708246A0020FB010100BD
:1002300001000000B45E0020306A002000000000D1
:10024000258205082C6A0020FC010100090000003D
:10025000805D0020386A002000000000358205081B
:10026000346A0020F701010006000000745D0020E0
:10027000486A0020000000004C0D0708446A002076
:10028000F901010004000000705D0020546A0020A4
:100290000000000025530408506A00202A020100D3
:1002A00008000000805200205C6A0020000000006E
:1002B000520D0708586A0020160215003F00000082
:1002C000EC2A0020686A002000000000B5810508C3
:1002D000646A00203400010010000000B0510020CA
:1002E000AC6A00200000000031A00208A86A0020CB
:1002F000110201000800000088510020C06A00209F
:10030000000000005A0D0708BC6A0020121201000C
:100310000400000080510020CC6A00200000000092
:10032000620D0708C86A002018300100380000007C
:1003300048510020D46A002000000000D582050842
:10034000D06A00202052010008000000804F0020E9
:10035000106B0020000000009D8402080C6B002040
:100360000610010024000000082A00201C6B002059
:100370000000000051820508186B002000020100F7
:100380000B000000AC460020446B00200000000081
:1003900005730508406B0020FD01010021000000ED
:1003A00088460020546B00200000000057520408CB
:1003B000506B0020FF2101000500000000440020D8
:1003C0007C6B0020000000009D720508786B002007
:1003D000081203000F0000000C440020886B00206E
:1003E000000000000D730508846B00200C02010062
:1003F00004000000B03C00209C6B002000000000C6
:10040000DD720508986B0020FE0101001400000059
:1004100018370020A46B0020000000003D73050881
:10042000A06B0020261001000E000000B0C10020CB
:10043000A0C1002000000000051001089CC10020A0
:100440000B3001001A00000018B10020F4C1002098
:1004500000000000680D0708F0C100201F500100D7
:1004600024000000DCB0002014C2002000000000C6
:10047000840D070810C200200502010004000000DE
:1004800034B300203CC2002000000000A80D070883
:1004900038C20020010201000B0000003CC800200F
:1004A000C4D1002000000000F5720508C0D1002072
:1004B000020201000300000034C80020D4D1002053
:1004C0000000000000000000D0D100201B0201004D
:1004D0001000000020C80020DCD100200000000037
:1004E000B9720508D8D100201B2001000C000000C3
:1004F00050C50020F0D100200000000061960108E6
:10050000ECD1002021020100F000000084C3002093
:1005100000D2002000000000F58D0108FCD1002071
:100520003710010030000000D8CA0020F4D20020AB
:1005300000000000AC0D0708F0D2002016100100EA
:1005400006000000DCC7002028D3002000000000C7
:10055000DC0D070824D300202F100100220000002A
:100560009CD1002034D3002000000000E20D0708D9
:1005700030D30020232201001000000018C7002003
:100580005CD3002000000000040E070858D30020B0
:100590001E0001000900000004C7002070D30020E5
:1005A00000000000140E07086CD300200520010095
:1005B0000C000000B0C7002080D300200000000025
:1005C000200E07087CD3002012300100100000002C
:1005D000ECC6002090D30020000000002C0E07087D
:1005E0008CD30020FD0701007C00000048C20020E1
:1005F000A4D3002000000000916F0108A0D30020C8
:10060000F59101006C00000008C3002024D40020F4
:10061000000000009583010820D400202320010061
:10062000100000003ACA002094D40020000000000E
:10063000C1FF010890D40020F62101000C00000049
:1006400068F300202CF60020000000003C0E070894
:1006500028F600201C0202001C000000F8F2002016
:1006600080F6002000000000CD8005087CF6002008
:10067000283001001600000014F30020A0F600202E
:1006800000000000351502089CF60020140001004F
:1006900005000000F0F20020BCF600200000000081
:1006A000480E0708B8F60020012001000C000000E9
:1006B00090EA0020C8F60020000000004E0E070857
:1006C000C4F600200C400600E4000000B0E8002062
:1006D000D8F600200000000099D60308D4F60020C8
:1006E0000A900100240000006CE80020C0F7002000
:1006F0000000000079FF0108BCF700200E30030065
:10070000BC010000A8E60020E8F70020000000007F
:10071000B5840208E4F70020131001000400000073
:1007200080F00020A8F90020000000005C0E0708FF
:10073000A4F900200101010004000000ECE5002004
:10074000B0F900200000000000000000ACF900201B
:100750000001010004000000E4E50020B8F90020D9
:1007600000000000600E0708B4F90020020101003B
:1007700003000000E0E50020C0F9002000000000B8
:10078000D9D60308BCF90020220201001C01000098
:1007900068EE0020C8F90020000000006D81050807
:1007A000C4F900201500100070000000A003012013
:1007B000B40501200000000000000000B005012089
:1007C0002A00080060000000B00201202806012075
:1007D0000000000075840208240601202C0004009B
:1007E000100000009C0601208C0601200000000083
:1007F0003D820208880601202920140078000000AC
:100800003C000120B00601200000000000000000B4
:10081000AC0601201A0001000E00000094FF002029
:100820002C07012000000000640E070828070120A3
:100830002B0012002400000070FF00204007012060
:1008400000000000118202083C07012025201E0044
:100850002C0100008C0C0120680F0120000000001A
:1008600000000000640F0120031201003D000000A1
:10087000240F01209810012000000000720E0708CC
:1008800094100120F83101000600000074090120D5
:10089000DC10012000000000B00E0708D810012075
:1008A000030001000100000080090120E810012080
:1008B0000000000000000000E41001201010010002
:1008C000020000000C080120F010012000000000D0
:1008D000B60E0708EC100120190001000500000009
:1008E000A4070120F810012000000000B80E07083E
:1008F000F4100120020001000C000000601401202F
:10090000AC1501200000000000000000A815012027
:100910002902010040000000A0130120BC150120A5
:1009200000000000BE0E0708B81501202C020100CF
:1009300004000000701501200016012000000000D6
:10094000FE0E0708FC1501200A0201001400000039
:10095000FC1301202816012000000000DDD7030849
:100960002416012028020400040000009C1E01201F
:100970003820012000000000D97205083420012031
:100980002702040004000000981E012040200120DE
:1009900000000000CD7205083C2001201F02080065
:1009A00010000000D01B01204820012000000000A2
:1009B0007D720508442001201A0201003C0000005D
:1009C000881601205C200120000000003583050806
:1009D0005820012038200100030000005816012093
:1009E0009C20012000000000020F07089820012031
:1009F00027000100040000002C21012034220120E6
:100A000000000000060F0708302201200400080043
:100A10008000000030210120B021012000000000F2
:100A20000000000038220120100201000100000037
:100A30000437012000370120000000000A0F0708DA
:100A4000FC3601201D02020006000000E0360120F5
:100A50000C370120000000000000000008370120D2
:100A60000612030012000000E8360120184201209F
:0C0A70000000000049810508144201202C
:100A7C000403090412010002EF0201408304563200
:100A8C0000020102030100001201000202020040F8
:100A9C008304405700020102030100000000000023
:100AAC000000000001000000000000000000000039
:100ABC004F36002000000000010000000000000084
:100ACC00000000000000000000000000000000001A
:100ADC00000000000000000000000000000000000A
:100AEC000000000001000000000000000060024057
:100AFC001060024000000000000000000000000038
:100B0C00000B0000000000000000000000000000CE
:100B1C00006002402860024001000000000000005C
:100B2C0000000000060C00000000000000000000A7
:100B3C000000000000600240406002400200000023
:100B4C000000000000000000100D0000000000007C
:100B5C0000000000000000000060024058600240ED
:100B6C00030000000000000000000000160E000052
:100B7C0000000000000000000000000000600240C7
:100B8C007060024004000000000000000000000043
:100B9C00200F00000000000000000000000000001A
:100BAC000060024088600240050000000000000068
:100BBC0000000000261000000000000000000000F3
:100BCC000000000000600240A0600240060000002F
:100BDC0000000000000000003011000000000000C8
:100BEC00000000000000000000600240B8600240FD
:100BFC00070000000000000000000000362F00007D
:100C0C000000000000000000000000000064024032
:100C1C001064024000000000000000000000000012
:100C2C000038000000000000000000000000000080
:100C3C000064024028640240010000000000000033
:100C4C000000000006390000000000000000000059
:100C5C0000000000006402404064024002000000FA
:100C6C000000000000000000103A0000000000002E
:100C7C0000000000000000000064024058640240C4
:100C8C00030000000000000000000000163B000004
:100C9C0000000000000000000000000000640240A2
:100CAC00706402400400000000000000000000001E
:100CBC00203C0000000000000000000000000000CC
:100CCC00006402408864024005000000000000003F
:100CDC00000000002644000000000000000000009E
:100CEC000000000000640240A06402400600000006
:100CFC000000000000000000304500000000000073
:100D0C00000000000000000000640240B8640240D3
:100D1C000700000000000000000000003646000044
:100D2C000000000000000000000000007D0000003A
:100D3C00618300085D830008598300084D83000817
:100D4C004983000855830008518300083D9C000826
:100D5C009D860008DD870008518D0008CD8D0008A8
:100D6C00958E000889860008798400087184000833
:100D7C00010000000000803FF52F0108F934010844
:100D8C0071300108690501084D0701087905010852
:100D9C009505010841050108310501080000000016
:100DAC000000000009022000010104C03209040007
:100DBC0000020806500507058102400000070501E6
:100DCC000240000009026400030100C03209040063
:100DDC000001030000000921110100012236000767
:100DEC0005830309000A080B010202020100090431
:100DFC00010001020201000524001001052401007C
:100E0C0002042402020524060102070582030800DD
:100E1C00FF09040200020A0000000705010240005D
:100E2C00000705810240000009024300020100C0D6
:100E3C003209040000010202010005240010010522
:100E4C002401000104240202052406000107058286
:100E5C00030800FF09040100020A00000007050155
:100E6C00024000000705810240000000FF00000066
:100E7C00140000FF0000000000000000AA5507014C
:100E8C00000001AA55050100002D202D2D202D2D2F
:100E9C002D2D202D2D2D2D00000000000000000018
:100EAC00000000000000000008000000680C0608AC
:100EBC00FF1FFF1F05010905A101A1000501093054
:100ECC0009310932093309350934093609371581D5
:100EDC00257F750895088102050919012908150057
:100EEC002501950875018102C0C00000090222008D
:100EFC00010100E032090400000103010200092194
:100F0C00110100012236000705830309000A0000C5
:100F1C000000000001020304010203040607080993
:100F2C00AA550B010000AA5505010000AA5509029B
:100F3C00000000AA5503009F01000000C012000031
:100F4C00FFFFFFFFE8C1002000000000C0C100202F
:100F5C00000000000100000000000100E0017EFF25
:100F6C00FFFFFFFFFF000000FFFFFFFF08FF010175
:100F7C00FF01000001000000ADF4010800000000BA
:100F8C000000000014130608000000000000000020
:100F9C0000000000702A060800000000000000009D
:100FAC0000000000282B06080000000000000000D4
:100FBC0000000000D42A0608000000000000000019
:100FCC0099080208FAEC0020010100001D23020818
:100FDC000000000000000000F02B06087D2602082F
:100FEC000000000000000000A82B06082D202D2D6D
:100FFC00202D2D2D2D202D2D2D000000000000006A
:10100C00000000000000000000000000FFFFFFFFD8
:10101C00D10D02080000000000000000002A0608A4
:10102C0001000000FA0000000100000001000000B7
:10103C00010100000001010100FF0000F6E90020A1
:10104C000000F40101000000F4E900200000F401AC
:10105C0001000000F2E900200000F4010100000092
:10106C00F0E900200000F40101000000EEE900208E
:10107C000000F40101000000ECE900200000F40184
:10108C0001000000EAE900200000F401010000006A
:10109C0059FD01081DFD010800000000DC140608C4
:1010AC00DAE9002005320100E8E900206400F401CF
:1010BC0001000000E6E900206400C4090100000002
:1010CC00D8E90020E803D00701000000D6E9002091
:1010DC00E803D00701000000D4E90020E803D007A2
:1010EC0001000000D2E900201E00B80B0100000036
:1010FC00E0E9002005000F0001000000E2E90020FB
:10110C0003000A0001000000D0E900201E00F401D9
:10111C0001000000E4E90020020000006815060848
:10112C00CEE900201400640001000000DCE900207E
:10113C003200E80301000000CCE900200000C800E8
:10114C0001000000ADE8002000C80100ACE8002060
:10115C0000500100ABE80020005A0100A9E8002073
:10116C0002000000D0140608548A06085C8A06089F
:10117C00F8EC00200100C40900000000F6EC00208F
:10118C000100C40900000000F4EC00200100C409B7
:10119C0000000000F2EC00200100C4090000000077
:1011AC00EEEC00200100C40900000000F0EC00206F
:1011BC000100C40900000000ECEC00200100C4098F
:1011CC0000000000EAEC00200100C409000000004F
:1011DC000BE6002000C801000AE6002000C8010050
:1011EC0008E600200000FFFF0A00000006E60020D1
:1011FC000100C8000100000004E600203200307538
:10120C003200000002E600207EFF14000500000002
:10121C0000E6002005002C0105000000FFE5002081
:10122C00055A0500FCE5002000FF0100FEE500204A
:10123C000200000090080020FAE5002003000000E6
:10124C00200E0608FBE5002000FF0100FDE5002054
:10125C000200000090080020F9E5002003000000C7
:10126C00200E060858E50020FF7F010054E5002001
:10127C0000000000FFFFFFFF0100000050E5002010
:10128C0000000000FFFFFFFF010000004CE5002004
:10129C0000000000FFFFFFFF01000000ADFC010893
:1012AC003DFC010800000000B8150608A0EA00206B
:1012BC00EE02CA08010000009EEA002000C80100EE
:1012CC00640000009DEA002002C8010064000000D8
:1012DC009CEA00200200000074150608F2E50020CC
:1012EC000000803E05000000F0E5002080C1803E3B
:1012FC0005000000EAE500200083007D05000000E9
:10130C00E8E5002080C1803E05000000E3E50020F8
:10131C0000FF0100DCE500206400F4010100000086
:10132C00DAE500206400F40101000000D8E500209B
:10133C006400F40101000000D6E500200400000068
:10134C00C4160608D5E5002002000000D8160608D1
:10135C0097E600200D000000E416060894E6002035
:10136C000064010092E60020320010270A00000001
:10137C0090E600200D000000E41606088FE6002021
:10138C000D000000E41606088EE6002002000000A6
:10139C0080150608A5EA0020460000001C17060868
:1013AC00A3EA00200300000038180608A4EA002075
:1013BC00040000008C15060899E6002003000000CC
:1013CC004818060898E60020030000004818060894
:1013DC009AE80020000A010098E800200000E803C9
:1013EC000100000096E800200000E8030100000066
:1013FC0094E80020000A010092E800200000E803B5
:10140C000100000090E800200000E803010000004B
:10141C0064E80020C800E803010000006AE800202E
:10142C001400FA000100000068E800200100E80345
:10143C000100000066E8002000050100A8E800207B
:10144C0002000000A0150608A6E800200000F40128
:10145C0001000000A4E800200000F40101000000DD
:10146C00A2E800200000F40101000000A0E8002028
:10147C000000F401010000009EE800200000E803D9
:10148C00010000009CE800200000E80301000000BF
:10149C00BAE90020006401000A000000B9E900204C
:1014AC00006401000A000000A7E900201964010093
:1014BC00A6E9002002000000AC150608A4E90020F3
:1014CC00E803D0070A000000A2E900200064010034
:1014DC000A00000097E900200064010096E9002052
:1014EC00006401009EE90020006401000A00000075
:1014FC009DE90020006401000A0000009CE9002026
:10150C00006401000A000000A1E9002000FF0100B6
:10151C000A000000A0E9002000FF01000A00000002
:10152C009FE9002000FF01000A0000009BE9002059
:10153C0001FF01000A0000009AE9002001FF0100F0
:10154C000A00000099E9002001FF01000A000000D8
:10155C00A2E600200000F40101000000A0E600203B
:10156C000000E803010000009EE600200000E803F4
:10157C00010000009CE600200000E80301000000D0
:10158C009AE600200000E803010000004BED00206B
:10159C000096010042ED002000C8010041ED002042
:1015AC000064010040ED0020006401003FED0020CC
:1015BC00006401003EED0020006401003DED0020C0
:1015CC00FF0801003CED0020016401002DFB010827
:1015DC00F1FA0108000000005818060845ED00203B
:1015EC000132010044ED002001000000C81806087B
:1015FC0043ED002004000000D01806083BED00204D
:10160C00009601003AED00200064010038ED002046
:10161C001400E8030100000036ED002000003075D6
:10162C000A00000034ED002000C8010033ED00205A
:10163C0000C8010032ED002000C8010048ED002078
:10164C00003201004AED00200014010049ED002099
:10165C00004B010047ED002004000000E4180608D0
:10166C0046ED0020006401000A000000C6E90020DD
:10167C000AC805000A000000C5E9002001000000AE
:10168C00F4180608C8E900200AC805000A00000082
:10169C00C7E9002001000000F4180608BDE900208D
:1016AC0000C805000A000000C4E9002000C80500BD
:1016BC000A000000BEE9002000C805000A00000076
:1016CC00BFE9002000C805000A000000C2E90020A4
:1016DC0000C805000A000000C3E9002000C805008E
:1016EC000A000000C1E9002000C805000A00000043
:1016FC00C0E9002000C805000A000000BCE9002079
:10170C0002000000FC1806085AED00200000D0076B
:10171C000100000054ED002000C8010053ED002032
:10172C0000C8010052ED002000C8010058ED002057
:10173C000000D0070100000051ED002000C801009E
:10174C0050ED002000C801004FED002000C8010042
:10175C0056ED00200000D007010000004EED0020E7
:10176C0000C801004DED002000C801004CED002028
:10177C0000C801006C9B06080000000000000BF67E
:10178C000020789B0608070800000000940E00203B
:10179C00809B06080708000000008C0E0020889B28
:1017AC000608070800000000840E0020909B060825
:1017BC00080800000000780E0020B0850608070815
:1017CC0000000000700E0020B88506080708000015
:1017DC000000680E0020C085060807080000000005
:1017EC00600E00206C860608080800000000540EED
:1017FC000020989B06080710000000004C0E0020EB
:10180C00A09B0608071000000000440E0020A89BB7
:10181C0006080710000000003C0E0020B09B0608D4
:10182C00081000000000300E0020BC8906080100E2
:10183C00000000000000000000000000100000008C
:10184C000000000000000000C1F80108A5F8010824
:10185C00AD0D0208081906088BE60020005A01009D
:10186C008AE6002000C8010088E60020E803D007C3
:10187C00010000000000000000000000D908020870
:10188C00A4190608F8E5002003000000F819060862
:10189C00F7E5002000030100F6E50020000301003D
:1018AC00E1F7010895F7010800000000081A060886
:1018BC0055F701080DF7010800000000A41A0608EE
:1018CC002DF80108910D020800000000241B0608E9
:1018DC00F4E500200103010079F4010859F4010832
:1018EC0000000000981E060835FE010809FE0108DC
:1018FC0000000000181F06087DF6010825F60108F7
:10190C0000000000881F0608D1F80108812E02088B
:10191C000000000040200608E111020861FE0108E9
:10192C0000000000E820060821F901080000000072
:10193C00000000007421060805FA0108A5F9010849
:10194C0000000000D8210608ADFA010869FA010868
:10195C000000000090220608C96D020869FB01080E
:10196C00000000001C230608CAE900200106010043
:10197C0069F9010835F90108000000003424060853
:10198C00E56C0208590F020800000000A4240608A8
:10199C0099FB0108791002080000000020260608B7
:1019AC000D6E020839100208000000009C0E002089
:1019BC00C9E900200103010075F8010845F8010888
:1019CC00000000002C270608310D02080000000062
:1019DC000000000090270608D5F60108790D0208D2
:1019EC00000000002C280608000000000000000089
:1019FC0000000000C828060815FC0108C5110208E3
:101A0C00000000004829060800000000000000004B
:101A1C0000000000702B0608B4B000209CFF2C01C5
:101A2C000000000018F00020E0150C17000000006A
:101A3C001AF0002002000000A82E0608D0E50020B5
:101A4C0088136F1701000000D2E5002088136F1770
:101A5C0000000000E468002000000000000000000E
:101A6C00E26800200000000000000000E068002098
:101A7C000000000000000000DE68002000000000F4
:101A8C0000000000DC6800200000000000000000E6
:101A9C00DA6800200000000000000000640600204E
:101AAC00000000000000000059E5002003000000C9
:101ABC008C2C0608C8E5002088136F170100000065
:101ACC002AB3002088136F170000000065F5010889
:101ADC0000000000000000009C2C0608B5EC002063
:101AEC0001000000F02C06082CB3002001000000BF
:101AFC00FC2C060822B3002002000000042D06086E
:101B0C00000000000000000000000000102D06087E
:101B1C004DF501080000000000000000AC2D060887
:101B2C00000000000000000000000000002E06086D
:101B3C00000000000000000000000000702E0608ED
:101B4C00D4E5002002000000A82E060826B30020D1
:101B5C00E0150C1700000000ECFA002040FB002000
:101B6C0001F11F3FD6010000B87B0020FFFFFFFFF3
:101B7C000000803F0000000000000000000000009A
:101B8C000000000000000000000000000000000049
:101B9C0000000000000000000000803F000000007A
:101BAC0000000000000000000000803F000000006A
:101BBC0000000000000000000000803F000000005A
:101BCC000000000000000000010000000000FA43CB
:101BDC000000FA43F10F04080000000000000000B0
:101BEC00000000000000803FFFFFFFFFFF0000002F
:101BFC000000000014160120080000000000000086
:101C0C0004160120080000004D2F01085D06010894
:101C1C00E52E0108000000002D050108CD37010854
:101C2C00352E0108892A0108000000000000000080
:101C3C00ED0401087183000865830008CD8C000851
:101C4C00E98C0008B18C0008958C0008798C000890
:101C5C00052F010839060108392E01080000000083
:101C6C00050501088D2A0108092E0108F52901082E
:101C7C000000000000000000F904010861DF030807
:101C8C000000000000000000000000009550040857
:101C9C00000000000000000000000000685E0C0066
:101CAC00D4BB06080C8706080000000061D70308A7
:101CBC00A086010004000000D4BB0608DCBB0608AB
:101CCC0000000000D5600408E803000004000000D8
:101CDC00509006080000000000000000213D0308A1
:101CEC007D000000FF000000548E0608000000007C
:101CFC0000000000815803087D000000FF00000078
:101D0C0080930608000000000000000051790308D1
:101D1C007D000000FF000000E890060800000000B5
:101D2C0000000000DD570408E80300000300000079
:101D3C00E4BB06080000000000000000311A030894
:101D4C001027000003000000D0030708000000006B
:101D5C008580020875C204085F760000050000004B
:101D6C008407070800000000000000003DE504089F
:101D7C001027000002000000F0BB06080000000065
:101D8C0000000000ED500408E8030000050000000E
:101D9C00FCBB0608000000000000000031DA03085C
:101DAC00204E0000030000000CBC060800000000E0
:101DBC000000000019D80308204E000003000000AA
:101DCC001CBC06080000000000000000215D040897
:101DDC00400D030003000000B0AD06080000000039
:101DEC00000000006D0D0408102700000200000028
:101DFC0038870608000000000000000081D90108A7
:101E0C0010270000030000002CBC06080000000096
:101E1C000000000011B90408A086010002000000B7
:101E2C00FC8E060800000000000000003180040851
:101E3C0050C3000002000000A88C0608000000003F
:101E4C000000000049530408A861000002000000D3
:101E5C00CCAD06080000000000000000B58A0408A4
:101E6C00A00F00000200000034BC060800000000B7
:101E7C0000000000B9C20108102700000200000099
:101E8C007C9D060800000000456F01080DB6010896
:101E9C008545010002000000688C06080000000067
:101EAC00000000009D0C010810270000020000003B
:101EBC0020870608000000000000000075370208AB
:101ECC0050C300000200000040BC060800000000E7
:101EDC000000000049170108400D0300010000003C
:101EEC0048BC06080000000000000000A9500408CF
:101EFC00400D03000200000050BC0608000000006A
:101F0C000000000069E9010850C300000300000054
:101F1C005CBC0608000000000000000025EA030875
:101F2C0040420F000100000068BC060800000000E1
:101F3C000000000075E1030850C300000100000020
:101F4C0074BC060800000000000000008D5E010853
:101F5C00102700000200000002010000A00F00008A
:101F6C00B80B00000102FFFF01000000FFFF0000A2
:101F7C00AC03070800000802050303000000000082
:101F8C00B803070801000802050403000000000064
:101F9C00C40307080000080205030300000000004A
:101FAC00CC03070801000802050403000000000030
:101FBC00E4AC06080200FE01011003000000000062
:101FCC009C8D0608030014020003000000000000B2
:101FDC00D403070804001F020200080000000000E0
:101FEC00DC03070805001F020201080000000000C6
:101FFC00FFFFFFFF1A0300000000000000000000BC
:10200C0000000000000000000000000000000000C4
:10201C00040309041201000200000040830420574D
:10202C0000020102030101002985050855850508F8
:10203C001985050869730508C984050875840508A0
:10204C00657305081818002069370108190601087E
:10205C00493601080000000000000000E12D0108D5
:10206C00F12C01080000000000000000000000003E
:10207C00E1040108F1730508E5730508A585050859
:10208C00C18505089D730508898505086D850508BA
:10209C00000004010000020001000002100000001A
:1020AC000700FF000000000000000000000000001E
:1020BC000100000000000000000000000000000013
:1020CC00000000000100000000000000FF00000004
:1020DC00F401000001000000B47D060800000000BF
:1020EC0000000000010203040607080901000000BB
:1020FC00008002021F00000053544D20202020209D
:10210C0050726F6475742020202020202020202005
:10211C00302E3031FF000000441800200000000079
:10212C0000000000000000000000000000000000A3
:10213C000000000000000000000000000000000093
:10214C000000000000000000000000000000000083
:10215C000000000000000000000000000000000073
:10216C000000000000000000000000000000000063
:0C217C0000000000000000000000000057
:082800000000000000000000D0
:10800000024B9A6D136A002BFCD17047A818002010
:1080100030B51349134B8DB00825012201F15800EA
:10802000069381F8F05000230DEB05010DF10704D4
:10803000CDE90733CDE9034202938DF8143009935B
:108040000B938DF8282045F01FFDFFF7D9FF9DF811
:108050000700A0F1FF00B0FA80F040090DB030BD7C
:10806000A818002069800008826D136A5B681B787D
:10807000FF2B08D090F8F030013BDBB280F8F030F5
:108080001BB10120704700207047126A526802201D
:108090001370704770B4C3080D4CE25C00F0070623
:1080A000B24004EBD004D2B20020C6F108038B42E8
:1080B00028BF0B46C3F108052A419840C91A40EA77
:1080C00002004FF0000614F8012FEED170BC70478B
:1080D000E8180020084AD2E93D3199420AD0D11867
:1080E000013391F8FC100170C3F30A03C2F8F430B5
:1080F0000120704700207047A8180020044BD3E9E6
:108100003D30C01AC0F30A00C0F50060704700BFE0
:10811000A8180020012380F85130704707B501A846
:10812000FFF7D8FF0028FAD09DF8040003B05DF8EF
:1081300004FB034BD3E93D30C01AC0F30A0070477B
:10814000A818002001207047024BC3F8FC28C3F890
:1081500000197047A8180020024BC3F80429C3F87F
:1081600008197047A81800207047704730B4114DA7
:10817000D5E93D239A1AC2F30A020A44B2F5006F08
:1081800013D8A9B101444A1E013810F8014FE9186B
:10819000824203F1010381F8FC40C3F30A03F4D1E6
:1081A000C5F8F830002030BC7047022030BC704762
:1081B0000846F8E7A818002070B5144C94F80C395C
:1081C000002BFBD1F9B101444E1E451E02E00120F7
:1081D00040F09CF8D4F81039D4F814290133C3F3D3
:1081E0000A039342F3D0D4F81029D4F8103915F8C3
:1081F000011F22440133C3F30A03B54282F8181960
:10820000C4F81039E6D1002070BD00BFA8180020C6
:1082100010B5074C236A0846114643B1236A052B63
:1082200005D1002A636A02DDFFF7C6FF636A10BD4D
:10823000A029002010B590F85010002380F850308D
:1082400061B1094C226A5AB1226A052A0AD13C302E
:10825000636AFFF7B1FF636A012010BD0120FCE7EC
:108260001046FAE71846F8E7A0290020002280F817
:108270005120DFE790F85020531C0244DBB280F815
:10828000503082F83C1090F851200AB1132B00D9DD
:10829000D0E77047212838B50C4605D022282DD0CC
:1082A000202812D0002038BD0029FBD0072AF9D1A0
:1082B000194B986A93F82C1093F82D2093F82E30D0
:1082C000206021716271A371ECE70029EAD0072ACE
:1082D000E8D1124AD2F800391BB1D2F8FC0809687B
:1082E00098470D4B256820796179A2799D6283F8C2
:1082F0002C0083F82D1083F82E20D3E70029D1D04D
:10830000022ACFD1054AD2F80839002BCAD00988F1
:10831000D2F804099847C5E7A0290020A818002032
:10832000014B002018627047A0290020044B054A29
:10833000002005211162C3F80809C3F8000970473D
:10834000A8180020A0290020704700BF704700BF78
:10835000704700BF704700BF704700BF704700BF45
:10836000704700BF042301480B807047980100202C
:1083700010B4074A074B92F83000122403F114029C
:108380000C8001280CBF184610465DF8044B70475E
:10839000A02900209C010020A0B182680D4B12B1E1
:1083A00007229A7070471978DA6003294FF00400A9
:1083B0000CBF80214FF48071C3E901111A611A7555
:1083C00098707047034B41F2E47101225A545A707D
:1083D000704700BF689200200378022B10D000691C
:1083E00008B9012070470C4B1B78032B0EBF0B4BB9
:1083F00080B24FF6F773984294BF00200120704777
:108400000549436841F650028A58B3EB422F2CBF0E
:1084100001200020704700BF68920020F7FFFF0F87
:108420000378022B14D030B4104A4368006941F637
:10843000480402F5C2511559096841F63C042B4025
:1084400012595B0A023801FB0030104430BC7047FF
:10845000064B426841F6340141F63000595818582D
:1084600000EB410000EB5220704700BF68920020F3
:1084700000487047D0180020034B93F824000328CD
:1084800094BF002001207047A818002070B592B05A
:108490000B0E0D0C40F04006952204468DF8081096
:1084A000080A01A98DF805308DF80650002306252D
:1084B0008DF807008DF809200DF1030001220391CA
:1084C00014498DF80460CDE90733CDE90D33CDE9CA
:1084D000090204938DF818308DF82C300F93119306
:1084E00005958DF840200C91FFF792FD00B974B905
:1084F000094B082203F1580003A983F8F02045F046
:10850000C3FAFFF77DFD9DF8030012B070BDFF2098
:1085100012B070BD1D850008A8180020836D1B6A6D
:108520005B681B78FF2B0AD190F8F030002B03F129
:10853000FF3380F8F03014BF012002207047002084
:10854000704700BF30B51049104B8DB00546012271
:1085500001F15800069381F8F050002302A90DF1B3
:108560000704CDE90733CDE9034202938DF81430B7
:1085700009930B938DF8282045F086FAFFF740FD0C
:108580009DF807000DB030BDA81800201D8500081B
:1085900070B51B4E90B00024FD2201250DF10303A0
:1085A00006F1580001A98DF803200693CDE9014496
:1085B000CDE90A44CDE90C4434628DF810400594AD
:1085C00007948DF824400F94039508958DF8385042
:1085D00045F05AFAFFF714FD2846FFF7B3FFFF28CE
:1085E00008D0084B5B6A73612046092386F8243063
:1085F00010B070BD0423022086F8243010B070BD86
:10860000A8180020A029002070B5064690B00820C8
:108610000D46FFF797FFFF2822D0FE2802D0022048
:1086200010B070BD0024022201230F48089201A956
:108630008DF83830CDE90544CDE90A44CDE90C4444
:108640000296039501948DF8104007948DF824400C
:108650000F9445F019FAFFF7D3FC204610B070BD17
:10866000012010B070BD00BF0019002008B5FFF751
:10867000C7FC0A203FF0EAFB024B186EBDE8084039
:1086800043F09EBDA8180020034B93F82400003847
:1086900018BF0120704700BFA8180020F0B503796B
:1086A000264C002B14BF012200228BB084F85020EE
:1086B00003D184F824300BB0F0BD054690F90010CA
:1086C00004F1580045F056FBAD785DBB01271C480E
:1086D0002566C4F8EC4084F8647045F081FB194EBF
:1086E00003464FF47A70A4F85C303FF00FFE206E22
:1086F00043F066FD0FCE6D460FC50FCE0FC596E851
:10870000030085E803001048694645F0BDF9FFF70E
:1087100077FC0E4B84F824705B6A63610023237638
:108720000BB0F0BD284643F071FA054608B11E2390
:10873000C380092128463EF059FFC7E7A81800204A
:10874000801A06007C09060800190020A0290020D4
:1087500030B58BB0002301250091CDE90433CDE97C
:108760000633016802920446019309938DF80C5078
:108770008DF82050EFF31185102383F312880368DE
:108780001B6A03B3029B684602461BB1D3691432CD
:10879000002BFBD10B6AF3B1996839B9934209D028
:1087A000196829B15B6899680029F7D01433F3E799
:1087B000C3E90040EDB285F311882268136A002BEB
:1087C000FCD10BB030BDEDB2C1F820D085F31188DB
:1087D00053F096FEF1E71C60FFDE00BF2DE9F84381
:1087E000194C94F82460042E0546894690461F468D
:1087F00008D0082E02D00020BDE8F883FFF7C8FE9D
:108800000228F8D1206E43F0D5FCA37E93B969020B
:108810001120FFF73BFE98B90C4BC4F800905A6A40
:1088200065600523C4E90387626184F82430012070
:10883000BDE8F88329461120FFF728FE0028EBD079
:10884000FFF714FFD7E700BFA8180020A0290020D9
:108850002DE9F04FCD4ECE4D86468C4617460FCEB5
:1088600005F134042DED068B0FC40FCE0FC496E82E
:10887000070089B095F86A30039784E80700CDE9CE
:1088800004EC042B00F24581DFE813F0B001430152
:108890003E010500BE019FEDBF8ADFEDBF8ABF49E3
:1088A0002965BF49BF4BC04AE9640399002918BF35
:1088B000134638EE887AF5EE006AC6EE879ABB4E0C
:1088C000AB65A6F1120B06F1C0080027DFEDB87A00
:1088D0009FEDB89A28EE278AB0EE67AA059BBB42A7
:1088E00000F00C811BF8013BEA1892F86F40002C55
:1088F00000F01481002202E0152A00F00F8102EB43
:1089000042014FEA420918F80100A04202F10102B7
:10891000F2D1294491F84D11002900F065812046DB
:1089200002933EF0EDFB029B8246504602933EF0DE
:108930002BFC0178002940F0F180029BA94401330F
:10894000DBB2032289F88D3189F88C21BAF1000F4E
:1089500000F0E4804FEA141909F1FF39B9F1030F6F
:1089600004F00F0000F20681934C04EB4901B1F8CA
:1089700054C04CFA00F111F0010100F0FB8001211C
:1089800001FA00F0013800EA0C00A144029355F00E
:10899000B1FC99F85CC0DFF838E2029B60440EEB52
:1089A000C00C03228CF807308CF806205EF83000EB
:1089B000C6F814C000F13F4303F57E0304EB932493
:1089C000012194F860309AF8082003F01F045B0935
:1089D000032B01FA04F100F00281042B00F0FA806D
:1089E000022B00F0CD80BCF804300693B3FA83F379
:1089F000C3F11F03C3F3CC0100EB810103F00703B4
:108A00000C6A9B004FF00F0C0CFA03FC24EA0C04D8
:108A10000C620C6A02FA03F323430B62022306A9D9
:108A200007930BF0E3F9039B002B00F08180B5F86E
:108A30006830D5F8401307EE903AF8EEE77AFCEE8E
:108A4000E77A17EE900AB1FBF0F202F57F42FF32AF
:108A5000120CB1FBF2F295F86A10B2FBF0F00429A7
:108A600083B27CD007EE902AF8EE676A66EE887AC9
:108A700029EE677A95F86B0004990091A8EEA67A22
:108A8000019051463046C6ED027A86ED037A35F004
:108A900085FB002F70DD7368D5F8902093426DD070
:108AA000012F69D0D5F8A820934267D0022F63D058
:108AB000D5F8C020934261D0032F5DD0D5F8D820DF
:108AC00093425BD0042F57D0D5F8F020934255D075
:108AD000052F51D0D5F8082193424FD0062F4BD007
:108AE000D5F82021D31A18BF012301370122082FFE
:108AF0003374727406F118067FF4F0AE2F4809B093
:108B0000BDEC068BBDE8F08F9FED2D8AF0EE488A14
:108B1000C5E69FED2C8AF0EE488AC0E62A4A224B31
:108B20002A650020AB6509B0BDEC068BBDE8F08F6F
:108B3000B0EE690A56F03EFBFCEEC07A4FF6FF73CA
:108B400017EE902AD5F84013B1FBF2F21A44120C3A
:108B5000B1FBF2F295F86A100429184682D107EEAB
:108B6000900A07EE102AF8EE677AF8EE476A67EE89
:108B70008A7A7DE7716156E70123B6E70023B4E7FF
:108B8000124B5C6C214359642DE700BFA409060811
:108B9000A0290020ACC5A737ACC5A736B1D70308BC
:108BA000ED5204081DD40308E15204082C2A0020C9
:108BB0006F12833A00007A447C090608D429002009
:108BC000282930386F1203396DD503080038024068
:108BD000582B00200E4B1C6B2143196303E70C4BF1
:108BE0001C6C21431964FEE68A469EE69FED098AC5
:108BF000094A0A4B2A65EB6400220123CDE90332BE
:108C0000F0EE488A064B54E69FED068AF0E700BF77
:108C1000003802406F12833AB1D70308ED520408BE
:108C2000E152040800000000F8B5104ED6F84043A9
:108C3000054600680F4664080AF0DCFFB4FBF7F154
:108C4000B1F5803F03D3012CFAD96408F6E7224638
:108C5000284689B23EF0F2F8054BC6F8A83B2846F4
:108C60000449BDE8F84000223DF0F6BFA0290020ED
:108C7000D52702084835002010B5044C04480A46A0
:108C8000214609F03BFE204610BD00BF50350020B4
:108C9000E87D060810B5044C04480A46214609F050
:108CA0002DFE204610BD00BF50350020F87D06087F
:108CB00010B5044C04480A46214609F01FFE204620
:108CC00010BD00BF50350020047E060810B5044CCE
:108CD00004480A46214609F011FE204610BD00BF97
:108CE00050350020107E060810B5044C04480A4692
:108CF000214609F003FE204610BD00BF503500207C
:108D00001C7E060810B509F0CDFD0E4C48B194F854
:108D10002430032B10D8237E0133DBB2072B2376BC
:108D200003D9002384F8243010BD074A0123526A76
:108D3000626184F8243010BD044845F051F8A4F86D
:108D40005C00E8E7A8180020A0290020801A06008F
:108D500070B51D4C94F82430042B06460D4608D0FF
:108D6000082B20D1E36983422BD0FFF711FC0228A6
:108D700019D1206E43F01EFA00213720FFF786FB41
:108D800029461720FFF782FBA8B9A37E6BB97102B1
:108D90001920FFF77BFB70B90823C4E9076584F845
:108DA0002430022070BD012070BD31461920FFF72C
:108DB0006DFB0028F0D0FFF759FCFFF7A3FF03205D
:108DC00070BD022070BD00BFA81800202DE9F04141
:108DD0002B4C0546884617461E4694F82400042866
:108DE00034D0082806D1E369AB4206D0FFF7D0FBA8
:108DF0000228F2D00120BDE8F0814FF0FC0CA26DFA
:108E00002048117B204B80F8AFCCC3F8548051B17F
:108E1000526942B194F8E020002A0CBF4FF48072EE
:108E20004FF4007201E04FF48072DA651749184878
:108E300044F02AFE01220623C4E90085C4E9037632
:108E4000227284F824300020BDE8F081206E43F0C7
:108E5000B1F9A37E5BB969021820FFF717FB40B98F
:108E600094F82430082BC8D04FF0FE0CC7E72946F1
:108E7000F2E7FFF7FBFBFFF745FF0320BBE700BF6F
:108E8000A8180020A029002098010020C40100207B
:108E9000001900202DE9F04FC54C94F8506095B0B2
:108EA000002E00F07F8194F82420C24F04F158086E
:108EB00004F14009531E082B00F29580DFE813F0FF
:108EC000330059001E0193008200A3001800930094
:108ED0000900FFF79DF8002840F0178263697A6A5D
:108EE000FA3393427CD2FFF70DFF94F82420E1E798
:108EF000FFF78EF80028F1D0236A0022012B22769A
:108F000040F21882E269013B511CC4E907130822B0
:108F100084F82420A2F10806B6FA86F676093046CF
:108F200015B0BDE8F08F206E43F044F900210846EB
:108F3000FFF7ACFA0546FFF799FB012D50D1206EE3
:108F40004FF0000A84F819A043F034F940F2AB1155
:108F50000820FFF79BFA052800F07781012800F030
:108F60004081FFF783FB627E002AD1D0022384F880
:108F70002430206E43F01EF9637E022B0CBF4FF0AD
:108F80008045002500213720FFF780FA2946292057
:108F9000FFF77CFA0546FFF769FB0DBB637E022BEA
:108FA00000F06681A576206E43F004F900210920C7
:108FB000FFF76CFA002872D0FFF758FB94F82420D2
:108FC000531E10E020684FF40071FFF71DFB0128CD
:108FD00000F02481022800F02781002800F037816A
:108FE00094F82420531EDBB2022B09D8714B61691F
:108FF0005B6A5B1AC82B8DD9FFF784FE94F8242096
:10900000042A87D18BE7A26D117B136A002900F037
:10901000D5805269002A00F0D18094F8E020002A1F
:1090200000F0CC80B3FA83F35B09002BD8D004A9FD
:1090300000250DF10F0302224FF0010A0591404671
:1090400005A9CDE90B3A0792CDE90955CDE90E55B1
:10905000CDE91055ADF8105006958DF820508DF8DB
:10906000345013958DF848A044F00EFDFEF7C8FF6C
:109070009DF80F3003F01F03052B00F04F81FFF721
:1090800041FED4F80CB0BBF1000F00F0DB802A46A3
:10909000236961685046D84794F824200AE71021D4
:1090A0004846FFF7B1FA8246002885D101217F208A
:1090B000FEF7F0FF012805467FF47EAF50460221FF
:1090C000FEF7E8FF002800F0028101287FF474AF6A
:1090D00016213A20FEF7DEFF01308002A062FFF782
:1090E000C5FA206E43F066F800210A20FFF7CEF99A
:1090F000002840F0E580032384F82430102105A8DF
:10910000FFF782FA00287FF46BAF9DF821309DF8BD
:1091100022109DF81C209DF815009DF816501B018B
:10912000DBB243EA111303F5FA636387DDF81D3000
:1091300001F00F0184F83C101BBA110902F00F0274
:1091400045EA002084F8381084F839209DF814107E
:109150009DF817206363069B2363A08584F82E1077
:1091600084F82F20FFF782FAA37E6BB9206E43F0BC
:1091700021F84FF400711020FFF788F90546FFF73A
:1091800075FA002D7FF4AFAE0B4844F029FE0022A3
:109190000423A4F85C003046226284F8243015B021
:1091A000BDE8F08F304684F8246015B0BDE8F08F3C
:1091B000A8180020A029002040787D012368217A8A
:1091C0004FF4807203EB01214046FFF7C1FA237A86
:1091D0000133DBB22372A3F10203B3FA83F35B0919
:1091E00023E7042304AA8DF8340005A94046079319
:1091F0000692CDE909AACDE90BAACDF814A08DF805
:1092000020A0CDF838A044F03FFCFEF7F9FE9DF811
:109210001330AB2B04BF02236376A2E663697A6A3C
:1092200064339342BFF4DCAEFFF720FAFFF76AFD28
:10923000E5683DB10022104623696168A84794F8AB
:10924000242037E694F8242034E6657689E60190F8
:10925000FFF70CFAE56801982076042384F824309F
:10926000002D3FF45CAED4E900212369A847B7E69E
:10927000206E42F09FFF29463A20FFF707F904A924
:109280008246042201230691404605A907928DF8E3
:109290003430CDE90955CDE90B5505958DF82050B1
:1092A0000E9544F0F1FBFEF7ABFEBAF1000F07D1CB
:1092B000FFF7DCF9049B1BBAC3F38073A37672E655
:1092C000FFF7D4F9FFF71EFD94F82420F2E50421FE
:1092D0002C20FEF7DFFE032182464E20FEF7DAFE49
:1092E0000C2183463620FEF7D5FE0BF1020B421C03
:1092F00002FA0BF205FA0AF5A2FB0501420A42EA5C
:10930000C152A262FFF7B2F9EBE60190FFF7AEF9A6
:1093100001980423064684F8243000E60D4BE568E6
:109320005B6A6361072284F82420002D3FF4F2ADCC
:10933000504698E708D0042384F82430FFF796F9C4
:1093400094F82420531E4EE6FFF722F902287FF4FA
:1093500047AE31E6A029002000F01F02400901239A
:10936000032803FA02F304D004280CD0022805D005
:109370007047074A116C0B4313647047044A516CE1
:109380000B4353647047024A116B0B4313637047DE
:109390000038024000487047B82B00200E4B30B414
:1093A000DB68427801780D4CDB43C3F30223C3F141
:1093B0000403DBB202FA03F360181B0101F01F057E
:1093C0000122490903F0F003AA4080F8003344F871
:1093D000212030BC704700BF00ED00E000E100E05C
:1093E000002877D0F0B58388B3FA83F3202B83B0BD
:1093F0000446C3F11F0258D0374D384E15444FF084
:10940000004006EB820230FA03F395F86850C2F888
:10941000B01C05D0324A116821EA03011160536182
:10942000204600213EF0E2F8A38822682C49B3FAD6
:1094300083F7C7F11F0404F0FC0000F1804000F541
:109440009C3004F00304A40002F13F434FF00F0CE2
:1094500082680CFA04FC22EA0C02826003F57E03A7
:109460008268C3F38723A340134383600A681D48BF
:109470004FF00043FB4022EA03020A604A6822EAF6
:1094800003024A600A681A430A608A6822EA0302F1
:109490008A60CA6822EA0302CA6002682E44134343
:1094A000036096F8F03CF02B01D803B0F0BD0E4BF2
:1094B0005B5D8DF80430F02103224FF4807301A826
:1094C00086F8F01C8DF80520ADF80630FFF766FF32
:1094D00003B0F0BD704700BF7C090608A02900203A
:1094E000003C0140083C0140787E060800285FD01F
:1094F0000368374A2DE9F04103F13F4404F57E0447
:1095000002EB9422012492F8602002F01F05520918
:10951000032A04FA05F456D0042A4FD0022A48D070
:109520008588B5FA85F0C0F11F00C0F3CC0603EBC7
:10953000860600F0070082000F24306A944020EA7B
:1095400004003062306A01FA02F202430021326202
:109550004FF0010E0A464FF0030C02270EFA02F8F4
:1095600038EA050002F101021CD118680CFA01F476
:1095700020EA04001860186807FA01F606431E6026
:109580009E6826EA04069E6098689860586820EAFB
:109590000800586058685860D86820EA0400D8600D
:1095A000D868D860102A01F10201D7D1BDE8F08156
:1095B0007047084A556C2C435464B1E7054A156B53
:1095C0002C431463ACE7034A156C2C431464A7E7DF
:1095D0007C090608003802402DE9F047C24C94F897
:1095E000F71C0546C1F34001D4F8FC0C42F0EEFD37
:1095F00094F8F71CD4F8F80CC94301F0010142F0CB
:10960000E5FD002D00F0DC8005F1FF38B74EB84DC8
:109610005FFA88F81027D4F8FC3C33B11A689B88AD
:1096200051690B4214BF53831383D4F8F83C33B110
:109630001A689B8851690B4214BF53831383B4F893
:10964000043D002B40F0488194F8061DD4F8080D25
:1096500042F0BCFD4FF0FA0C4FF47A704FF0010E5F
:109660007368C3F30803002B40F00B81EFF3118301
:10967000002B40F00681626AA968636A9A42FAD1B7
:10968000D4F82C3D9942F6D8D4F8289D00FB09F374
:109690005B1AB3FBF9F300FB02327368C3F30803F0
:1096A000002B40F0AF80EFF31183002B40F0AA8035
:1096B000636AD5F808A0616A8B42F9D1D4F82C1DF1
:1096C0008A45F5D8D4F8289D00FB09F1A1EB0A01E1
:1096D000B1FBF9F100FB03139B1AB3F57A7FDCD3DE
:1096E000BCF1010CBCD1D4F8FC3C33B11A689B88A6
:1096F00051690B4214BF53831383D4F8F83C33B140
:109700001A689B8851690B4214BF53831383B4F8C2
:10971000043D002B40F0D48094F8061DD4F8080DC9
:1097200081F0010142F052FD4FF0FA0C4FF47A70D3
:109730004FF0010E7368C3F30803002B40F08280E2
:10974000EFF31183002B7DD1626AA968636A9A42A4
:10975000FAD1D4F82C3D9942F6D8D4F8289D00FBD4
:1097600009F35B1AB3FBF9F300FB02327368C3F32E
:1097700008033BBBEFF3118323BB636AD5F808A052
:10978000616A8B42F9D1D4F82C1D8A45F5D8D4F8FA
:10979000289D00FB09F1A1EB0A01B1FBF9F100FBE7
:1097A00003139B1AB3F57A7FE0D3BCF1010CC1D14E
:1097B00008F1FF385FFA88F8B8F1FF0F7FF42BAF9C
:1097C000BDE8F087EFF3118987F31288D5F808A078
:1097D0002B68DB0344BFC4F824EDD5F808A0636A06
:1097E000D4F8241D5FFA89F989F31188D4F8289DEB
:1097F0000B4400FB09F1A1EB0A01B1FBF9F100FBFD
:109800000313CEE7EFF3118987F31288D5F808A088
:109810002B68D90344BFC4F824EDD5F808A0636AC7
:10982000D4F8241D5FFA89F989F31188D4F8289DAA
:109830000B4400FB09F1A1EB0A01B1FBF9F100FBBC
:10984000031349E7EFF3118187F31288D5F80890E5
:109850002B68DA0344BFC4F824EDD5F80890636A96
:10986000D4F8242DC9B281F31188D4F8281D1A44E4
:1098700000FB01F3A3EB0903B3FBF1F300FB02329E
:1098800074E7EFF3118187F31288D5F808902B68FD
:10989000DB0344BFC4F824EDD5F80890636AD4F81C
:1098A000242DC9B281F31188D4F8281D1A4400FB75
:1098B00001F3A3EB0903B3FBF1F300FB0232ECE687
:1098C000D4F8203D002B3FF42FAFD4F80C2D00230B
:1098D000136084F81D3D27E7D4F8203D002B3FF4AA
:1098E000B9AE3EF0D7FDB5E6A029002000ED00E0BE
:1098F00010E000E02DE9F84FBD4CBE4F94F8F71C86
:10990000D4F8FC0CBC4DC1F3400142F05FFC94F86C
:10991000F71CD4F8F80CC94301F0010142F056FCE1
:109920004FF0050B4FF01008D4F8FC3C33B11A6827
:109930009B8851690B4214BF53831383D4F8F83CBE
:1099400033B11A689B8851690B4214BF5383138348
:10995000B4F8043D002B40F0438194F8061DD4F880
:10996000080D42F033FC4FF0320C4FF47A700126B0
:109970007B68C3F30803002B40F00781EFF31183EA
:10998000002B40F00281626AA968636A9A42FAD1A8
:10999000D4F82C3D9942F6D8D4F8289D00FB09F361
:1099A0005B1AB3FBF9F300FB02327B68C3F30803D5
:1099B000002B40F0AB80EFF31183002B40F0A6802A
:1099C000636AD5F808A0616A8B42F9D1D4F82C1DDE
:1099D0008A45F5D8D4F8289D00FB09F1A1EB0A01CE
:1099E000B1FBF9F100FB03139B1AB3F57A7FDCD3CB
:1099F000BCF1010CBCD1D4F8FC3C33B11A689B8893
:109A000051690B4214BF53831383D4F8F83C33B12C
:109A10001A689B8851690B4214BF53831383B4F8AF
:109A2000043D002B40F0D08094F8061DD4F8080DBA
:109A300081F0010142F0CAFB4FF0320C4FF47A7012
:109A400001267B68C3F30803002B7FD1EFF311835A
:109A5000002B7BD1626AA968636A9A42FAD1D4F872
:109A60002C3D9942F6D8D4F8289D00FB09F35B1AE7
:109A7000B3FBF9F300FB02327B68C3F308032BBB93
:109A8000EFF3118313BB636AD5F808A0616A8B42B8
:109A9000F9D1D4F82C1D8A45F5D8D4F8289D00FBBF
:109AA00009F1A1EB0A01B1FBF9F100FB03139B1AC9
:109AB000B3F57A7FE0D3BCF1010CC2D10BF1FF36D4
:109AC00016F0FF0B7FF430AFBDE8F88FEFF311898C
:109AD00088F31288D5F808A02B68DB0344BFC4F8CC
:109AE000246DD5F808A0636AD4F8241D5FFA89F9BB
:109AF00089F31188D4F8289D0B4400FB09F1A1EBF0
:109B00000A01B1FBF9F100FB0313D0E7EFF3118970
:109B100088F31288D5F808A02B68D90344BFC4F88D
:109B2000246DD5F808A0636AD4F8241D5FFA89F97A
:109B300089F31188D4F8289D0B4400FB09F1A1EBAF
:109B40000A01B1FBF9F100FB03134DE7EFF31181BB
:109B500088F31288D5F808902B68DA0344BFC4F85C
:109B6000246DD5F80890636AD4F8242DC9B281F326
:109B70001188D4F8281D1A4400FB01F3A3EB090354
:109B8000B3FBF1F300FB023276E7EFF3118188F3C8
:109B90001288D5F808902B68DB0344BFC4F8246D05
:109BA000D5F80890636AD4F8242DC9B281F31188DE
:109BB000D4F8281D1A4400FB01F3A3EB0903B3FBFF
:109BC000F1F300FB0232F0E6D4F8203D002B3FF425
:109BD00033AFD4F80C2D0023136084F81D3D2BE720
:109BE000D4F8203D002B3FF4BEAE3EF053FCBAE665
:109BF000A029002000ED00E010E000E010B4B8B1B2
:109C00000D4CD4F8303D102B05D15DF8044B0521E7
:109C100000203DF0D3BF03EB4302224482F8351D00
:109C200001210B4482F8340D82F8361DC4F8303D12
:109C30005DF8044B704700BFA029002080782021E8
:109C4000DCE700BF2DE9F04FDFF8ACA32DED028B70
:109C50009AF8781D002297B0CAF8682DCAF86C2DC2
:109C6000CAF8702DCAF8742DCAF8642D19B19AF883
:109C7000792D8AF8642D9AF87A2D1AB19AF87B2DED
:109C80008AF8732D9AF87E2D1AB19AF87F2D8AF8EA
:109C90006E2D9AF87C2D1AB19AF87D2D8AF8692DCF
:109CA0009AF8803D05935A1ED3B257B203937B1C9A
:109CB00000F0AA80C54AC64E52F83790029602EBD1
:109CC000C70200231279019308EE102A1D4634467C
:109CD000984626783946304645F0EAFC83463046B9
:109CE000BBF1000F1ED041F091FFEA1D1321D2B24B
:109CF00020B14FF0000E827180F807E03DF076FC55
:109D0000207845F0FFFC4FF0070308F101022371B2
:109D10004FF0010384F802806070CDF804B05FFA60
:109D200082F8E3700135042D04F10504D1D118EE59
:109D3000100A029ECDF81080FFF70EFBA549A64A37
:109D40004868024042F440324A600FB9019B5BB957
:109D5000A24C4820FFF700FB2046022154F048F9AE
:109D6000A26842F00102A2609A489C4A4168BAF88F
:109D7000824D41F400014160516821F480515160ED
:109D8000916B21F4401141F480119163D16841F449
:109D90006001D160956B85F44011C1F3015101EB75
:109DA00081011F2000FA01FC25EA0C0C112505FA9F
:109DB00001F141EA0C019163D16841F0E061D160A9
:109DC000956BC5F30151C1F10401C9B201EB8101E9
:109DD00088404FF0120C25EA00000CFA01F108430C
:109DE0009063E4B1BAF8841DCAF88C4DA1B1BAF8F9
:109DF000862DCAF8901D62B1019B7948521A90FBDA
:109E0000F2F2CAF8942D6BB917B0BDEC028BBDE825
:109E1000F08F744A1288EFE7734A1188E7E7734AB4
:109E20001488DFE74846049954F0E2F8684B0120B3
:109E300003F114080723F278441CE4B252B3757896
:109E40003279A5F10A0101EB410105EB450C092D21
:109E500003FA01FE03FA0CFB02FA01F140F2A080C2
:109E6000D9F80C2022EA0E0E41EA0E01C9F80C10B6
:109E7000421E02EB82021F21062801FA02FC05FAAB
:109E800002F273D8D9F8341021EA0C010A432046B3
:109E9000C9F834200536B045CDD1D9F8082003994A
:109EA00042F40072C9F80820D9F8082042F4807200
:109EB000C9F80820D9F80820574442F00102C9F82F
:109EC000082097F9882D02203EF086FD04460028E0
:109ED0009AD0466830463EF06DFD454A431E242127
:109EE00001FB032393F89850002D8DD1059983F839
:109EF0009910062283F89820002885D030463EF03D
:109F000059FD51F017F8606809F0CEFD07A809F077
:109F10008DFD049EA26837480792012E8CBF4FF436
:109F2000806300230D9309F14C034FF48072CDE957
:109F30000A56089309904FF4003360680C9507A9FE
:109F40004FF400674FF40056CDE91023CDE90E76AB
:109F500009F07EFD6268136843F001031360D9F8CD
:109F6000083043F08043C9F808304DE7C11FA0F125
:109F70000D0201EB81014FF01F0E02EB82020C2853
:109F80000EFA01FC0EFA02F005FA01F113D8D9F825
:109F9000302022EA0C0211432046C9F8301079E73C
:109FA000D9F8101002FA0CF221EA0B0B42EA0B026C
:109FB000C9F810205CE7D9F82C1005FA02F221EA62
:109FC00000010A432046C9F82C2063E7F40906087B
:109FD0000437002000230140E030FCFF0020014056
:109FE000803801002E7AFF1F2C7AFF1F2A7AFF1F6C
:109FF0009801002038370020A02900202DE9F84FD3
:10A000002E4F00EB800407EBC404D4F8A46D2EB1EE
:10A01000054694F8B90D00F0FF0820B14FF0000894
:10A020004046BDE8F88F89469A4693463EF042F98D
:10A030004FEA49010123C9B284F8BA1D84F8BBBDB7
:10A0400084F8BD3D84F8BE8D84F8BC3D84F8B93DEC
:10A0500084F8B88DB288C4F8C0AD91058146C4F8C3
:10A06000C4AD1DD43388DA0510D442F20F7405E074
:10A070003EF020F9A0EB0903A34215DC33889B05D1
:10A08000F6D433889BB243F480733380B3889BB299
:10A0900043F440734FF00108B3804046BDE8F88FA9
:10A0A00098464046BDE8F88FB7F8183E01339BB29A
:10A0B0002846A7F8183E53F0F5FAB1E7A02900208A
:10A0C00070B5464E96F81A4E04EB440306EBC303F4
:10A0D000650093F81C3E032B6ED8DFE803F0592986
:10A0E0001E02254406EBC505D5F8200E002870D1C8
:10A0F00096F87C3E9C425FD0013404F00302934208
:10A1000086F81A2E58D002EB420406EBC404022350
:10A11000C4F8200E84F81C3E70BD2B1906EBC30357
:10A12000D3F8202E72B1013AC3F8202E002070BD62
:10A130002B1906EBC303D3F8202E002AF3D10222F9
:10A1400083F81C2E254406EBC50595F8283E013BF7
:10A15000DBB285F8283E8BBB214B96F87C6ED3F89A
:10A16000BC12D5F8240E621C02F003024B1E03241D
:10A17000B242034485F81C4EB3FBF1F0C5F8200E43
:10A180001AD0994218D80138C5F8200E012070BDA8
:10A1900044F0CAF880B1124B2C44D3F8BC2206EB31
:10A1A000C404012102F51C5384F81C1E0F33B3FBB9
:10A1B000F2F3C4F8203E70BD012070BD084BD3F807
:10A1C000BC22012002F2E733B3FBF2F3C5F8203ED4
:10A1D00070BD0138C5F8200E002070BDA0290020F8
:10A1E0009801002003681A78012A01D000207047E6
:10A1F00093F90430044A03EB830302EBC30393F89F
:10A20000B90DC0B2704700BFA0290020F0B53B4C8B
:10A21000D4F8805E2B78022B95B018D0012B02D099
:10A22000002015B0F0BD95F904506B1CF8D0022D3C
:10A23000F6DC0091134694F8841E0246284653F03B
:10A24000D3FB0028ECD0284653F0AAFCE9E72B6AA0
:10A25000002BE5D10DF10F0C8DF80F000026012029
:10A260000027CDE90833CDE90A12CDE90E67059341
:10A270008DF81C300D9310931293CDF810C00690FA
:10A280008DF830008DF84400EFF31180102383F334
:10A290001288D4F8803E1B6A13B3069B04AE324684
:10A2A0001BB1D3691432002BFBD12B6A13B399680D
:10A2B00039B993420AD0196829B15B6899680029B5
:10A2C000F7D01433F3E70E4AC3E90026C0B280F397
:10A2D0001188D4F8802E136A002BFCD10120A0E74E
:10A2E00004ABC0B22B6280F3118804F5686052F0B1
:10A2F00007F9EEE7024A1A60FFDE00BFA02900203E
:10A300002038002070B503681D78022D14D0012D6F
:10A3100001D0002070BD044693F904000A4B421C92
:10A3200083F84C5FF5D00228F3DC0A4603F64C7341
:10A330002179BDE8704061E61B6A002BE9D101225A
:10A3400043F022FE012070BDA02900202DE9F04F2E
:10A35000B44E95B006F5756305460F4600241846C1
:10A360004FF4F0722021019586F84D4F86F84E4F3C
:10A3700056F0B3FA202100F5F0704FF4F07256F069
:10A38000ACFAA94DA949BB4632244FF0100C4FF44A
:10A390007A7001276B68C3F30803002B40F0BC8080
:10A3A000EFF31183002B40F0B780726AD1F8088078
:10A3B000736A9A42F9D1D6F82C3D9845F5D8D6F86B
:10A3C000289D00FB09F3A3EB0803B3FBF9F300FBA3
:10A3D00002326B68C3F30803002B7DD1EFF31183C6
:10A3E000002B79D1736AD1F808A0D6F824804345B0
:10A3F000F8D1D6F82C8DC245F4D8D6F8289D00FBAC
:10A4000009F8A8EB0A08B8FBF9F800FB03839B1ACC
:10A41000B3F57A7FDDD3013CBCD1854C94F8192289
:10A42000002A54D094F81A32013B022B4FD803EB88
:10A43000830504EBC50104F52D7091F8B4C200EB5F
:10A44000C500BCF1020F4FF00105C4F81C0284F8EE
:10A45000A45200F0BA82DBB204EB0313D3F82C331E
:10A46000C1F8B8329BB302204FF4807381F8B40274
:10A47000A1F8C03204F50B7004F51A73C1E9B303F7
:10A480001509013D032D02F00F0200F28182DFF871
:10A49000AC8108EB4503B3F8540040FA02F3DB0744
:10A4A00040F17682012303FA02F2013A104045445A
:10A4B00053F020FF95F85C205E4B104403EBC00086
:10A4C000C4F824028379002B46D0412B44D06FF08E
:10A4D000010015B0BDE8F08FEFF311898CF31288FD
:10A4E000D1F808A00B68DB0344BFC6F8247DD1F87F
:10A4F00008A0736AD6F8248D5FFA89F989F3118868
:10A50000D6F8289D434400FB09F8A8EB0A08B8FBDD
:10A51000F9F800FB03837AE7EFF311888CF31288D4
:10A52000D1F808900B68DA0344BFC6F8247DD1F84F
:10A530000890736AD6F8242D5FFA88F888F311889A
:10A54000D6F8288D1A4400FB08F3A3EB0903B3FBEC
:10A55000F8F300FB02323CE72323C38009213DF0DE
:10A5600045F8D4F8243213B11A689B881383D6F8BF
:10A570004023314BB3EB920F80F02D82B3EBD20F1F
:10A5800080F02B82B3EB121F80F02B82B3EB521FB3
:10A5900080F02B82B3EB921F80F02B82B3EBD21FA3
:10A5A00080F02B82B3EB122F80F029824FF480725F
:10A5B00000230DF10D01FF20A4F820220122CDE996
:10A5C0000413CDE90833CDE90A33D4F81C128DF811
:10A5D0000D000D9306928DF81C208DF83020EFF3BE
:10A5E0001180102383F31288D4F81C321B6A002BCD
:10A5F00000F0D281069B04AD2A461BB1D369143208
:10A60000002BFBD10B6A002B00F00F82996839B93F
:10A610009A4218D0196899B15B6899680029F7D0F7
:10A620001433F3E7A029002000ED00E010E000E083
:10A63000983A0020582B0020404B4C007C0906081B
:10A64000B64AC3E90025C0B280F31188D4F81C12C1
:10A650000B6A002BFCD18C220120CDE908330DF1CF
:10A660000E080DF10F0A05938DF81C300D93109311
:10A6700012938DF80E2000230022CDE90E23CDF891
:10A68000108006900B908DF830008DF84400CDF8C6
:10A6900028A0EFF31180102383F31288D4F81C3222
:10A6A0001B6A002B00F08181069B2A461BB1D369EF
:10A6B0001432002BFBD10B6A002B00F0B681996895
:10A6C00039B993420AD0196829B15B6899680029A1
:10A6D000F7D01433F3E7914AC3E90025C0B280F301
:10A6E0001188D4F81C22136A002BFCD19DF80F307E
:10A6F0001B2B40F08A81D4F82432012286F84D2F9A
:10A700000BB12322DA80DFF81492402248460A2156
:10A7100043F03AFC8A21002301228DF80E1000201C
:10A720000021CDE90E01CDE90833D4F81C12CDF893
:10A730001080CDF828A005938DF81C300D93109350
:10A74000129306920B928DF830208DF84420EFF38F
:10A750001180102383F31288D4F81C321B6A002B5B
:10A7600000F02B81069B2A461BB1D3691432002BC3
:10A77000FBD10B6A002B00F05581996839B99342DF
:10A7800009D0196829B15B6899680029F7D014339A
:10A79000F3E7C3E90095C0B280F31188D4F81C2216
:10A7A000136A002BFCD19DF80F2094F81812C2F305
:10A7B000801284F85C23002900F0CE80022900F08A
:10A7C000B380D6F840335649B1EB930F80F019812E
:10A7D000B1EBD30F80F00381B1EB131F80F0038145
:10A7E000B1EB531F80F00381B1EB931F80F0038125
:10A7F000B1EBD31F80F00781B1EB132F34BF4FF4BF
:10A800008076802694F86013A4F85E63182912D12C
:10A81000444800215B08B3FBF6F3A0FB03030846A2
:10A820005B0B66F30F006BF30F0163F31F4062F3E2
:10A830001F41C4E9DA103948A4F82062022200213D
:10A8400043F0A2FBC8203DF001FBD4F81C024FF0FE
:10A85000800B0026002700230122CDE90E67CDE9F9
:10A8600008338DF80EB0CDF81080CDF828A00593F0
:10A870008DF81C300D931093129306920B928DF865
:10A8800030208DF84420EFF31181102383F31288D8
:10A89000D4F81C321B6A002B37D0069B2A461BB10A
:10A8A000D3691432002BFBD1006A002800F0B78076
:10A8B00083683BB9824209D003682BB14068836842
:10A8C000002BF7D01430F3E7C0E90095C9B281F34B
:10A8D0001188D4F81C02036A002BFCD19DF80F30BC
:10A8E00013F00203B7D1019841788278007884F898
:10A8F0007003C1F12001C2F11002184684F87113EF
:10A9000084F8722315B0BDE8F08F0562C9B281F3F7
:10A910001188024851F0F4FDDBE700BFB43C002091
:10A92000809698005917B7D1D6F840334048B0EB1D
:10A93000930F72D2B0EBD30F51D2B0EB131F52D2A0
:10A94000B0EB531F53D2B0EB931F54D2B0EBD31FD5
:10A9500034BF8026402655E7D6F840333549B1EB61
:10A96000930F4ED2B1EBD30F39D2B1EB131F3AD2C2
:10A97000B1EB531F3BD2B1EB931F3CD2B1EBD31FD2
:10A9800041D2B1EB132F34BF4FF48076802639E7E4
:10A990000020C4F82402E1E504ADC0B20D6280F3EA
:10A9A0001188254851F0ACFD50E60D62C0B280F32D
:10A9B0001188214851F0A4FD93E60D62C0B280F3E6
:10A9C0001188484651F09CFDE8E691F8C1322B44CD
:10A9D00081F8C13254E50222EAE50422E8E50426C2
:10A9E00010E70822E4E508260CE71022E0E510262F
:10A9F00008E72022DCE5202604E74022D8E5802273
:10AA0000D6E50226FEE64026FCE6D4F82402202104
:10AA10003CF0ECFD4FF0FF305BE50E46F2E6C0F88F
:10AA20000090FFDEC3F80090FFDE034A1A60FFDEED
:10AA3000002D3101404B4C00B43C00202DE9F04189
:10AA4000C54BC64EC64DC74C0822C3F88820336B91
:10AA500082B043F00103336307464FF4C0522846E7
:10AA600040F2023388466946CDE9002309F0BEF979
:10AA70006B6AC4F8588923F470436B626B6AC4F83C
:10AA8000607943F420436B626B6AB749C4F85C1980
:10AA900023F470236B626B6AB448C4F8740343F404
:10AAA00020236B62736CB249C4F8781343F480437B
:10AAB0007364736BAF48B049C4F8840343F08003F8
:10AAC00002257363AD4F84F87C53AD4EAD4DC4F891
:10AAD000C8134FF0A043C4F88033AB4AC4F8907356
:10AAE00003F53463A1F5D071C4F8CC53C4F8946372
:10AAF000C4F8D033C4F898130123DFF8BCC2C4F8FB
:10AB00008CC307F51077A5F5E465A6F5A066A1F559
:10AB10008C61C4F8D473C4F88853C4F8406484F8D2
:10AB20007F3305F5A075536106F5B076C4F80414BB
:10AB300084F886341946954B954AC4F80C54A7F509
:10AB4000BC67A035C4F81864924EC4F81474C4F8F5
:10AB50001C3407F5D45703F56953C4F820544FF05B
:10AB600050250020DFF854E2C4F84424ACF5687C9A
:10AB700002F5A042C4F84874C4F84C6407F5A04735
:10AB800006F5A046C4F85034C4F85454A3F548530D
:10AB900004F55D75C4F85824C4F86064C4F88034C2
:10ABA000C4F808E4C4F810C40246C4F85C742B4628
:10ABB00084F88804402683F81C21A3F8222101325E
:10ABC000042AC3E9496083F81D1183F81F01C3F803
:10ABD000300103F12803EED1002211462B4640201C
:10ABE00083F87423A3F87A230132042AC3E9DF012E
:10ABF00083F8751383F87713C3F8881303F12803D8
:10AC0000EED14FF0A04364489A6822F001029A60A6
:10AC1000DA6842F04002DA6008F0A6F994F87D3371
:10AC20000022212161F317420BB142F4801294F803
:10AC30007713D4F8803301299A6300F0E480DA684E
:10AC4000D4F88064D4F88403C2F3076121F0600172
:10AC500041F0400161F31F620021DA603160026857
:10AC600061F3CC22026094F87F23012A00F0B880BF
:10AC700010214A4808F0CAFC484808F0ADFCD4F856
:10AC8000840394F8753300224FF0FF310261426172
:10AC90008161C26153B305F11407414E114607EBC0
:10ACA00083074FEA830C4FF0FF0E56F8042F13680A
:10ACB000002BACBF00234FF09043B74213601161EB
:10ACC000C2F808E0F1D105F150033649634400278A
:10ACD000FF2651F8042F1568002DACBF00254FF05A
:10ACE00090459942156017619660F2D1036994F816
:10ACF000771343F480730129036161D0D4F8802372
:10AD000029480023936100294FF0FF336FF0804101
:10AD100051615360516114BF00231023906143F4CB
:10AD200070139069D4F85C1943F4605343F008033E
:10AD3000034393619368096843F001039360884774
:10AD40001A4B1B4ADA6068461A4B0093FEF726FB43
:10AD500002B0BDE8F08100BF00E100E00038024031
:10AD600000000240983A0020580400200804010026
:10AD70004000400100080050000B00502009005026
:10AD800040090050200B0050003C0140C00500501D
:10AD90000010005000300050183E00200C3E0020F3
:10ADA000203E00205C3E00200008008000ED00E016
:10ADB0000005FA054302000100090050200500507B
:10ADC000D4F88023144B03636FF08041134D0023AC
:10ADD0004FF0FF30936151615060516195619EE782
:10ADE00001680F4A0F4E41F0030101608021596252
:10ADF0009E62C3F80421E022C3F80821C0F2400299
:10AE0000C3F80C2134E79A6822F03E0141F02A0190
:10AE100061F307029A6012E70301810000080080D5
:10AE2000A00040008000200010B5184C94F869097B
:10AE300088B9174B83F85100586594F86C39012B89
:10AE40001FD0D4F8703903B312495B68BDE81040D5
:10AE5000A1F10C00184740F0D9FE94F86B290C4979
:10AE6000003A18BF012281F8512048650028E4D03B
:10AE70001F22C28020213CF0B9FB94F86C39012BD1
:10AE8000DFD1054BC4F87039DEE710BD983A0020D9
:10AE9000A81800200C4400207404002070B44479E9
:10AEA00041BB03684FF400524FF400762025022185
:10AEB0003CBB1A8C22F001021204120C1A841A8B69
:10AEC000188C22F0F30280B2120420F00A00120C57
:10AED000014342F0010241F001011A8319841A8BE7
:10AEE00022F00C021204120C1A831A8B92B270BC5C
:10AEF0001A83704700220368164615461146002C37
:10AF0000D7D0042C21D0082C38D0198C21F48051B2
:10AF10000904090C19849C8B1D8C45F6FF7040F6C2
:10AF2000FF4128402140024342F4805241F48071A5
:10AF300099831A849A8B22F440621204120C9A8329
:10AF40009A8B92B270BC9A8370471A8C22F01002CE
:10AF50001204120C1A84188B198C89B240F6FF4225
:10AF600021F0A00102400D4342F4807245F010052B
:10AF70001A831D841A8B22F44062B3E71A8C22F4E0
:10AF800080721204120C1A84998B1A8C21F0F3012E
:10AF900092B2090422F42062090C324342F4807216
:10AFA00041F0010199831A849A8B22F00C02C4E7C4
:10AFB00038B50E4D0446006808F01CFED5F8402355
:10AFC000204652084FF6FF713BF038FF2046002123
:10AFD000FFF764FF064BC5F8AC3B05F6AC312046E5
:10AFE0000022BDE838403BF037BE00BFA02900205A
:10AFF000A50902082DE9F04F824C94F8FA8B94F8D9
:10B0000005AC87B016460B220546894640461146D8
:10B0100002959DF840701D463CF0ECF8C245834611
:10B0200040F0B0800390404640F0F0FD17F0080378
:10B030000246019300F09A80BBF1000F00F092806D
:10B040009BF80710890700F18D80C4F8C8B9C4F8CF
:10B05000C409C4F8C00910B140F60B31C18005F035
:10B06000020ADFF8B881029B674A84F8885908F51C
:10B07000807100255846C4F8B039C4F89C194FF4C3
:10B0800080733146C4F88429C4F89039C4F89439DF
:10B09000C4F88C6984F88979C4F8B499C4F898899B
:10B0A000C4F8A459C4F8A059C4F8AC59C4F8A859B4
:10B0B000C4F8DC5B84F8E05BA4F8D45B32F010F8F1
:10B0C000D4F8C80907F00101FFF7E8FE4F4A504BDA
:10B0D000D4F8C809C4F8E85BC4F8EC2BC4F8E43B26
:10B0E000BAF1000F25D0D4F8CC7917B33A680368C9
:10B0F0009A421ED001233146384684F8E13B31F0B4
:10B10000EFFFD4F8CC0908F5057229463BF0A4FD01
:10B11000D4F8C8092A4608F507713BF09DFD019B4C
:10B1200093B93C4831F0F4FF3A48012132F028F855
:10B130000AE0394A002302F1080184F8E13B3BF0C0
:10B140008BFD019B002BECD0324831F0EDFF3148F4
:10B1500007B0BDE8F08FCDE90403039B13B1D979A3
:10B160008B0716D5002007B0BDE8F08F15F001035E
:10B17000F1D105F002018A46BAF1000F22D1D4F8CC
:10B18000C8B96EE70B220C2150463CF033F803900F
:10B1900049E7504640F03AFD039AC4F8C82915F033
:10B1A000020ADDE90423C4F8C00905F0020123D036
:10B1B000904219D0C0B140F60C3CA0F806C0BAF1DC
:10B1C000000FDCD0B8F1000FCCD0C4F8C42983B98B
:10B1D000BBF1000FC6D0C4F8C8B912B140F60B33AA
:10B1E000D3805FFA81FACAE7B8F1000FBAD0C4F889
:10B1F000C429C4F8CCB9F0E70028DCD1DDF80CB0E4
:10B200002FE700BF983A0020FC090608993E030882
:10B2100099D103081C4400207C460020684400208B
:10B22000036870B55E6A26B133460522BDE87040FA
:10B23000184704460D464E1D00E023689B682046D3
:10B2400098470028F9D0236815F8011B1B68204691
:10B250009847B542F1D170BD0A44914217D010B45D
:10B260000139541E11F8013F08225840430010F0E4
:10B27000800F08BF400083F0D50314BFD8B2C0B21E
:10B28000013AF3D1A142EDD15DF8044B704770470C
:10B290002DE9F047164D0746002095F9199C05F554
:10B2A000426684B007EB010805F56C6504464FF073
:10B2B000B60A3368ABB193F83830142B11D019F1BA
:10B2C000020F01D04B450CD1002269463046CDE932
:10B2D0000244CDE90078ADF808A08DF80D4033F0B8
:10B2E000E9FBE036B542E4D104B0BDE8F08700BF29
:10B2F000983A0020094B93F86A30042B08D9053B93
:10B30000032B08D801231A4600B10370104670477A
:10B3100000230122F8E700231A46F5E7A0290020C0
:10B320002DE9F0479AB0DDE9226ADDF890900446F5
:10B330000D461746984602E020683DF0ABFB2068BA
:10B340003DF0B0FB0028F7D10146642201A855F07A
:10B35000C4FA264B8DF80450CDF85CA00293002D62
:10B360003FD0AB1E012B3ED9042D14BF0022032277
:10B370001F4B03965B6A8DF805201E440123CDE91F
:10B38000059404968DF85B3037B14246394607A8DC
:10B3900055F042FA8DF85A80164E96F8029F002317
:10B3A0001893B9F1000F19D196F8010F642202FB2E
:10B3B000006001A900F6047055F02EFA012386F80A
:10B3C000019F86F8023F236843B143463A46294627
:10B3D00020461AB0BDE8F04713F0A2BA1AB0BDE893
:10B3E000F0870522C4E70222C2E700BF58490020C7
:10B3F000A0290020983A00209FED727A07EE901A5B
:10B4000020EE070AF8EE677A27EE800AFDEEC07A92
:10B4100017EE903A2033402B00F2C480DFED6A7AB9
:10B42000B4EEE70AF1EE10FAF0EE407A0CDD9FED93
:10B43000676ADFED676AB0EE677AB4EEE67AF1EE3E
:10B4400010FA77EEC67AF6DC9FED627AF4EEC77AF0
:10B45000F1EE10FA0CD59FED5D6ADFED5F6AB0EE9C
:10B46000677AB4EEE67AF1EE10FA77EE867AF6D4E1
:10B470009FED5A7AF4EEC77AF1EE10FA00F38A8063
:10B480009FED577AF4EEC77AF1EE10FA44BF9FEDC4
:10B49000517A77EE677A27EEA76ADFED525A9FED71
:10B4A000527ADFED526AA6EE257A67EE865AE6EE0C
:10B4B000076AB6EE007AE5EEA67A27EE877ADFED28
:10B4C000476A70EE267ABDEEE76A16EE103A203330
:10B4D000402B64D8B4EEE60AF1EE10FA0CDDDFED95
:10B4E0003B5A9FED3B6AF0EE676AF4EEC66AF1EEF6
:10B4F00010FA77EEE57AF6DCDFED366AF4EEE67AFE
:10B50000F1EE10FA0CD5DFED315A9FED336AF0EE13
:10B51000676AF4EEC66AF1EE10FA77EEA57AF6D411
:10B52000DFED2E6AF4EEE67AF1EE10FA3DDDDFEDA6
:10B53000266A76EEE77A67EEA75A9FED2A5A9FEDC4
:10B540002A6ADFED2A6AA5EE856A27EEA55AE5EE9E
:10B55000866AB8EE006AE5EE267A67EE867AC7EE6E
:10B56000206AB7EE006A76EE865A76EE666A86EE56
:10B57000257A80ED091A67EE277A66EE876AC0EDB4
:10B58000017AC0ED037A80ED007A80ED027AC0ED99
:10B59000046A70479FED0C7A77EE677A7BE7DFED00
:10B5A000147ADCE79FED127A89E7DFED0D6AF4EE9D
:10B5B000E67AF1EE10FA44BFDFED066A76EEE77A3E
:10B5C000B9E700BF27D4D236DB0F4940DB0FC940B3
:10B5D000E4CB1641DB0F49C0E4CB16C1DB0FC93FFA
:10B5E000DB0FC9BF92E741B99730083C15A82ABEC6
:10B5F00000000000E14B2DE9F04103F57763E04ED8
:10B60000D3ED000A96F8F043F8EE600A2DED028BB8
:10B61000C6EDFB0A002C6FD1DFF8C4C396F80074A6
:10B62000C6F8FC439CF80040002F39D0B6F8F6333A
:10B630009FEDD46A9FEDD47A07EE903AF8EE677AE0
:10B6400020EE877AC6EE276AD04B0022012F1A60BF
:10B6500076EE876AC7EE267AC3ED017A20D0022FF4
:10B660009A60C3ED037A1BD0032F1A61C3ED057AEC
:10B6700016D0042F9A61C3ED077A11D0052F1A62F4
:10B68000C3ED097A0CD0062F9A62C3ED0B7A07D06E
:10B69000072F1A63C3ED0D7A02D09A63C3ED0F7AB8
:10B6A000BB4B9FEDBC6A93F88A309FEDBB7A9FED50
:10B6B000BB0ABB4A07EE903AF8EEE77A9CF8583B93
:10B6C000C6EE276A1C4414FB07F4E4B207EE904A66
:10B6D00060EE870AF8EEE77AC2ED006AA7EEA00AEC
:10B6E00053F074FEBDEC028BFCEEC07A17EE903A7C
:10B6F00086F85035BDE8F08196F8F1339FEDA96AE0
:10B70000B6F8F2239FEDA82ADFEDA86ADFF8D0C2D1
:10B7100096F80074C6F8FCC307EE903AFCEEE05AC7
:10B72000B6F8F4338CF8004007EE103A15EE903A74
:10B73000F8EE655AF8EE677A86EE255ACCF81430A2
:10B74000012386F8F83306EE102AB8EEC77A27EE02
:10B75000822AB8EE466A67EE266A22EE252A8CED2A
:10B76000025ACCED017A8CED036ACCED046A002F0D
:10B7700096D0DFED8F7A9FED8F4ADFED8F5AC7EEBF
:10B78000871AC7EB0715A7EB07180CEBC5054FEA9F
:10B79000C8084FF0000EB1EE611A9FED886A08EB01
:10B7A00005009FED873ADFED873ADFED876A0346B4
:10B7B000002207EE902AB8EEE77A27EE027AFDEE35
:10B7C000C77A17EE901A2031402900F2D080B4EEEB
:10B7D000C47AF1EE10FAF0EE477A0CDDDFED7B4A29
:10B7E0009FED7B5AF0EE672AF4EEC52AF1EE10FACF
:10B7F00077EEE47AF6DCF4EEE57AF1EE10FA0CD5A9
:10B80000DFED724A9FED735AF0EE672AF4EEC52A17
:10B81000F1EE10FA77EEA47AF6D4F4EEC67AF1EEF1
:10B8200010FA40F39A8074EE677A27EEA75AB0EECA
:10B83000630AA5EE030ADFED684AE5EE004A65EE0D
:10B84000272AB7EE005AE2EEA47AB0EE458AF0EE6F
:10B85000454AA1EEA78AE1EE274AC5EE088A84EEA2
:10B86000880A77EE067ABDEEE75A15EE101A2031F7
:10B8700040296FD8B4EEC67AF1EE10FA0CDD9FEDD8
:10B88000535A9FED537AF0EE674AF4EEC74AF1EE51
:10B8900010FA77EEC57AF6DCF4EEE57AF1EE10FAFE
:10B8A0000CD59FED4A5A9FED4B7AF0EE674AF4EEC5
:10B8B000C74AF1EE10FA77EE857AF6D4F4EEC67A3E
:10B8C000F1EE10FA3CDD74EE677A27EEA75AF0EE3F
:10B8D000632AE5EE032A9FED407AA5EE227A65EE13
:10B8E000274AB8EE005AE4EE877A67EE857A87EE4B
:10B8F000887A0132A24203F1280343ED048A03ED62
:10B90000037A03ED017A43ED028A83ED000AC3ED69
:10B91000056AC3ED026AC3ED016AC3ED046AC3EDB3
:10B92000036AFFF646AF783085427FF43AAF0EF5F2
:10B93000707EBEF5346F05F570757FF42EAF75E639
