:020000040800F2
:10000000F0FF012041CE05083DDC000835B60408AC
:10001000B9CE0508B9CE0508B9CE05080000000024
:1000200000000000000000000000000039DC0008B3
:1000300035DC00080000000031DC0008817804088D
:10004000B9CE0508B9CE0508B9CE0508B9CE050860
:10005000B9CE0508B9CE050839CC040801CC04088E
:10006000C9CB040891CB040859CB040889B605080C
:1000700079B6050869B6050859B6050845B60508F4
:1000800031B605081DB60508B9CE05080000000008
:1000900000000000000000000000000021CB040868
:1000A000595C0408A55C0408495C0408C95C0408A0
:1000B000995C0408895C0408795C040821C8050877
:1000C00029C8050815C805081DC80508B9CE0508C2
:1000D000B9CE0508A1790408E578040800000000FD
:1000E000E9CA0408B9CE05085D0E01080000000049
:1000F00000000000000000000000000009B6050834
:1001000000000000B9CE0508695C0408B9CE0508F6
:1001100000000000000000000000000000000000DF
:10012000F5B50508E1B50508CDB50508B9B505086B
:10013000A5B5050800000000000000000000000058
:10014000000000000000000000000000C5D500080D
:1001500091B505087DB5050869B50508B9CE05084E
:1001600009C8050811C805080000000000000000CB
:10017000000000000000000000000000000000007F
:1001800000000000B9CE05080000000000000000DB
:08019000B9CE0508B9CE05083F
:08019800E0C9050001000000B0
:1001A0000E0201000200000000580020C459002087
:1001B00000000000A8F20608C05900201302010048
:1001C0000400000070210020CC5900200000000035
:1001D000AAF20608C8590020031101000A00000015
:1001E000BC570020D459002000000000A9150108C8
:1001F000D05900200D100100400000006053002085
:10020000E45900200000000065060408E0590020C1
:10021000FD01010024000000D8520020285A0020CF
:1002200000000000F3420408245A0020FB010100F2
:1002300001000000E84D0020505A0020000000009E
:10024000557505084C5A0020FC010100090000000A
:10025000B44C0020585A00200000000065750508C5
:10026000545A0020F701010006000000A84C0020AD
:10027000685A002000000000AEF20608645A002010
:10028000F901010004000000A44C0020745A002071
:1002900000000000C1430408705A00202A02010037
:1002A00008000000B44100207C5A0020000000003B
:1002B000B4F20608785A0020160215003F0000002C
:1002C0002C230020885A002000000000E574050857
:1002D000845A00203400010010000000E440002097
:1002E000CC5A00200000000095700208C85A002077
:1002F0001102010008000000BC400020E05A00206C
:1003000000000000BCF20608DC5A002012120100B6
:1003100004000000B4400020EC5A0020000000005F
:10032000C4F20608E85A0020183001003800000026
:100330007C400020F45A00200000000005760508EB
:10034000F05A00202052010008000000B43E0020B6
:10035000305B002000000000495302082C5B0020A5
:100360000610010024000000482200203C5B002011
:100370000000000081750508385B002000020100C4
:100380000B000000E0350020645B0020000000004E
:10039000C5650508605B0020FF2101000500000025
:1003A000C4350020745B002000000000856505084E
:1003B000705B0020081203000F000000D035002001
:1003C000805B002000000000CD6505087C5B0020FC
:1003D000FE01010014000000F82D0020945B0020B5
:1003E00000000000FD650508905B0020371001004B
:1003F000300000005CB400200CB7002000000000BA
:10040000C8F2060808B70020161001000600000018
:10041000ECA4002040B7002000000000F8F206081D
:100420003CB700202F10010022000000E4B600209D
:100430004CB7002000000000FEF2060848B700207C
:100440002322010010000000DCA1002074B700206E
:100450000000000020F3060870B700201E00010015
:1004600009000000C8A1002088B70020000000009B
:1004700030F3060884B70020052001000C000000BE
:10048000BCA4002098B70020000000003CF3060840
:1004900094B700201230010010000000B0A100202D
:1004A000A8B700200000000048F30608A4B7002009
:1004B000FD0701007C00000056A00020BCB7002012
:1004C00000000000211B0108B8B70020F5910100D1
:1004D0006C00000024A100203CB8002000000000B7
:1004E000093F010838B80020232001001000000057
:1004F000BEB30020ACB8002000000000BD2F0208F1
:10050000A8B80020261001000E000000D0B800207E
:10051000C0B800200000000031190108BCB800205C
:100520000B3001001A0000003CA0002014B900208C
:100530000000000058F3060810B900201F50010009
:1005400024000000A4A2002034B900200000000014
:1005500074F3060830B90020050201000400000011
:100560003CA500205CB900200000000098F30608BC
:1005700058B90020012001000C000000C4C1002077
:10058000B4CC0020000000009CF30608B0CC002092
:100590000C400600E4000000E4BF0020C4CC0020B2
:1005A00000000000C9720308C0CC00200A900100BE
:1005B00024000000A0BF0020ACCD002000000000FF
:1005C000752F0208A8CD00200E300300BC010000EA
:1005D000DCBD0020D4CD00200000000085AD020865
:1005E000D0CD0020131001000400000030CA00200C
:1005F00094CF002000000000A8F3060890CF002050
:10060000010101000400000024BD00209CCF002057
:10061000000000000000000098CF00200001010051
:10062000040000001CBD0020A4CF0020000000003A
:10063000ACF30608A0CF0020020101000300000077
:1006400018BD0020ACCF0020000000000973030893
:10065000A8CF0020220201001C010000F8C70020E2
:10066000B4CF0020000000009D740508B0CF00202A
:10067000020201000300000054C20020D4D0002078
:100680000000000000000000D0D000201B0201008C
:10069000100000001CC20020DCD000200000000080
:1006A000A1650508D8D000201B2001000C00000027
:1006B000F0BA0020F0D0002000000000DDB00108FA
:1006C000ECD0002021020100F000000070B90020F1
:1006D00000D1002000000000C9AF0108FCD00020BC
:1006E0001500100070000000FCEF002088F00020D2
:1006F000000000000000000084F000202A00080034
:10070000600000000CEF0020FCF000200000000062
:1007100021530208F8F000202C0004001000000013
:1007200070F1002060F1002000000000E950020894
:100730005CF10020292014007800000090EC0020DB
:1007400084F10020000000000000000080F1002083
:100750001A0001000E000000E8EB002000F200206B
:1007600000000000B0F30608FCF100202B0012008E
:1007700024000000C4EB002014F200200000000060
:10078000BD50020810F20020F62101000C0000000C
:1007900074E900203CF2002000000000C0F30608CD
:1007A00038F200201C0202001C00000008E90020B2
:1007B00090F2002000000000FD7305088CF200207C
:1007C000283001001600000024E90020B0F20020CB
:1007D0000000000061530208ACF200201400010088
:1007E00005000000F0E80020CCF20020000000002E
:1007F000CCF30608C8F20020F83101000600000022
:100800009CF50020D4F8002000000000D2F3060878
:10081000D0F800200300010001000000ACF500202A
:10082000E0F800200000000000000000DCF80020DC
:10083000101001000200000098F80020E8F80020E5
:1008400000000000D8F30608E4F8002019000100B9
:100850000500000018F50020F0F80020000000005E
:10086000DAF30608ECF8002029020100400000003D
:1008700034FB0020CC05012000000000E0F3060856
:10088000C80501202C02010004000000C402012060
:10089000100601200000000020F406080C060120CC
:1008A0000A0201001400000068010120380601203E
:1008B00000000000558003083406012025201E009A
:1008C0002C010000E402012050060120000000007D
:1008D000000000004C060120031201003D00000052
:1008E0007C050120800701200000000024F4060898
:1008F0007C070120020001000C000000FC07012021
:100900009808012000000000000000009408012069
:1009100028020400040000000811012050130120E7
:1009200000000000C16505084C13012027020400E7
:1009300004000000041101205813012000000000F1
:10094000B5650508541301201F02080010000000BF
:100950003C0E0120601301200000000065650508C1
:100960005C1301201A0201003C000000F408012081
:100970007413012000000000657605087013012043
:100980003820010003000000C4080120B413012036
:100990000000000062F40608B013012027000100E7
:1009A00004000000441401204C1501200000000048
:1009B00066F40608481501200400080080000000C5
:1009C00048140120C81401200000000000000000AD
:1009D000501501201002010001000000E028012054
:1009E000DC280120000000006AF40608D828012055
:1009F0001D02020006000000BC280120E82801209A
:100A00000000000000000000E4280120061203009E
:100A100012000000C4280120F4330120000000006F
:080A200079740508F033012090
:100A28000403090412010002EF0201408304563254
:100A3800000201020301000012010002020200404C
:100A4800830440570002010203010000090220004C
:100A5800010104C032090400000208065005070518
:100A680081024000000705010240000009026400FD
:100A7800030100C03209040000010300000009213D
:100A8800110100012236000705830309000A080B3B
:100A9800010202020100090401000102020100052D
:100AA8002400100105240100020424020205240682
:100AB8000102070582030800FF09040200020A0078
:100AC8000000070501024000000705810240000000
:100AD80009024300020100C03209040000010202B9
:100AE800010005240010010524010001042402026C
:100AF8000524060001070582030800FF0904010018
:100B0800020A0000000705010240000007058102F3
:100B180040000000FF00000000600240106002403A
:100B2800000000000000000000000000000B0000B2
:100B3800000000000000000000000000006002400B
:100B480028600240010000000000000000000000D2
:100B5800060C00000000000000000000000000007B
:100B680000600240406002400200000000000000F7
:100B780000000000100D0000000000000000000050
:100B880000000000006002405860024003000000BE
:100B98000000000000000000160E00000000000029
:100BA8000000000000000000006002407060024089
:100BB800040000000000000000000000200F0000FA
:100BC800000000000000000000000000006002407B
:100BD80088600240050000000000000000000000DE
:100BE80026100000000000000000000000000000C7
:100BF80000600240A0600240060000000000000003
:100C0800000000003011000000000000000000009B
:100C18000000000000600240B860024007000000C9
:100C28000000000000000000362F00000000000057
:100C38000000000000000000006402401064024050
:100C48000000000000000000000000000038000064
:100C580000000000000000000000000000640240E6
:100C680028640240010000000000000000000000AD
:100C7800063900000000000000000000000000002D
:100C880000640240406402400200000000000000CE
:100C980000000000103A0000000000000000000002
:100CA8000000000000640240586402400300000095
:100CB8000000000000000000163B000000000000DB
:100CC8000000000000000000006402407064024060
:100CD800040000000000000000000000203C0000AC
:100CE8000000000000000000000000000064024056
:100CF80088640240050000000000000000000000B9
:100D08002644000000000000000000000000000071
:100D180000640240A06402400600000000000000D9
:100D28000000000030450000000000000000000046
:100D38000000000000640240B864024007000000A0
:100D4800000000000000000036460000000000001F
:100D580000000000000000007D00000085820008FF
:100D6800818200087D820008718200086D82000877
:100D780079820008758200088DA30008C1930008D5
:100D8800758E000825F40008A1F4000869F500082C
:100D98008D8500089D8300089583000801000000E8
:100DA8000000803F31040108090C0108810701088F
:100DB80065860008B18800087586000891860008D5
:100DC8003D8600082D860008000000000000000095
:100DD800000000000000000001000000000000000A
:100DE8000000000002580020000000000100000080
:100DF80000000000000000000000000000000000EB
:100E080000000000000000000000000000000000DA
:100E180000000000000000000100000000000000C9
:100E280005010905A101A1000501093009310932AF
:100E3800093309350934093609371581257F7508BD
:100E48009508810205091901290815002501950849
:100E580075018102C0C0000009022200010100E002
:100E680032090400000103010200092111010001F7
:100E78002236000705830309000A0000140000FF5A
:100E88000000000000000000AA5507010000010151
:100E9800AA55050100007EFFFFFFFFFF2D202D2D25
:100EA800202D2D2D2D202D2D2D2D00000000000092
:100EB8000000000000000000000000084CF70508D2
:100EC800FF1FFF1F000000000102030401020304CA
:100ED80006070809AA550B010000AA5505010000DC
:100EE800AA550902000000AA5503009F010000004E
:100EF800C0120000FFFFFFFF08B90020000000003B
:100F0800E0B800200000000001010000000001011D
:100F1800FF01000001A5010800000000000000001A
:100F28005CF9050800000000000000000000000057
:100F38009C100608000000000000000000000000EF
:100F48005411060800000000000000000000000026
:100F58000011060800000000000000002DC1010873
:100F680008C300200101FF00FFFFFFFF4D0002083A
:100F780000000000000000001C120608B10302086F
:100F88000000000000000000D41106082D202D2DBF
:100F9800202D2D2D2D202D2D2D00000000000000CE
:100FA800000000000000000000000000FFFFFFFF3D
:100FB80075C9010800000000000000002C10060898
:100FC80001000000FA00000001000000010000001C
:100FD8002AC100200000F4010100000028C10020FF
:100FE8000000F4010100000026C100200000F40107
:100FF8000100000024C100200000F40101000000ED
:1010080022C100200000F4010100000020C10020DE
:101018000000F401010000001EC100200000F401DE
:1010280001000000A9AD01086DAD01080000000035
:1010380034FB05080EC10020053201001CC1002048
:101048006400F401010000001AC100206400C40912
:10105800010000000CC10020E803D00701000000D7
:101068000AC10020E803D0070100000008C10020E1
:10107800E803D0070100000006C100201E00B80BDD
:101088000100000014C1002005000F00010000004D
:1010980016C1002003000A000100000004C100205E
:1010A8001E00F4010100000018C100200200000029
:1010B800C0FB050802C10020140064000100000004
:1010C80010C100203200E8030100000000C1002028
:1010D8000000C80001000000E1BF002000C80100B6
:1010E800E0BF002000500100DFBF0020005A0100CF
:1010F800DDBF00200200000028FB0508DC6F0608A1
:10110800E46F060806C300200100C40900000000BF
:1011180004C300200100C4090000000002C300202D
:101128000100C4090000000000C300200100C40938
:1011380000000000FCC200200100C40900000000FB
:10114800FEC200200100C40900000000FAC200200D
:101158000100C40900000000F8C200200100C40911
:10116800000000003FBD002000C801003EBD002077
:1011780000C801003CBD00200000FFFF0A0000007D
:101188003ABD00200100C8000100000038BD002061
:10119800320030753200000036BD00207EFF14009A
:1011A8000500000034BD002005002C0105000000EA
:1011B80033BD0020055A050030BD002000FF0100A6
:1011C80032BD002002000000740800202EBD00205F
:1011D8000300000040F305082FBD002000FF0100B8
:1011E80031BD002002000000740800202DBD002041
:1011F8000300000040F3050890BC0020FF7F0100B9
:101208008CBC002000000000FFFFFFFF0100000071
:1012180088BC002000000000FFFFFFFF0100000065
:1012280084BC002000000000FFFFFFFF0100000059
:10123800FDAC01088DAC01080000000010FC050899
:10124800D4C10020EE02CA0801000000D2C100206B
:1012580000C8010064000000D1C1002002C80100DC
:1012680064000000D0C1002002000000CCFB05088B
:101278002ABD00200000803E0500000028BD002097
:1012880080C1803E0500000022BD00200083007D53
:101298000500000020BD002080C1803E0500000040
:1012A8001BBD002000FF010014BD00206400F401F4
:1012B8000100000012BD00206400F40101000000DC
:1012C80010BD00206400F401010000000EBD0020E4
:1012D800040000001CFD05080DBD002002000000F0
:1012E80030FD0508CBBD00200D0000003CFD0508C1
:1012F800C8BD002000640100C6BD002032001027D0
:101308000A000000C4BD00200D0000003CFD0508D7
:10131800C3BD00200D0000003CFD0508C2BD002033
:1013280002000000D8FB0508D9C1002046000000D3
:1013380074FD0508D7C100200300000090FE0508D1
:10134800D8C1002004000000E4FB0508CDBD002042
:1013580003000000A0FE0508CCBD0020030000002B
:10136800A0FE0508CEBF0020000A0100CCBF002067
:101378000000E80301000000CABF00200000E803E5
:1013880001000000C8BF0020000A0100C6BF0020FD
:101398000000E80301000000C4BF00200000E803CB
:1013A8000100000098BF0020C800E8030100000009
:1013B8009EBF00201400FA00010000009CBF00201E
:1013C8000100E803010000009ABF002000050100A9
:1013D800DCBF002002000000F8FB0508DABF00208F
:1013E8000000F40101000000D8BF00200000F40153
:1013F80001000000D6BF00200000F4010100000039
:10140800D4BF00200000F40101000000D2BF00207A
:101418000000E80301000000D0BF00200000E8033E
:1014280001000000EEC00020006401000A00000076
:10143800EDC00020006401000A000000DBC00020AD
:1014480019640100DAC000200200000004FC05084D
:10145800D8C00020E803D0070A000000D6C000204A
:10146800006401000A000000CBC0002000640100F5
:10147800CAC0002000640100D2C00020006401003E
:101488000A000000D1C00020006401000A0000002A
:10149800D0C00020006401000A000000D5C0002070
:1014A80000FF01000A000000D4C0002000FF010076
:1014B8000A000000D3C0002000FF01000A0000005D
:1014C800CFC0002001FF01000A000000CEC00020AC
:1014D80001FF01000A000000CDC0002001FF01004B
:1014E8000A000000D6BD00200000F4010100000041
:1014F800D4BD00200000E80301000000D2BD002098
:101508000000E80301000000D0BD00200000E8034F
:1015180001000000CEBD00200000E803010000002B
:1015280059C300200096010050C3002000C80100E4
:101538004FC30020006401004EC300200064010076
:101548004DC30020006401004CC30020006401006A
:101558004BC30020FF0801004AC3002001640100BA
:101568007DAB010841AB010800000000B0FE050892
:1015780053C300200132010052C3002001000000C3
:1015880020FF050851C300200400000028FF0508BB
:1015980049C300200096010048C3002000640100F0
:1015A80046C300201400E8030100000044C30020E3
:1015B800000030750A00000042C3002000C8010086
:1015C80041C3002000C8010040C3002000C801003A
:1015D80056C300200032010058C300200014010047
:1015E80057C30020004B010055C300200400000031
:1015F8003CFF050854C30020006401000A000000F5
:10160800FAC000200AC805000A000000F9C000203E
:10161800010000004CFF0508FCC000200AC80500B6
:101628000A000000FBC00020010000004CFF050874
:10163800F1C0002000C805000A000000F8C0002022
:1016480000C805000A000000F2C0002000C805001C
:101658000A000000F3C0002000C805000A000000CE
:10166800F6C0002000C805000A000000F7C00020EE
:1016780000C805000A000000F5C0002000C80500E9
:101688000A000000F4C0002000C805000A0000009D
:10169800F0C000200200000054FF050868C30020C5
:1016A8000000D0070100000062C3002000C801004C
:1016B80061C3002000C8010060C3002000C8010009
:1016C80066C300200000D007010000005FC30020AF
:1016D80000C801005EC3002000C801005DC30020EF
:1016E80000C8010064C300200000D007010000000A
:1016F8005CC3002000C801005BC3002000C80100D3
:101708005AC3002000C80100048106080000000038
:10171800000095CC00201081060807080000000092
:10172800780E002018810608070800000000700ED7
:10173800002020810608070800000000680E00202D
:10174800288106080808000000005C0E0020E86AEE
:101758000608070800000000540E0020F06A06087A
:101768000708000000004C0E0020F86A0608070869
:1017780000000000440E0020A46B060808080000C2
:101788000000380E00203081060807100000000015
:10179800300E002038810608071000000000280ECF
:1017A800002040810608071000000000200E0020DD
:1017B80048810608081000000000140E0020446F3D
:1017C8000608010000000000000000000000000002
:1017D80010000000000000000000000005A901083A
:1017E800E9A8010851C9010860FF0508BFBD00202C
:1017F800005A0100BEBD002000C80100BCBD002089
:10180800E803D0070100000000000000000000000D
:101818006DC10108FCFF0508F6C2002003000000A6
:101828005000060825A80108D9A7010800000000F3
:101838006000060899A7010851A7010800000000E8
:10184800FC00060871A8010835C90108000000005D
:101858007C0106082CBD002001030100C5A4010875
:101868009DA4010800000000F004060885AE0108E8
:1018780059AE01080000000070050608E1A601083D
:1018880089A6010800000000E005060815A901085E
:10189800E10B0208000000009806060885CD010843
:1018A800B1AE0108000000004007060871A9010850
:1018B8000000000000000000CC07060855AA010837
:1018C800F5A901080000000030080608FDAA010873
:1018D800B9AA010800000000E8080608DD2D020882
:1018E800B9AB01080000000074090608FEC000201A
:1018F80001060100B9A9010885A901080000000036
:101908008C0A0608F92C0208FDCA0108000000002C
:10191800FC0A0608E9AB01081DCC0108000000001C
:10192800780C0608212E0208DDCB01080000000013
:10193800800E0020FDC0002001030100B9A80108A5
:1019480089A8010800000000840D0608D5C8010810
:101958000000000000000000E80D060839A7010893
:101968001DC9010800000000840E060800000000E0
:101978000000000000000000F40E060865AC010835
:1019880069CD010800000000740F0608000000007F
:1019980000000000000000009C1106085CA2002066
:1019A8009CFF2C0100000000A8C90020E0150C17BE
:1019B80000000000B1C9002002000000D41406088D
:1019C80008BD002088136F17010000000ABD002021
:1019D80088136F1700000000F05700200000000077
:1019E80000000000EE57002000000000000000008A
:1019F800EC5700200000000000000000EA5700201B
:101A08000000000000000000E8570020000000006F
:101A180000000000E6570020000000000000000061
:101A280068060020000000000000000091BC0020B3
:101A380003000000B812060800BD002088136F17C5
:101A48000100000032A5002088136F170000000075
:101A5800C9A501080000000000000000C81206081F
:101A6800C1C20020010000001C13060834A5002094
:101A780001000000281306082AA500200200000023
:101A880030130608000000000000000000000000FD
:101A98003C130608B1A50108000000000000000082
:101AA800D813060800000000000000000000000035
:101AB8002C140608000000000000000000000000D0
:101AC8009C1406080CBD002002000000D41406086F
:101AD8002EA50020E0150C170000000048E40020A7
:101AE8009CE4002001F11F3FD601FF010100000026
:101AF8000001010100000000A86B0020FFFFFFFFAC
:101B08000000803F0000000000000000000000000E
:101B180000000000000000000000000000000000BD
:101B280000000000000000000000803F00000000EE
:101B380000000000000000000000803F00000000DE
:101B480000000000000000000000803F00000000CE
:101B58000000000000000000010000000000FA433F
:101B68000000FA430000803F590C04080000000000
:101B78000000000000000000000000002406012012
:101B88000800000000000000140601200800000002
:101B9800FFFFFFFFFF000000D18C0008C18700088D
:101BA800610701080000000029860008FD030108FC
:101BB800858C000871030108000000000000000087
:101BC800E58500089582000889820008C1FA0008A6
:101BD800DDFA0008A5FA000889FA00086DFA00087D
:101BE800898C00089D870008AD06010800000000E8
:101BF800FD85000875030108598C0008CD0201080D
:101C08000000000000000000F1850008109606089A
:101C1800446C06080000000091730308A0860100C8
:101C28000400000010960608189606080000000038
:101C380071510408E803000004000000E875060874
:101C48000000000000000000117503087D0000007E
:101C5800FF000000EC730608000000000000000010
:101C6800C58503087D000000FF00000018790608FC
:101C78000000000000000000712F03087D00000034
:101C8800FF00000080760608000000000000000049
:101C980079480408E80300000300000020960608BD
:101CA8000000000000000000551103081027000084
:101CB8000300000034E90608000000002D4F020868
:101CC80099B604085F76000005000000E8EC0608F5
:101CD800000000000000000075D90408102700006B
:101CE800020000002C96060800000000000000001A
:101CF80089410408E803000005000000389606083A
:101D08000000000000000000A9820308204E000027
:101D180003000000489606080000000000000000CC
:101D280091800308204E0000030000005896060822
:101D38000000000000000000BD4D0408400D030035
:101D48000300000084940608000000000000000062
:101D5800D50904081027000002000000706C06086E
:101D68000000000000000000ADE20108102700009C
:101D7800030000006896060800000000000000004C
:101D880039AD0408A086010002000000947406081A
:101D980000000000000000006974040850C300003F
:101DA8000200000040720608000000000000000069
:101DB800E5430408A861000002000000A09406089A
:101DC8000000000000000000E17E0408A00F0000F1
:101DD80002000000709606080000000000000000E5
:101DE800F90602081027000002000000F482060825
:101DF80000000000D51A0108AD8B010885450100D7
:101E08000200000000720608000000000000000048
:101E1800E11501081027000002000000586C0608B0
:101E280000000000000000003515020850C3000043
:101E3800020000007C960608000000000000000078
:101E4800AD260108400D0300010000008496060835
:101E58000000000000000000B1E90308400D030085
:101E6800020000008C960608000000000000000038
:101E7800E5F1010850C30000030000009896060829
:101E88000000000000000000A9B2030840420F0053
:101E980001000000A49606080000000000000000F1
:101EA800D1EB030850C3000001000000B0960608FB
:101EB8000000000000000000657201081027000003
:101EC8000200000011EB0308000000000000000001
:101ED800000000007141040800000000000000003C
:101EE80000000000685E0C0002010000A00F000066
:101EF800B80B00000102FFFF01000000FFFF000017
:101F080010E90608000008020503030000000000AD
:101F18001CE906080100080205040300000000008F
:101F280028E9060800000802050303000000000075
:101F380030E906080100080205040300000000005B
:101F4800F49306080200FE010110030000000000DF
:101F580034730608030014020003000000000000A8
:101F680038E9060804001F0202000800000000000B
:101F780040E9060805001F020201080000000000F1
:101F8800FFFFFFFF1A030000000000000000000030
:101F98000000000000000000000000000000000039
:101FA80004030904120100020000004083042057C2
:101FB8000002010203010100000004010000020008
:101FC800010000021000000007000000F179050878
:101FD8001D7A0508E179050829660508917905083B
:101FE8003D79050825660508C81700205D8D00089D
:101FF8007D870008C90401080000000000000000F7
:10200800A5020108C101010800000000000000004D
:1020180000000000D9850008B1660508A566050816
:102028006D7A0508897A05085D660508517A0508FC
:10203800357A0508FF0100007864060800000000F2
:10204800000000000102030406070809010000005F
:10205800008002021F00000053544D202020202041
:1020680050726F64757420202020202020202020AA
:10207800302E3031FF000000F4170020000000006F
:102088000000000000000000000000000000000048
:102098000000000000000000000000000000000038
:1020A8000000000000000000000000000000000028
:1020B8000000000000000000000000000000000018
:1020C8000000000000000000000000000000000008
:0C20D800000000000000000000000000FC
:082800000000000000000000D0
:10800000024B9A6D136A002BFCD170475818002060
:1080100030B51349134B8DB00825012201F15800EA
:10802000069381F8F05000230DEB05010DF10704D4
:10803000CDE90733CDE9034202938DF8143009935B
:108040000B938DF8282044F031FFFFF7D9FF9DF8FE
:108050000700A0F1FF00B0FA80F040090DB030BD7C
:108060005818002069800008826D136A5B681B78CD
:10807000FF2B08D090F8F030013BDBB280F8F030F5
:108080001BB10120704700207047126A526802201D
:108090001370704770B4C3080D4CE25C00F0070623
:1080A000B24004EBD004D2B20020C6F108038B42E8
:1080B00028BF0B46C3F108052A419840C91A40EA77
:1080C00002004FF0000614F8012FEED170BC70478B
:1080D00098180020084AD2E93D3199420AD0D118B7
:1080E000013391F8FC100170C3F30A03C2F8F430B5
:1080F000012070470020704758180020044BD3E936
:108100003D30C01AC0F30A00C0F50060704700BFE0
:1081100058180020012380F85130704707B501A896
:10812000FFF7D8FF0028FAD09DF8040003B05DF8EF
:1081300004FB034BD3E93D30C01AC0F30A0070477B
:108140005818002001207047024BC3F8FC28C3F8E0
:108150000019704758180020024BC3F80429C3F8CF
:1081600008197047581800207047704730B4114DF7
:10817000D5E93D239A1AC2F30A020A44B2F5006F08
:1081800013D8A9B101444A1E013810F8014FE9186B
:10819000824203F1010381F8FC40C3F30A03F4D1E6
:1081A000C5F8F830002030BC7047022030BC704762
:1081B0000846F8E758180020212838B50C4605D0A5
:1081C00022282ED0202813D0002038BD0029FBD033
:1081D000072AF9D11A4BD3F80C0993F8101993F820
:1081E000112993F81239206021716271A371EBE7B4
:1081F0000029E9D0072AE7D1114DD5F800391BB184
:108200000968D5F8FC089847206821796279A37934
:10821000C5F80C0985F8101985F8112985F8123967
:10822000D2E70029D0D0022ACED1054AD2F80839A7
:10823000002BC9D00988D2F804099847C4E700BFC9
:1082400058180020024B0020C3F81409704700BFE3
:1082500058180020044B00200522C3F81429C3F845
:108260000809C3F80009704758180020704700BF7C
:10827000704700BF704700BF704700BF704700BF26
:10828000704700BF704700BF042301480B80704750
:108290009801002010B4074A074B92F818091224DD
:1082A00003F114020C8001280CBF184610465DF83B
:1082B000044B7047581800209C010020A0B1826830
:1082C0000D4B12B107229A7070471978DA600329B2
:1082D0004FF004000CBF80214FF48071C3E90111FD
:1082E0001A611A7598707047034B41F2E4710122CC
:1082F0005A545A70704700BF588200200378022BEE
:1083000010D0006908B9012070470C4B1B78032B73
:108310000EBF0B4B80B24FF6F773984294BF00200C
:10832000012070470549436841F650028A58B3EB73
:10833000422F2CBF01200020704700BF5882002030
:10834000F7FFFF0F0378022B14D030B4104A4368B4
:10835000006941F6480402F5C2511559096841F611
:108360003C042B4012595B0A023801FB00301044D8
:1083700030BC7047064B426841F6340141F630008C
:108380005958185800EB410000EB5220704700BFCD
:10839000588200200048704780180020034B93F853
:1083A0002400032894BF00200120704758180020A3
:1083B00070B592B00B0E0D0C40F0400695220446AD
:1083C0008DF80810080A01A98DF805308DF80650BF
:1083D000002306258DF807008DF809200DF1030014
:1083E0000122039114498DF80460CDE90733CDE9EA
:1083F0000D33CDE9090204938DF818308DF82C3037
:108400000F93119305958DF840200C91FFF700FE16
:1084100000B974B9094B082203F1580003A983F885
:10842000F02044F043FDFFF7EBFD9DF8030012B090
:1084300070BDFF2012B070BD4184000858180020A4
:10844000836D1B6A5B681B78FF2B0AD190F8F030B4
:10845000002B03F1FF3380F8F03014BF012002201D
:1084600070470020704700BF30B51049104B8DB0E9
:108470000546012201F15800069381F8F0500023CF
:1084800002A90DF10704CDE90733CDE903420293B8
:108490008DF8143009930B938DF8282044F006FDD5
:1084A000FFF7AEFD9DF807000DB030BD5818002055
:1084B0004184000870B51B4D90B00024FD220126B8
:1084C0000DF1030305F1580001A98DF8032006936F
:1084D000CDE90144CDE90A44CDE90C442C628DF884
:1084E0001040059407948DF824400F940396089645
:1084F0008DF8386044F0DAFCFFF782FD3046FFF774
:10850000B3FFFF2808D0D5F81C396B61204609233A
:1085100085F8243010B070BD0423022085F8243083
:1085200010B070BD5818002070B5064690B00820F5
:108530000D46FFF799FFFF2822D0FE2802D0022027
:1085400010B070BD0024022201230F48089201A937
:108550008DF83830CDE90544CDE90A44CDE90C4425
:108560000296039501948DF8104007948DF82440ED
:108570000F9444F09BFCFFF743FD204610B070BD04
:10858000012010B070BD00BFB0180020034B93F85D
:108590002400003818BF0120704700BF5818002081
:1085A00010B40C4A92F8203902EBC3010133DBB25C
:1085B000042B4FF0050408BF00234FF4045081F84A
:1085C000244982F82039C1F828095DF8044B4FF09E
:1085D000FF30704758180020202301480B80704757
:1085E000C4010020642301480B807047E40100208F
:1085F000432301480B8070474802002010B5084C07
:10860000D4F8F400FF2809D00649D1F8442901F62E
:108610004811FFF7D1FDFF23C4F8F430002010BD4E
:108620009801002058180020E8E700BF08B5D0F8EE
:10863000E4355B6A9847002008BD00BF08B5D0F854
:10864000E4351B6A9847002008BD00BFD0F8E43528
:1086500010B504461B689847D4F8E8359B689847DE
:10866000002010BD08B5D0F8E435DB6903B19847A8
:10867000002008BD08B5042290F81211D0F8E835A2
:1086800080F8131180F81221DB689847002008BD9C
:1086900010B5D0F8E83504461B699847032384F8E1
:1086A0001231002010BD00BF0B0617D401EB81036F
:1086B00000EBC30310B400EB81000124002283F817
:1086C000764383F8741383F87523426D5DF8044B89
:1086D000136843F4001300201360704701F07F011A
:1086E00001EB810300EBC303012200EB810083F85F
:1086F0001C1183F81E2183F81D2182691368002B49
:1087000001DA43F0804343F4001313600020704704
:108710000B0630B41CD401EB810200EBC202002333
:1087200000EB810582F8741382F8753301241A4630
:1087300004FA01F16D6D61F31F4201696FF3CF33EC
:108740002B60CB6923EA0203002030BCCB61704769
:1087500001F07F0101EB810400EBC404012200EB76
:108760008105002384F81C1184F81D2102FA01F10F
:108770001A46AD6961F30F02DFE700BF10B5812132
:108780000446FFF7C5FF20460121FFF7C1FF024B5A
:10879000002083F8500910BD5818002010B5812121
:1087A0000446FFF7B5FF20460121FFF7B1FF822104
:1087B0002046FFF7ADFFFFF745FD002010BD00BFCD
:1087C00038B50D4604468321FFF7A2FF294620460F
:1087D000FFF7E4FF002038BDF0B416460A063AD48D
:1087E00001EB810500EBC5052824002204FB0104F0
:1087F000022B85F87413C5F87C6385F8773385F808
:10880000752304F55D7448D0154600EB81070122FD
:1088100002FA01F17F6D61F31F45D7F800C01CF427
:10882000004F11D1E488204946F0805242F40042C2
:1088300042EA834204F00F041C4B42EA8452114086
:108840000CEA0303194339600269D3692B43002002
:10885000F0BCD361704701F07F0101EB810500EBB3
:10886000C5052824012204FB0104022B85F81C11F4
:10887000C5F8246185F81F31A5F8221185F81D215E
:1088800004F58E740CD0002500EB8107012202FA5A
:1088900001F1BF6961F30F05BFE722711546B4E727
:1088A00000252571F0E700BFFF87CC13007833EC7B
:1088B000002310B5194604464022FFF78DFF8021A2
:1088C000204600234022FFF787FFD4F8E835A07840
:1088D000012284F812215B689847002010BD00BF78
:1088E00082B00023016801930B6901930E4B03E0F2
:1088F0000A690192013B13D0019A002AF8DA019A21
:10890000094B42F001020192019A0A610A6901923F
:1089100003E00A690192013B02D0019AD207F8D420
:10892000002002B0704700BF400D0300436D064AAF
:108930001A61C278012A06D100F2CC5058614FF07A
:10894000802219681A6070471800086010B58021ED
:108950000446FFF7A9FE20460021FFF7A5FE2046AA
:10896000BDE81040E2E700BF70B44B78012B26D081
:108970000B784A6900EB83035C6D25682369D2B1EB
:108980008A684A6102F07F0223F4002323F07F0308
:1089900042F4002213432361C378012B04BF0B6907
:1089A0006361C5F3076363F07B0363F31F652560B1
:1089B000002070BC70478A6802F07F02E4E7826999
:1089C0004C691568136944B38E68B4428CBF06F0D5
:1089D0007F0404F07F0423F4002323F07F0344F496
:1089E000002443EA040388BF4E611361C378012B5E
:1089F0001DD0C5F3076464F07B0464F31F65156044
:108A0000002BD5D14B69002BD2D002690878516B6D
:108A1000012383400B435363CAE723F4002323F06D
:108A20007F0343F400231361C378012BE1D10B785A
:108A30000C6900EB8300C5F30763816963F07B0376
:108A400063F31F654C610020156070BC704700BF68
:108A50002DE9F0434B78012B30D00B784C6900EBBB
:108A600083035E6D356837691CB38B681C44013C19
:108A7000B4FBF3F4C4F3090203FB02F3C3F31203E0
:108A80004B61144643EAC44363F31C073761C37860
:108A9000012B04BF0B697361CB78012B44D0C5F364
:108AA000076363F07B0363F31F6535600020BDE857
:108AB000F0838A680124C2F31203E3E791F800808F
:108AC0004E6900EB880EDEF818C0DCF80050DCF8C8
:108AD000107076B3D1F80890384A06EB0904013CCF
:108AE000B4FBF9F402EAC444C6F312022243CC7880
:108AF00007F060473A43012C174649D0CCF81020C4
:108B0000C278012A55D00269516B03FA08F30B436E
:108B10005363C5F3076363F07B0363F31F65CCF80E
:108B200000500020BDE8F0834B7973B345F0005549
:108B3000B5E707F0604747F40027CC78CCF8107011
:108B4000C378012B2FD0012CE3D102699268D205A2
:108B500054BF45F0005545F08055C5F3076262F0FB
:108B60007B0262F31F65CCF80050002B9ED1B0B29F
:108B700003308010DEF8D04098D0CA6852F8041B49
:108B8000216001339842F9D190E745F0805586E79E
:108B900064F35E77CCF81070C378012BD5D10A69E5
:108BA000CCF81420D1E70A69CCF81420012CB0D1FC
:108BB000CBE70B69CCF81430ABE700BF0000F81F1F
:108BC00038B501EB810400EBC4040D46002184F8A4
:108BD0007453C4F88C1384F87513C4F88833C4F83C
:108BE0008023C3782821012B01FB050108BFEDB2CA
:108BF00001F55D7108BFC4F884231DB9FFF7B4FE09
:108C0000002038BDFFF724FF002038BD70B5104BA1
:108C1000D3F85C2993F8745904461AB193F8603973
:108C20002B430DD081212046FFF73EFD022D00D0C1
:108C300070BD2046074ABDE870401F230121BFE7F1
:108C40000121FFF731FD20468121BDE870402BE571
:108C500058180020AC21002010B501EB8101084A12
:108C600000EBC1010446B1F88C131046FFF77EFA01
:108C7000034A204640230121FFF7A2FF002010BD38
:108C8000D0210020E8E700BF10B5022304464022AF
:108C90008121FFF7A1FD2046022340220121FFF799
:108CA0009BFD8221204603230822FFF795FD064BFA
:108CB00002229A83FFF7CEFA044A2046402301217C
:108CC000FFF77EFF002010BD98010020D02100207A
:108CD00038B509220D46044603238321FFF77CFDA6
:108CE00029462046FFF7D0FF002038BD82B0002380
:108CF0000193019A094B42F010020192C168019A56
:108D00000A610A69019203E00A690192013B02D0FB
:108D1000019AD206F8D4002002B07047400D03003B
:108D200082B000230193019A0B4B42F02002019282
:108D3000019A61F38A120192C168019A0A610A6973
:108D4000019203E00A690192013B02D0019A920666
:108D5000F8D4002002B07047400D030070B50446FF
:108D6000144EFFF70BFD2046022340228121FFF71E
:108D700033FD4022012120460223FFF72DFDD6F8C6
:108D8000B83900251B6886F85059284686F874596A
:108D900098472046FFF7AAFF20460121FFF7C0FFB2
:108DA000204606F654121F230121FFF709FF28462B
:108DB00070BD00BF5818002070B5254C8AB0002344
:108DC00001224FF48071CDE90433CDE90633A56D5E
:108DD00000900193099302918DF80C208DF82020CA
:108DE000EFF31180102383F31288A36D1B6A0BB37A
:108DF000029B6E4632461BB1D3691432002BFBD165
:108E00002B6A0BB3996839B993420AD0196829B112
:108E10005B6899680029F7D01433F3E70D4AC3E97A
:108E20000026C0B280F31188A26D136A002BFCD11A
:108E30000AB070BDC0B2C5F820D080F3118804F12B
:108E4000580052F0DBFCEFE7024A1A60FFDE00BF79
:108E500058180020B018002008B5FFF7D1F80A20F4
:108E60003EF010FA024B186EBDE8084042F0BABB63
:108E7000581800202DE9F843194C94F82460042E6A
:108E80000546894690461F4608D0082E02D000208D
:108E9000BDE8F883FFF70EFB0228F8D1206E42F000
:108EA0009BFBA37E93B969021120FFF781FA98B961
:108EB000D4F81C39C4F800900522C4E90387656022
:108EC00084F8242063610120BDE8F883294611203D
:108ED000FFF76EFA0028EBD0FFF7BEFFD7E700BF21
:108EE000581800202DE9F04FDFF88CA3D34D5646DB
:108EF00086468C4617460FCE05F6BC142DED068B24
:108F00000FC40FCE0FC496E807008BB095F8F23966
:108F1000059784E80700CDE906EC042B00F24681B2
:108F2000DFE813F0B90144013F010500C9019FEDDD
:108F3000C48ADFEDC48AC449C5F8D819C349C44BF3
:108F4000C44AC5F8D4190599002918BF134638EE4C
:108F5000887AF5EE006AC6EE879ABF4EC5F8E0390A
:108F6000A6F1120B06F1C0080027DFEDBC7A9FEDD9
:108F7000BC9A28EE278AB0EE67AA079BBB4200F096
:108F80000A811BF8012BAB1893F8F749002C00F06D
:108F90001281002102E0152900F00D8101EB410052
:108FA0004B0018F800C0A44501F10101F3D1284499
:108FB00090F8D51A002900F06C812046CDE90323F2
:108FC0003DF0DEF8DDE9032381464846CDE9032381
:108FD0003DF01AF990F800C0BCF1000F40F0EB80B2
:108FE000039A049B01322B44D2B2032183F8152B40
:108FF00083F8141BB9F1000F00F0DD802309013B59
:10900000032B04F00F0000F208810AEB4304B4F8CC
:109010002CC04CFA00F414F0010400F03881012453
:1090200004FA00F0013800EA0C00CDE9032353F004
:109030008FFD049BDFF844C2039A5344032193F845
:10904000343018440CEBC00373619971DA715CF829
:10905000300099F8082000F13F4101F57E010AEB4C
:10906000912191F8381001F01F0C4909032904FAE5
:109070000CF400F0DC80042900F0D280022900F01A
:10908000FF809B880893B3FA83F3C3F11F03C3F3F4
:10909000CC0100EB810103F007030C6A9B004FF049
:1090A0000F0C0CFA03FC24EA0C040C620C6A02FAA2
:1090B00003F323430B62022308A909930CF01CF865
:1090C000059B002B00F08380B5F8F039D5F8C81C5B
:1090D00007EE903AF8EEE77AFCEEE77A17EE900AA0
:1090E000B1FBF0F202F57F42FF32120CB1FBF2F25B
:1090F00095F8F219B2FBF0F0042983B27ED007EEA6
:10910000902AF8EE676A66EE887A29EE677A95F813
:10911000F30906990091A8EEA67A019049463046D7
:10912000C6ED027A86ED037A31F078FC002F70DD0F
:109130007368D5F8182A93426DD0012F69D0D5F8FD
:10914000302A934267D0022F63D0D5F8482A934241
:1091500061D0032F5DD0D5F8602A93425BD0042FF5
:1091600057D0D5F8782A934255D0052F51D0D5F84D
:10917000902A93424FD0062F4BD0D5F8A82AD31A65
:1091800018BF012301370122082F3374727406F1CE
:1091900018067FF4F2AE33480BB0BDEC068BBDE889
:1091A000F08F9FED318AF0EE488AC4E69FED2F8A5A
:1091B000F0EE488ABFE62E4A264BC5F8D829002093
:1091C000C5F8E0390BB0BDEC068BBDE8F08FB0EE12
:1091D000690A54F0EFFBFCEEC07A4FF6FF7317EE0E
:1091E000902AD5F8C81CB1FBF2F21A44120CB1FB5C
:1091F000F2F295F8F2190429184680D107EE900A88
:1092000007EE102AF8EE677AF8EE476A67EE8A7A78
:109210007BE70123B6E70023B4E7C6F814C04FE7A5
:109220001449D1F830C044EA0C040C6329E7114911
:10923000D1F840C044EA0C040C6422E7581800201E
:10924000ACC5A737ACC5A736DD730308894304084E
:109250004D7003087D4304086C2200206F12833A8E
:1092600000007A4414220020282930386F12033974
:109270009D710308003802407CF105089823002006
:109280000E49D1F844C044EA0C044C64F9E6746118
:1092900016E7894699E69FED0A8A0A4A0A4BC5F8FD
:1092A000D829C5F8D43900220123CDE90532F0EEE2
:1092B000488A064B4BE69FED068AEEE700380240EF
:1092C0006F12833ADD730308894304087D43040861
:1092D0000000000070B5144C94F8CC3C002BFBD17E
:1092E000F9B101444E1E451E02E001203EF024FA71
:1092F000D4F8D03CD4F8D42C0133C3F30A039342FE
:10930000F3D0D4F8D02CD4F8D03C15F8011F224467
:109310000133C3F30A03B54282F8D81CC4F8D03C29
:10932000E6D1002070BD00BF5818002010B5094CD0
:10933000D4F81439084611465BB1D4F81439052B1A
:1093400007D1002AD4F81C3903DDFFF7C3FFD4F896
:109350001C3910BD5818002010B590F8501000238B
:1093600080F8503081B10B4CD4F8142972B1D4F884
:109370001429052A0CD13C30D4F81C39FFF7AAFF78
:10938000D4F81C39012010BD0120FCE71046FAE793
:109390001846F8E758180020002280F85120DBE733
:1093A00090F85020531C0244DBB280F8503082F811
:1093B0003C1090F851200AB1132B00D9CCE770472C
:1093C000F0B50379264C002B14BF012200228BB08C
:1093D00084F8502003D184F824300BB0F0BD05464A
:1093E00090F9001004F1580043F0D6FEAD785DBB53
:1093F00001271C482566C4F8EC4084F8647043F0EB
:109400000BFF194E03464FF47A70A4F85C303EF01F
:1094100093F9206E42F0E6F80FCE6D460FC50FCEE1
:109420000FC596E8030085E803001048694643F03D
:109430003DFDFEF7E5FDD4F81C2984F824700023D7
:10944000626123760BB0F0BD284641F0F3FD05467E
:1094500008B11E23C380092128463DF007F9C7E75C
:1094600058180020801A0600BCF10508B01800202A
:1094700000F01F0240090123032803FA02F304D07D
:1094800004280CD0022805D07047074A116C0B4302
:1094900013647047044A516C0B4353647047024A8B
:1094A000116B0B431363704700380240002845D00E
:1094B00003682A4A03F13F4101F57E0102EB912244
:1094C000F0B592F8382002F01F0452090121032A56
:1094D00001FA04F13DD0042A36D0022A2FD000220E
:1094E000B0F804C011460126032706FA01FE3EEA41
:1094F0000C0001F101011CD11D6807FA02F425EAF4
:1095000004051D60186806FA02F505431D609D6894
:1095100025EA04059D6098689860586820EA0E0066
:10952000586058685860D86820EA0400D860D86845
:10953000D860102902F10202D7D1F0BD7047084A65
:10954000546C21435164CAE7054A146B21431163EB
:10955000C5E7034A146C21431164C0E77CF1050898
:1095600000380240002800F0638103689D4A03F13F
:109570003F4101F57E0102EB912210B492F83820B0
:1095800002F01F0452090121032A01FA04F100F03C
:109590006281042A00F05681022A00F04A81828802
:1095A000D40700F13381900700F11E81510700F1CB
:1095B0000781140700F1F280D00600F1DD809106EA
:1095C00000F1C880540600F1B380100600F19E80BF
:1095D000D10500F18980940574D4500561D411053A
:1095E0004ED4D4043BD4900428D4510415D412048E
:1095F00002D45DF8044B70471A685DF8044B22F002
:1096000040421A601A681A60DA6822F04042DA6052
:10961000DA6842F08042DA607047196821F0405100
:10962000196019681960D96821F04051D960D9686A
:10963000120441F08051D960DBD5DDE7196821F0D3
:109640004061196019681960D96821F04061D960DA
:10965000D96841F08061D9605104C8D5DDE7196847
:1096600021F04071196019681960D96821F04071C2
:10967000D960D968900441F08071D960B5D5DDE733
:10968000196821F44001196019681960D96821F43A
:109690004001D960D968D40441F48001D960A2D5D1
:1096A000DDE7196821F44011196019681960D9685B
:1096B00021F44011D960D96841F48011D9601105B5
:1096C0008FD5DDE7196821F4402119601968196008
:1096D000D96821F44021D960D968500541F480212E
:1096E000D9607FF57CAFDCE7196821F4403119605F
:1096F00019681960D96821F44031D960D968940596
:1097000041F48031D9607FF568AFDBE7196821F457
:109710004041196019681960D96821F44041D96045
:10972000D96841F48041D960D1057FF554AFDBE7BA
:10973000196821F44051196019681960D96821F439
:109740004051D960D968100641F48051D9607FF545
:109750003FAFDBE7196821F44061196019681960AF
:10976000D96821F44061D960D968540641F4806118
:10977000D9607FF52AAFDBE7196821F440711960E1
:1097800019681960D96821F44071D960D96841F429
:109790008071D96091067FF515AFDBE7196821F07C
:1097A000C001196019681960D96821F0C001D96039
:1097B000D968D00641F04001D9607FF500AFDBE702
:1097C000196821F03001196019681960D96821F011
:1097D0003001D960D968140741F01001D9607FF5D4
:1097E000EBAEDBE77CF10508196821F00C0119608C
:1097F00019681960D96821F00C01D960D96841F065
:109800000401D96051077FF5D4AED9E7196821F07A
:109810000301196019681960D96821F00301D96042
:10982000D968900741F00101D9607FF5BFAEDBE751
:1098300070470D4A546C214351648288D4077FF5E8
:10984000B2AEE3E7084A146B214311638288D40760
:109850007FF5A9AEDAE7044A146C214311648288CB
:10986000D4077FF5A0AED1E700380240004870472A
:10987000F82300200E4B30B4DB68427801780D4CA1
:10988000DB43C3F30223C3F10403DBB202FA03F3A5
:1098900060181B0101F01F050122490903F0F003C4
:1098A000AA4080F8003344F8212030BC704700BF44
:1098B00000ED00E000E100E0002800F08D812DE9DE
:1098C000F0418288B2FA82F3202B82B0C3F11F04E8
:1098D00000F04D81DFF890E2A04D0EEB040605EBA1
:1098E000840C4FF00047DF4096F86860CCF8E01336
:1098F00000F054819A4B196821EA070119606FEA58
:10990000070C5F61036803F13F4101F57E010EEB37
:1099100091204FF0010890F8380000F01F0E400928
:1099200003284FEA912108FA0EFE00F04C8104282A
:1099300000F04081022800F03481D0070BD5186870
:1099400020F00300186018681860D86820F0030041
:10995000D860D868D86090070BD5186820F00C0044
:10996000186018681860D86820F00C00D860D868B3
:10997000D86050070BD5186820F0300018601868C0
:109980001860D86820F03000D860D868D860100718
:109990000BD5186820F0C000186018681860D868E7
:1099A00020F0C000D860D868D860D0060BD5186801
:1099B00020F44070186018681860D86820F440706F
:1099C000D860D868D86090060BD5186820F440603D
:1099D000186018681860D86820F44060D860D868AB
:1099E000D86050060BD5186820F4405018601868ED
:1099F0001860D86820F44050D860D868D860100645
:109A00000BD5186820F44040186018681860D868B2
:109A100020F44040D860D868D860D0050BD51868CD
:109A200020F44030186018681860D86820F440307E
:109A3000D860D868D86090050BD5186820F440200D
:109A4000186018681860D86820F44020D860D8687A
:109A5000D86050050BD5186820F4401018601868BD
:109A60001860D86820F44010D860D868D860100515
:109A70000BD5186820F44000186018681860D86882
:109A800020F44000D860D868D860D0040BD518689E
:109A900020F04070186018681860D86820F0407096
:109AA000D860D868D86090040BD5186820F0406062
:109AB000186018681860D86820F04060D860D868CE
:109AC000D86050040BD5186820F040501860186812
:109AD0001860D86820F04050D860D868D860120468
:109AE0000BD51A6822F040421A601A681A60DA68C8
:109AF00022F04042DA60DA68DA6004F0FC0000F13B
:109B0000804000F59C3004F003048368A4000F2219
:109B1000A24023EA020383608368CAB2A2401049CC
:109B20001A4382600B680F4A0CEA03030B604B6810
:109B30000CEA03034B600B683B430B608B680CEA39
:109B400003038B60CB680CEA0303CB6013683544D6
:109B50003B43136095F82034F02B07E05029002098
:109B6000003C0140083C01407CF1050802D802B0ED
:109B7000BDE8F081194B9B5D8DF80430F021032284
:109B80004FF4807301A885F820148DF80520ADF8F6
:109B90000630FFF76FFE02B0BDE8F0814FF0FF3CEA
:109BA000B0E6DFF83C80D8F844004EEA0000C8F880
:109BB0004400C2E6DFF82880D8F830004EEA000002
:109BC000C8F83000B9E6DFF81880D8F840004EEA4F
:109BD0000000C8F84000B0E6704700BF3C650608CA
:109BE0000038024000285FD00368374A2DE9F04171
:109BF00003F13F4404F57E0402EB9422012492F821
:109C0000382002F01F055209032A04FA05F456D041
:109C1000042A4FD0022A48D08588B5FA85F0C0F1D1
:109C20001F00C0F3CC0603EB860600F0070082009D
:109C30000F24306A944020EA04003062306A01FA4E
:109C400002F20243002132624FF0010E0A464FF049
:109C5000030C02270EFA02F838EA050002F10102AD
:109C60001CD118680CFA01F420EA04001860186886
:109C700007FA01F606431E609E6826EA04069E6007
:109C800098689860586820EA0800586058685860DA
:109C9000D86820EA0400D860D868D860102A01F19A
:109CA0000201D7D1BDE8F0817047084A556C2C43BA
:109CB0005464B1E7054A156B2C431463ACE7034ABF
:109CC000156C2C431464A7E77CF1050800380240AA
:109CD0002DE9F84FCB4C94F827140546C1F3400109
:109CE000D4F82C0441F084FC94F82714D4F8280408
:109CF000C94301F0010141F07BFC002D00F0E78039
:109D000005F1FF39C04EC14FC14D5FFA89F94FF0DF
:109D10001008D4F82C3433B11A689B8851690B426F
:109D200014BF53831383D4F8283433B11A689B8843
:109D300051690B4214BF53831383B4F83434002B9E
:109D400040F0578194F83614D4F8380441F050FCB0
:109D5000FA204FF47A714FF0010C7B68C3F30803CB
:109D6000002B40F01981EFF31183002B40F0148198
:109D7000D6F81C29D5F808E0D6F81C399A42F7D154
:109D8000D4F85C349E45F3D8D4F858A401FB0AF308
:109D9000A3EB0E03B3FBFAF301FB02327B68C3F3C0
:109DA0000803002B40F0B680EFF31183002B40F046
:109DB000B180D6F81C39D5F808B0D6F81CE973453F
:109DC000F7D1D4F85CE4F345F3D8D4F858A401FBF8
:109DD0000AFEAEEB0B0EBEFBFAFE01FB03E39B1A81
:109DE000B3F57A7FDAD30138B7D1D4F82C3433B154
:109DF0001A689B8851690B4214BF53831383D4F8AC
:109E0000283433B11A689B8851690B4214BF5383BD
:109E10001383B4F83434002B40F0DF8094F8361408
:109E2000D4F8380481F0010141F0E2FBFA204FF44C
:109E30007A714FF0010C7B68C3F30803002B40F0EC
:109E40008A80EFF31183002B40F08580D6F81C291F
:109E5000D5F808E0D6F81C399A42F7D1D4F85C342A
:109E60009E45F3D8D4F858A401FB0AF3A3EB0E03E4
:109E7000B3FBFAF301FB02327B68C3F3080343BB75
:109E8000EFF311832BBBD6F81C39D5F808B0D6F800
:109E90001CE97345F7D1D4F85CE4F345F3D8D4F862
:109EA00058A401FB0AFEAEEB0B0EBEFBFAFE01FB53
:109EB00003E39B1AB3F57A7FDED30138BBD109F1F6
:109EC000FF395FFA89F9B9F1FF0F7FF422AFBDE8DE
:109ED000F88FEFF3118A88F31288D5F808B02B6851
:109EE000DB0344BFC4F854C4D5F808B0D6F81C3915
:109EF000D4F854E45FFA8AFA8AF31188D4F858A4A3
:109F0000734401FB0AFEAEEB0B0EBEFBFAFE01FB37
:109F100003E3CEE7EFF3118A88F31288D5F808B08F
:109F20002B68DB0344BFC4F854C4D5F808B0D6F896
:109F30001C39D4F854E45FFA8AFA8AF31188D4F809
:109F400058A4734401FB0AFEAEEB0B0EBEFBFAFEF7
:109F500001FB03E343E7EFF3118E88F31288D5F892
:109F600008A02B68DA0344BFC4F854C4D5F808A08D
:109F7000D6F81C39D4F854245FFA8EFE8EF311887B
:109F8000D4F858E41A4401FB0EF3A3EB0A03B3FB25
:109F9000FEF301FB02326FE7EFF3118E88F31288B4
:109FA000D5F808A02B68DA0344BFC4F854C4D5F828
:109FB00008A0D6F81C39D4F854245FFA8EFE8EF32C
:109FC0001188D4F858E41A4401FB0EF3A3EB0A03FA
:109FD000B3FBFEF301FB0232E0E6D4F85034002B71
:109FE0003FF424AFD4F83C240023136084F84D34AC
:109FF0001CE7D4F85034002B3FF4AAAE3DF060FCCF
:10A00000A6E600BF502900205818002000ED00E00F
:10A0100010E000E02DE9F04FCA4CCB4E94F8271425
:10A02000D4F82C04DFF82883C84D83B0C1F3400175
:10A0300041F0DEFA94F82714D4F82804C94301F05B
:10A04000010141F0D5FA052301934FF01009D4F82E
:10A050002C3433B11A689B8851690B4214BF538367
:10A060001383D4F8283433B11A689B8851690B42A2
:10A0700014BF53831383B4F83434002B40F0598158
:10A0800094F83614D4F8380441F0B2FA32204FF480
:10A090007A710127D8F80430C3F30803002B40F08D
:10A0A0001B81EFF31183002B40F01681D6F81C2999
:10A0B000D5F808E0D6F81C399A42F7D1D4F85C34C8
:10A0C0009E45F3D8D4F858A401FB0AF3A3EB0E0382
:10A0D000B3FBFAF301FB0232D8F80430C3F30803F0
:10A0E000002B40F0B780EFF31183002B40F0B280DB
:10A0F000D6F81C39D5F808B0D6F81CE97345F7D165
:10A10000D4F85CE4F345F3D8D4F858A401FB0AFE74
:10A11000AEEB0B0EBEFBFAFE01FB03E39B1AB3F59D
:10A120007A7FD9D30138B5D1D4F82C3433B11A6839
:10A130009B8851690B4214BF53831383D4F828348E
:10A1400033B11A689B8851690B4214BF5383138340
:10A15000B4F83434002B40F0E08094F83614D4F88E
:10A16000380481F0010141F043FA32204FF47A7152
:10A170000127D8F80430C3F30803002B40F08B808C
:10A18000EFF31183002B40F08680D6F81C29D5F818
:10A1900008E0D6F81C399A42F7D1D4F85C349E45D1
:10A1A000F3D8D4F858A401FB0AF3A3EB0E03B3FBD6
:10A1B000FAF301FB0232D8F80430C3F3080343BBBF
:10A1C000EFF311832BBBD6F81C39D5F808B0D6F8BD
:10A1D0001CE97345F7D1D4F85CE4F345F3D8D4F81F
:10A1E00058A401FB0AFEAEEB0B0EBEFBFAFE01FB10
:10A1F00003E39B1AB3F57A7FDDD30138B9D1019B14
:10A200005F1E17F0FF0301937FF421AF03B0BDE899
:10A21000F08FEFF3118A89F31288D5F808B02B6814
:10A22000DB0344BFC4F85474D5F808B0D6F81C3921
:10A23000D4F854E45FFA8AFA8AF31188D4F858A45F
:10A24000734401FB0AFEAEEB0B0EBEFBFAFE01FBF4
:10A2500003E3CEE7EFF3118A89F31288D5F808B04B
:10A260002B68DB0344BFC4F85474D5F808B0D6F8A3
:10A270001C39D4F854E45FFA8AFA8AF31188D4F8C6
:10A2800058A4734401FB0AFEAEEB0B0EBEFBFAFEB4
:10A2900001FB03E342E7EFF3118E89F31288D5F84F
:10A2A00008A02B68DA0344BFC4F85474D5F808A09A
:10A2B000D6F81C39D4F854245FFA8EFE8EF3118838
:10A2C000D4F858E41A4401FB0EF3A3EB0A03B3FBE2
:10A2D000FEF301FB02326EE7EFF3118E89F3128871
:10A2E000D5F808A02B68DA0344BFC4F85474D5F835
:10A2F00008A0D6F81C39D4F854245FFA8EFE8EF3E9
:10A300001188D4F858E41A4401FB0EF3A3EB0A03B6
:10A31000B3FBFEF301FB0232DEE6D4F85034002B2F
:10A320003FF423AFD4F83C240023136084F84D3469
:10A330001BE7D4F85034002B3FF4A8AE3DF0C0FA30
:10A34000A4E600BF502900205818002010E000E0CB
:10A3500000ED00E0B0B10C49D1F86034102B03D10E
:10A36000052100203CF046BE03EB43020A4482F87C
:10A370006404202082F865040120034482F8660406
:10A38000C1F86034704700BF502900208078E1E7B1
:10A390002DE9F04FDFF8ACA32DED028B9AF8A8144D
:10A3A000002297B0CAF89824CAF89C24CAF8A024BE
:10A3B000CAF8A424CAF8942419B19AF8A9248AF8EE
:10A3C00094249AF8AA241AB19AF8AB248AF8A32400
:10A3D0009AF8AE241AB19AF8AF248AF89E249AF813
:10A3E000AC241AB19AF8AD248AF899249AF8B034BA
:10A3F00005935A1ED3B257B203937B1C00F0AA8078
:10A40000C54AC64E52F83790029602EBC7020023A7
:10A410001279019308EE102A1D4634469846267894
:10A420003946304644F034FB83463046BBF1000FDA
:10A430001ED040F0FFFDEA1D1321D2B220B14FF033
:10A44000000E827180F807E03CF010F9207844F0AB
:10A4500049FB4FF0070308F1010223714FF001039C
:10A4600084F802806070CDF804B05FFA82F8E3707F
:10A470000135042D04F10504D1D118EE100A029E15
:10A48000CDF81080FEF7F4FFA549A64A48680240BF
:10A4900042F440324A600FB9019B5BB9A24C48209C
:10A4A000FEF7E6FF2046022152F0D0F9A26842F002
:10A4B0000102A2609A489C4A4168BAF8B24441F449
:10A4C00000014160516821F480515160916B21F489
:10A4D000401141F480119163D16841F46001D16071
:10A4E000956B85F44011C1F3015101EB81011F20EF
:10A4F00000FA01FC25EA0C0C112505FA01F141EAEC
:10A500000C019163D16841F0E061D160956BC5F3B6
:10A510000151C1F10401C9B201EB810188404FF042
:10A52000120C25EA00000CFA01F108439063E4B133
:10A53000BAF8B414CAF8BC44A1B1BAF8B624CAF83F
:10A54000C01462B1019B7948521A90FBF2F2CAF82A
:10A55000C4246BB917B0BDEC028BBDE8F08F744A10
:10A560001288EFE7734A1188E7E7734A1488DFE738
:10A570004846049952F06AF9684B012003F1140827
:10A580000723F278441CE4B252B375783279A5F10E
:10A590000A0101EB410105EB450C092D03FA01FE0F
:10A5A00003FA0CFB02FA01F140F2A080D9F80C206A
:10A5B00022EA0E0E41EA0E01C9F80C10421E02EB0F
:10A5C00082021F21062801FA02FC05FA02F273D862
:10A5D000D9F8341021EA0C010A432046C9F8342086
:10A5E0000536B045CDD1D9F80820039942F4007260
:10A5F000C9F80820D9F8082042F48072C9F8082068
:10A60000D9F80820574442F00102C9F8082097F908
:10A61000B82402203DF0F6FB044600289AD0466894
:10A6200030463DF0DDFB454A431E242101FB032358
:10A6300093F81451002D8DD1059983F81511062238
:10A6400083F81421002885D030463DF0C9FB4FF037
:10A65000EFFD60680AF06CFC07A80AF02BFC049E72
:10A66000A26837480792012E8CBF4FF48063002305
:10A670000D9309F14C034FF48072CDE90A5608930B
:10A6800009904FF4003360680C9507A94FF40067F8
:10A690004FF40056CDE91023CDE90E760AF01CFCEC
:10A6A0006268136843F001031360D9F8083043F07F
:10A6B0008043C9F808304DE7C11FA0F10D0201EB3E
:10A6C00081014FF01F0E02EB82020C280EFA01FCF2
:10A6D0000EFA02F005FA01F113D8D9F8302022EA77
:10A6E0000C0211432046C9F8301079E7D9F8101050
:10A6F00002FA0CF221EA0B0B42EA0B02C9F8102015
:10A700005CE7D9F82C1005FA02F221EA00010A43AD
:10A710002046C9F82C2063E7F4F10508E42D002059
:10A7200000230140E030FCFF0020014080380100A0
:10A730002E7AFF1F2C7AFF1F2A7AFF1F9801002014
:10A74000182E0020502900202DE9F84F2E4F00EB45
:10A75000800407EBC404D4F8D4642EB1054694F801
:10A76000E90400F0FF0820B14FF000084046BDE8C2
:10A77000F88F89469A4693463CF0B2FF4FEA49016A
:10A780000123C9B284F8EA1484F8EBB484F8ED34F8
:10A7900084F8EE8484F8EC3484F8E93484F8E884AE
:10A7A000B288C4F8F0A491058146C4F8F4A41DD47D
:10A7B0003388DA0510D442F20F7405E03CF090FFC4
:10A7C000A0EB0903A34215DC33889B05F6D433883C
:10A7D0009BB243F480733380B3889BB243F44073DD
:10A7E0004FF00108B3804046BDE8F88F98464046D8
:10A7F000BDE8F88FB7F8483501339BB22846A7F873
:10A80000483551F0B7FAB1E75029002070B5464EEF
:10A8100096F84A4504EB440306EBC303650093F83E
:10A820004C35032B6ED8DFE803F059291E0225446E
:10A8300006EBC505D5F85005002870D196F8AC3563
:10A840009C425FD0013404F00302934286F84A250B
:10A8500058D002EB420406EBC4040223C4F85005AE
:10A8600084F84C3570BD2B1906EBC303D3F8502583
:10A8700072B1013AC3F85025002070BD2B1906EBC8
:10A88000C303D3F85025002AF3D1022283F84C25C4
:10A89000254406EBC50595F85835013BDBB285F834
:10A8A00058358BBB214B96F8AC65D3F83813D5F8E7
:10A8B0005405621C02F003024B1E0324B2420344FF
:10A8C00085F84C45B3FBF1F0C5F850051AD0994214
:10A8D00018D80138C5F85005012070BD42F040FF7E
:10A8E00080B1124B2C44D3F8382306EBC404012169
:10A8F00002F51C5384F84C150F33B3FBF2F3C4F884
:10A90000503570BD012070BD084BD3F838230120AD
:10A9100002F2E733B3FBF2F3C5F8503570BD0138EE
:10A92000C5F85005002070BD502900209801002076
:10A9300070B592B000230DF10705CDE902538DF8F3
:10A940000710079201218DF81430069308930B939A
:10A950000E93109300220023CDE90C230668049186
:10A96000044609918DF828108DF83C10EFF31185FD
:10A97000102383F3128803681B6A03B3049B02A8A5
:10A9800002461BB1D3691432002BFBD1336AF3B1F9
:10A99000996839B9934209D0196829B15B689968F7
:10A9A0000029F7D01433F3E7C3E90040EDB285F393
:10A9B00011882268136A002BFCD112B070BD02AB63
:10A9C000EDB2336285F3118850F018FFF1E71C6097
:10A9D000FFDE00BF03681A78012A01D0002070470B
:10A9E00093F90430044A03EB830302EBC30393F8A7
:10A9F000E904C0B2704700BF50290020F0B53B4CBD
:10AA0000D4F8B0552B78022B95B018D0012B02D07A
:10AA1000002015B0F0BD95F904506B1CF8D0022D44
:10AA2000F6DC0091134694F8B4150246284651F01E
:10AA300087FB0028ECD0284651F05EFCE9E72B6A42
:10AA4000002BE5D10DF10F0C8DF80F000026012031
:10AA50000027CDE90833CDE90A12CDE90E67059349
:10AA60008DF81C300D9310931293CDF810C0069002
:10AA70008DF830008DF84400EFF31180102383F33C
:10AA80001288D4F8B0351B6A13B3069B04AE324665
:10AA90001BB1D3691432002BFBD12B6A13B3996815
:10AAA00039B993420AD0196829B15B6899680029BD
:10AAB000F7D01433F3E70E4AC3E90026C0B280F39F
:10AAC0001188D4F8B025136A002BFCD10120A0E72F
:10AAD00004ABC0B22B6280F3118804F5B66050F06D
:10AAE0008DFEEEE7024A1A60FFDE00BF502900200B
:10AAF000002F002070B503681D78022D14D0012DA1
:10AB000001D0002070BD044693F904000A4B421C9A
:10AB100083F87C56F5D00228F3DC0A4603F27C6306
:10AB20002179BDE870400FE61B6A002BE9D10122B4
:10AB300042F046FC012070BD502900202DE9F04173
:10AB4000C54BC64EC64DC74C0822C3F88820336B90
:10AB500082B043F00103336307464FF4C0522846E6
:10AB600040F2023388466946CDE900230AF0C4FA70
:10AB70006B6AC4F8648C23F470436B626B6AC4F82C
:10AB80006C7C43F420436B626B6AB749C4F8681C61
:10AB900023F470236B626B6AB448C4F8800643F4F4
:10ABA00020236B62736CB249C4F8841643F480436B
:10ABB0007364736BAF48B049C4F8900643F08003E8
:10ABC00002257363AD4F84F88856AD4EAD4DC4F881
:10ABD000D4164FF0A043C4F88C36AB4AC4F89C7628
:10ABE00003F53463A1F5D071C4F8D856C4F8A06653
:10ABF000C4F8DC36C4F8A4160123DFF8BCC2C4F8DC
:10AC000098C607F51077A5F5E465A6F5A066A1F549
:10AC10008C61C4F8E076C4F89456C4F84C6784F8A4
:10AC20008B3605F5A075536106F5B076C4F810179C
:10AC300084F892371946954B954AC4F81857A7F5EA
:10AC4000BC67A035C4F82467924EC4F82077C4F8D6
:10AC5000283707F5D45703F56953C4F82C574FF03C
:10AC600050250020DFF854E2C4F85027ACF5687C8A
:10AC700002F5A042C4F85477C4F8586707F5A04716
:10AC800006F5A046C4F85C37C4F86057A3F54853EE
:10AC900004F5D065C4F86427C4F86C67C4F88C3731
:10ACA000C4F814E7C4F81CC70246C4F868772B46FA
:10ACB00084F89407402683F81C21A3F8222101324E
:10ACC000042AC3E9496083F81D1183F81F01C3F802
:10ACD000300103F12803EED1002211462B4640201B
:10ACE00083F87423A3F87A230132042AC3E9DF012D
:10ACF00083F8751383F87713C3F8881303F12803D7
:10AD0000EED14FF0A04364489A6822F001029A60A5
:10AD1000DA6842F04002DA60FDF7E2FD94F8893625
:10AD20000022212161F317420BB142F4801294F802
:10AD30008316D4F88C3601299A6300F0E480DA682F
:10AD4000D4F88C67D4F89006C2F3076121F0600153
:10AD500041F0400161F31F620021DA603160026856
:10AD600061F3CC22026094F88B26012A00F0B880AF
:10AD700010214A48FDF7D4FF4848FDF7B7FFD4F843
:10AD8000900694F8813600224FF0FF310261426153
:10AD90008161C26153B305F11407414E114607EBBF
:10ADA00083074FEA830C4FF0FF0E56F8042F136809
:10ADB000002BACBF00234FF09043B74213601161EA
:10ADC000C2F808E0F1D105F1500336496344002789
:10ADD000FF2651F8042F1568002DACBF00254FF059
:10ADE00090459942156017619660F2D1036994F815
:10ADF000831643F480730129036161D0D4F88C2653
:10AE000029480023936100294FF0FF336FF0804100
:10AE100051615360516114BF00231023906143F4CA
:10AE200070139069D4F8681C43F4605343F008032E
:10AE3000034393619368096843F001039360884773
:10AE40001A4B1B4ADA6068461A4B0093FEF712FD54
:10AE500002B0BDE8F08100BF00E100E00038024030
:10AE60000000024050290020D40400200804010002
:10AE70004000400100080050000B00502009005025
:10AE800040090050200B0050003C0140C00500501C
:10AE90000010005000300050DC2F0020D02F002088
:10AEA000E42F0020203000200008008000ED00E0AA
:10AEB0000005FA054302000100090050200500507A
:10AEC000D4F88C26144B03636FF08041134D00239C
:10AED0004FF0FF30936151615060516195619EE781
:10AEE00001680F4A0F4E41F0030101608021596251
:10AEF0009E62C3F80421E022C3F80821C0F2400298
:10AF0000C3F80C2134E79A6822F03E0141F02A018F
:10AF100061F307029A6012E70301810000080080D4
:10AF2000A00040008000200010B5184C94F8750C6B
:10AF300088B9174B83F85100586594F8783C012B79
:10AF40001ED0D4F87C3CFBB112495B68BDE81040D0
:10AF5000A1F10C00184740F06DF894F8772C0C49DB
:10AF6000003A18BF012281F8512048650028E4D03A
:10AF70001F22C280FEF7F6FA94F8783C012BE0D14C
:10AF8000054BC4F87C3CDFE710BD00BF5029002012
:10AF900058180020D0350020F004002070B4447907
:10AFA00041BB03684FF400524FF400762025022184
:10AFB0003CBB1A8C22F001021204120C1A841A8B68
:10AFC000188C22F0F30280B2120420F00A00120C56
:10AFD000014342F0010241F001011A8319841A8BE6
:10AFE00022F00C021204120C1A831A8B92B270BC5B
:10AFF0001A83704700220368164615461146002C36
:10B00000D7D0042C21D0082C38D0198C21F48051B1
:10B010000904090C19849C8B1D8C45F6FF7040F6C1
:10B02000FF4128402140024342F4805241F48071A4
:10B0300099831A849A8B22F440621204120C9A8328
:10B040009A8B92B270BC9A8370471A8C22F01002CD
:10B050001204120C1A84188B198C89B240F6FF4224
:10B0600021F0A00102400D4342F4807245F010052A
:10B070001A831D841A8B22F44062B3E71A8C22F4DF
:10B0800080721204120C1A84998B1A8C21F0F3012D
:10B0900092B2090422F42062090C324342F4807215
:10B0A00041F0010199831A849A8B22F00C02C4E7C3
:10B0B000036870B55E6A26B133460522BDE870406C
:10B0C000184704460D464E1D00E023689B68204645
:10B0D00098470028F9D0236815F8011B1B68204603
:10B0E0009847B542F1D170BD0A44914217D010B4CF
:10B0F0000139541E11F8013F08225840430010F056
:10B10000800F08BF400083F0D50314BFD8B2C0B28F
:10B11000013AF3D1A142EDD15DF8044B704770477D
:10B120002DE9F047164D0746002095F9959C05F648
:10B130009C4684B007EB010805F63C7504464FF0C9
:10B14000B60A3368ABB193F83830142B11D019F12B
:10B15000020F01D04B450CD1002269463046CDE9A3
:10B160000244CDE90078ADF808A08DF80D4030F02C
:10B1700003FFE036B542E4D104B0BDE8F08700BF7C
:10B1800050290020094B93F8F239042B08D9053BCC
:10B19000032B08D801231A4600B1037010467047EC
:10B1A00000230122F8E700231A46F5E7581800208B
:10B1B0002DE9F0479AB0DDE9226ADDF89090044667
:10B1C0000D461746984602E020683CF079FE20685C
:10B1D0003CF07EFE0028F7D10146642201A853F01E
:10B1E0007CFF264B8DF80450CDF85CA00293002D17
:10B1F00040D0AB1E012B3FD9042D14BF00220322E7
:10B200001F4B0396D3F81C398DF805201E440123EB
:10B21000CDE9059404968DF85B3037B14246394646
:10B2200007A853F0F9FE8DF85A80164E96F87E9FC7
:10B2300000231893B9F1000F19D196F87D0F6422FD
:10B2400002FB006001A900F5786053F0E5FE0123E0
:10B2500086F87D9F86F87E3F236843B143463A4691
:10B26000294620461AB0BDE8F04713F097BF1AB040
:10B27000BDE8F0870522C3E70222C1E78C38002031
:10B2800058180020502900209FED727A07EE901A7E
:10B2900020EE070AF8EE677A27EE800AFDEEC07A04
:10B2A00017EE903A2033402B00F2C480DFED6A7A2B
:10B2B000B4EEE70AF1EE10FAF0EE407A0CDD9FED05
:10B2C000676ADFED676AB0EE677AB4EEE67AF1EEB0
:10B2D00010FA77EEC67AF6DC9FED627AF4EEC77A62
:10B2E000F1EE10FA0CD59FED5D6ADFED5F6AB0EE0E
:10B2F000677AB4EEE67AF1EE10FA77EE867AF6D453
:10B300009FED5A7AF4EEC77AF1EE10FA00F38A80D4
:10B310009FED577AF4EEC77AF1EE10FA44BF9FED35
:10B32000517A77EE677A27EEA76ADFED525A9FEDE2
:10B33000527ADFED526AA6EE257A67EE865AE6EE7D
:10B34000076AB6EE007AE5EEA67A27EE877ADFED99
:10B35000476A70EE267ABDEEE76A16EE103A2033A1
:10B36000402B64D8B4EEE60AF1EE10FA0CDDDFED06
:10B370003B5A9FED3B6AF0EE676AF4EEC66AF1EE67
:10B3800010FA77EEE57AF6DCDFED366AF4EEE67A6F
:10B39000F1EE10FA0CD5DFED315A9FED336AF0EE85
:10B3A000676AF4EEC66AF1EE10FA77EEA57AF6D483
:10B3B000DFED2E6AF4EEE67AF1EE10FA3DDDDFED18
:10B3C000266A76EEE77A67EEA75A9FED2A5A9FED36
:10B3D0002A6ADFED2A6AA5EE856A27EEA55AE5EE10
:10B3E000866AB8EE006AE5EE267A67EE867AC7EEE0
:10B3F000206AB7EE006A76EE865A76EE666A86EEC8
:10B40000257A80ED091A67EE277A66EE876AC0ED25
:10B41000017AC0ED037A80ED007A80ED027AC0ED0A
:10B42000046A70479FED0C7A77EE677A7BE7DFED71
:10B43000147ADCE79FED127A89E7DFED0D6AF4EE0E
:10B44000E67AF1EE10FA44BFDFED066A76EEE77AAF
:10B45000B9E700BF27D4D236DB0F4940DB0FC94024
:10B46000E4CB1641DB0F49C0E4CB16C1DB0FC93F6B
:10B47000DB0FC9BF92E741B99730083C15A82ABE37
:10B4800000000000E24B2DE9F04103F6EC73D3ED30
:10B49000000AE04EF8EE600A96F86C4406F58D63FB
:10B4A0002DED028BC3ED000A002C6FD1DFF8C4C371
:10B4B00096F87C74C6F878449CF80040002F39D088
:10B4C000B6F872349FEDD46A9FEDD47A07EE903AC5
:10B4D000F8EE677A20EE877AC6EE276AD04B002214
:10B4E000012F1A6076EE876AC7EE267AC3ED017ADD
:10B4F00020D0022F9A60C3ED037A1BD0032F1A616C
:10B50000C3ED057A16D0042F9A61C3ED077A11D0E6
:10B51000052F1A62C3ED097A0CD0062F9A62C3ED8B
:10B520000B7A07D0072F1A63C3ED0D7A02D09A6306
:10B53000C3ED0F7ABB4B9FEDBC6A93F8123A9FEDB7
:10B54000BB7A9FEDBB0ABB4A07EE903AF8EEE77A6A
:10B550009CF8583BC6EE276A1C4414FB07F4E4B27F
:10B5600007EE904A60EE870AF8EEE77AC2ED006ACD
:10B57000A7EEA00A52F02AFBBDEC028BFCEEC07ACB
:10B5800017EE903A86F8CC35BDE8F08196F86D3428
:10B590009FEDA96AB6F86E249FEDA82ADFEDA86A90
:10B5A000DFF8D0C296F87C74C6F878C407EE903AFB
:10B5B000FCEEE05AB6F870348CF8004007EE103A12
:10B5C00015EE903AF8EE655AF8EE677A86EE255A4F
:10B5D000CCF81430012386F8743406EE102AB8EE45
:10B5E000C77A27EE822AB8EE466A67EE266A22EE0E
:10B5F000252A8CED025ACCED017A8CED036ACCED54
:10B60000046A002F96D0DFED8F7A9FED8F4ADFED31
:10B610008F5AC7EE871AC7EB0715A7EB07180CEB75
:10B62000C5054FEAC8084FF0000EB1EE611A9FED54
:10B63000886A08EB05009FED873ADFED873ADFED7A
:10B64000876A0346002207EE902AB8EEE77A27EED3
:10B65000027AFDEEC77A17EE901A2031402900F2E7
:10B66000D080B4EEC47AF1EE10FAF0EE477A0CDD39
:10B67000DFED7B4A9FED7B5AF0EE672AF4EEC52A98
:10B68000F1EE10FA77EEE47AF6DCF4EEE57AF1EE1C
:10B6900010FA0CD5DFED724A9FED735AF0EE672A6F
:10B6A000F4EEC52AF1EE10FA77EEA47AF6D4F4EEB1
:10B6B000C67AF1EE10FA40F39A8074EE677A27EEBC
:10B6C000A75AB0EE630AA5EE030ADFED684AE5EE7D
:10B6D000004A65EE272AB7EE005AE2EEA47AB0EEF1
:10B6E000458AF0EE454AA1EEA78AE1EE274AC5EE6B
:10B6F000088A84EE880A77EE067ABDEEE75A15EEE0
:10B70000101A203140296FD8B4EEC67AF1EE10FA43
:10B710000CDD9FED535A9FED537AF0EE674AF4EE3D
:10B72000C74AF1EE10FA77EEC57AF6DCF4EEE57A68
:10B73000F1EE10FA0CD59FED4A5A9FED4B7AF0EEE0
:10B74000674AF4EEC74AF1EE10FA77EE857AF6D43E
:10B75000F4EEC67AF1EE10FA3CDD74EE677A27EE6D
:10B76000A75AF0EE632AE5EE032A9FED407AA5EE94
:10B77000227A65EE274AB8EE005AE4EE877A67EE41
:10B78000857A87EE887A0132A24203F1280343EDDD
:10B79000048A03ED037A03ED017A43ED028A83ED17
:10B7A000000AC3ED056AC3ED026AC3ED016AC3ED89
:10B7B000046AC3ED036AFFF646AF783085427FF432
:10B7C0003AAF0EF5707EBEF5346F05F570757FF4F7
:10B7D0002EAF75E69FED267AF4EEC77AF1EE10FAF9
:10B7E00048BF75EEE77ABAE7F0EE667AC9E79FEDF3
:10B7F000205AF4EEC57AF1EE10FA48BF75EEE77AFA
:10B800005DE7B7EE000AF0EE408AB0EE408A72E7DC
:10B8100050290020483A002083F9223EBD37863562
:10B820001840002058180020555555406E12833A94
:10B8300048E1FA3E104000200060EA4827D4D236A2
:10B840000AD7233C00004842DB0F4940DB0F49C0C8
:10B85000DB0FC93F92E741B99730083C0000000078
:10B86000DB0FC940E4CB1641E4CB16C115A82ABEB4
:10B87000DB0FC9BFA86B0020014488420ED010B472
:10B880000346074C074813F8012B04FB00F09942CC
:10B8900080EA0200F7D15DF8044B70470148704719
:10B8A00093010001C59D1C810C480D4BD0F8281652
:10B8B00010B40C4CC0F818368A1E2231B0F8463647
:10B8C0001B01A4FB03C3DB08A3F5B06322F8023F0E
:10B8D0009142F3D15DF8044B704700BF483A002015
:10B8E000493B0208CDCCCCCC70B5084C251D2E466A
:10B8F00014F8010B33F00CF828B1037805F8013B7C
:10B90000B442F5D170BDFF23F8E700BFB44000207A
:10B910002DE9F0471C4F012607F10805B2464FF00C
:10B920003C094FF0000817F8010B3FF083FB044679
:10B9300090B180F80690C671FB7803F07F02012A6F
:10B9400018D013F0800F20460DD185F804803FF009
:10B9500043FE85F805802C600136052E05F10805AB
:10B96000E1D1BDE8F08785F804A03FF03BFE85F803
:10B9700005A0F0E71B0604D42046FDF797FDFB78F1
:10B98000DFE73FF02FFEF7E7BC4000202DE9F04F46
:10B99000DFF8FC91DFF8FCA183B009F10C0601246B
:10B9A00019F8018BB8F1000F00F0C5804FEA1815A7
:10B9B000013D032D08F00F0200F2C0800AEB4503A1
:10B9C000988D40FA02F717F0010700F0D2800123AA
:10B9D0009340013B1840554451F0BAF895F8343083
